:020000022000DC
:10300000000001203D32020095320200973202009A
:10301000993202009B3202009D3202000000000043
:103020000000000000000000000000009F320200CD
:10303000A132020000000000A3320200A53202000B
:1030400035620200AB320200917B0200AF32020017
:10305000B1320200B3320200FD660200B732020054
:10306000B9320200BB320200BD320200BF320200A0
:10307000C1320200C3320200C5320200C732020070
:10308000C9320200C54E0200CD320200CF3202002A
:10309000054F0200D332020039930200D7320200FA
:1030A000D9320200DB320200DD320200DF320200E0
:1030B000E1320200E3320200A7320200A73202002E
:1030C000E5320200E7320200E9320200EB32020090
:0C30D000ED320200EF320200F13202008B
:1030DC00364937480A1A02D0072291438D463549A2
:1030EC0035480A1A06D00722914381F30988022237
:1030FC0082F3148831483249324A00F045F832489C
:10310C003249334A00F040F832483349334A00F030
:10311C003BF833483349344A00F036F833483449E5
:10312C00344A00F031F834483449354A00F02CF870
:10313C0034483549354A00F027F8354835490022DE
:10314C0000F02DF834483549002200F028F83448B6
:10315C003449091A082903DB00220260043001609B
:10316C00314A90471F482049884205D002680430F4
:10317C0003B4904703BCF7E700208646EC460020DA
:10318C0000212A4A9047FEE7884207D0521A05D000
:10319C00037801300B700131013AF9D17047884244
:1031AC0002D002700130FAE77047000000000120E5
:1031BC0000F80020000001200000012038AD0200C2
:1031CC009C17002004180020F4320200F432020094
:1031DC000899020038AD02009C1700209C170020B3
:1031EC00DC990200DC990200DC990200DC990200F7
:1031FC00DC990200DC990200DC990200DC990200E7
:10320C0038AD0200A0AD0200041800200418002004
:10321C0004180020231F0020241F0020241F00203E
:10322C00241F002024210020613202005D7D020059
:10323C000F484FF00701884385460E4880470E48DB
:10324C00016841F470010160BFF34F8FBFF36F8FC2
:10325C00FFF73EBF09480A490A4A884207D0521A6A
:10326C0005D0037801300B700131013AF9D1704768
:10327C00000001205189020088ED00E070990200E5
:10328C00301700209C170020FEE7FEE7FEE7FEE764
:10329C00FEE7FEE7FEE7FEE7FEE7FEE7FEE7FEE7FA
:1032AC00FEE7FEE7FEE7FEE7FEE7FEE7FEE7FEE7EA
:1032BC00FEE7FEE7FEE7FEE7FEE7FEE7FEE7FEE7DA
:1032CC00FEE7FEE7FEE7FEE7FEE7FEE7FEE7FEE7CA
:1032DC00FEE7FEE7FEE7FEE7FEE7FEE7FEE7FEE7BA
:0832EC00FEE7FEE7FEE700BF6C
:1032F40000B5A1B00590049103920293049802F0E2
:10330400D0FC039B1593029B169300231793002371
:103314008DF8603000231993229B1A9300231F9386
:103324000FA91F9B0822049802F076FD08231F931F
:10333400119B1293109B9BB2ADF84C3000238DF877
:1033440050309DF83C3003F00303DBB2012B32D143
:103354000F9BC3F395231D939DF83C30C3F3C20325
:10336400DBB28DF84E309DF83C30C3F38003DBB202
:10337400002B14BF01230023DBB28DF84F30BDF8BE
:103384003C30C3F38313DBB21C931C9B9A0009A942
:103394001F9B049802F040FD1C9B9B001F9A134442
:1033A4001F9312AA09A915AB009313461C9A1D98E2
:1033B40000F03AFF3BE09DF83C3003F00303DBB23E
:1033C400022B34D1BDF83E30C3F389139BB21E9354
:1033D4009DF83C30C3F3C203DBB28DF84E309DF848
:1033E4003C30C3F38003DBB2002B14BF0123002362
:1033F400DBB28DF84F301E9B082B28BF08231B938C
:1034040007A91F9B1B9A049802F006FD1F9A1B9B99
:1034140013441F931E9A1B9BD31A1E9315AB12AA17
:1034240007A81B9900F0A2FF1E9B002BE3D1049870
:1034340002F046FC00BF21B05DF804FB82B00190AD
:103444000091034B01221A7000BF02B0704700BF05
:103454004418002030B58DB003468DF807301A4B60
:1034640002AC1D460FCD0FC495E80F0084E80F0091
:10347400062302934FF0FF3303934FF0FF3304937B
:103484004FF0FF3305934FF0EB7308939DF807302B
:10349400002B01D00D4A00E0002202AB19460C4873
:1034A40003F08EFF0B900B9B0A930A9B002B04D016
:1034B400084A43210A9800F0CDFF074A9DF80730D7
:1034C400137000BF0DB030BD4C9A020041340200AD
:1034D4009C170020DC9902004518002000B583B039
:1034E40001238DF807309DF807301846FFF7B2FF27
:1034F40000BF03B05DF804FB00B589B003900291EE
:103504000192019B8DF81F30124B00221A709DF816
:103514001F301A460299104804F0BAF80690069B28
:103524000593059B002B04D00C4A5321059800F009
:1035340091FF00BF0A4B1B78002B07D0054B1B786B
:10354400DBB283F00103DBB2002BF3D100BF09B07F
:103554005DF804FB441800209C170020DC9902004D
:103564004518002000B585B003900291054B0093E7
:103574004023054A02990398FFF7BAFE00BF05B03D
:103584005DF804FBFD3402000418002082B00190B1
:1035940000BF02B07047000000B583B00190054839
:1035A40003F060FF0020FFF755FF00BF03B05DF894
:1035B40004FB00BF9C17002082B00190019B0122F4
:1035C4005A7200BF02B0704700B583B04FF0FF33AA
:1035D4000193FFF783FF0421084800F05FFD019089
:1035E400019B002B03DA0649482001F04EFD0348F5
:1035F400FFF7E2FF00BF03B05DF804FBA41700204F
:10360400789A020000B583B001900091019B1B6879
:103614001B6800990198984700BF03B05DF804FB4C
:1036240000B583B00190019B1B685B6801989847C3
:1036340000BF03B05DF804FB82B001900B468DF827
:103644000330019B9DF803201A7200BF02B070473B
:1036540082B00190019B1B7A184602B0704782B079
:103664000190019B01225A7200BF02B0704782B0E0
:103674000190019B5B7A184602B0704710B487B082
:1036840001900091019B009A53E8004F44EA020024
:1036940043E8000191F0000FF6D1059404900391E2
:1036A400049B184607B05DF8044B704710B487B00C
:1036B40001900091019B009A53E8004F04EA020034
:1036C40043E8000191F0000FF6D1059404900391B2
:1036D400059B184607B05DF8044B704700B583B0EE
:1036E400019001210198FFF7C9FF0346184603B072
:1036F4005DF804FB00B583B0019000210198FFF749
:10370400D5FF0346184603B05DF804FB00B587B047
:1037140001901F4BFF229A601D4B00221A601C4B24
:1037240000225A601A4B0022C3F81824184B0022B6
:10373400C3F81424164B002283F81C24154802F005
:1037440015FA0490049B002B01D0049B1CE0124A40
:10375400124BD31ADB080393002305930FE0059A59
:1037640013465B0013449B001A460D4B134402930B
:10377400059B9AB2029B1A80059B01330593059A17
:10378400039B9A42EBD30023184607B05DF804FB71
:1037940018190020EC9A02005899020010990200AE
:1037A40030170020024A034BD31ADB08184670472F
:1037B400589902001099020000B587B001900B4699
:1037C4008DF803309DF80330002B23D0FFF7EAFF78
:1037D40004900023059317E0059A13465B001344F5
:1037E4009B001A460E4B13440393039B5B881A46B3
:1037F400019B1B689A4204D1019B059A1A6000231D
:1038040009E0059B01330593059A049B9A42E3D38F
:10381400052300E00023184607B05DF804FB00BF51
:103824003017002000B585B001900B468DF80330A9
:103834009DF8032001AB11461846FFF7BDFF034670
:10384400002B07D1019BDB00054A13440393039B20
:103854001B6800E00023184605B05DF804FB00BFB8
:103864001099020084B001900B468DF80330019B3F
:10387400DB00174A134402939DF80330013B032BEA
:103884001CD801A252F823F09D380200A53802008A
:10389400AD380200B738020002238DF80F3011E072
:1038A40004238DF80F300DE0029B1B798DF80F3047
:1038B40008E0029B5B798DF80F3003E000238DF85C
:1038C4000F3000BF9DF80F30184604B0704700BF9A
:1038D4001099020000B589B04148FFF7FFFE414846
:1038E400FFF7FCFE404B5B6807933F4B9B680493D8
:1038F400079A049B134002339B003B4A134404334E
:1039040006931BE0079B01330793069B5B88C3F375
:1039140089139BB21A46069B1B88C3F389139BB277
:1039240013441A46079B13440793079A049B1340B6
:1039340002339B002C4A134404330693069B1B78E2
:1039440003F00303DBB2002BDCD00023059311E06A
:10395400059B9B006A461A44079B591C07910499CE
:103964000B40214902339B000B445B681360059BA9
:1039740001330593059B012BEAD99DF80030C3F36D
:103984000103DBB2012B0CD0022B14D1BDF80230A1
:10399400C3F389139BB203339B08079A1344079319
:1039A4000FE0BDF80030C3F38313DBB21A46079B64
:1039B4001344079305E00D4940F24D1001F065FBF7
:1039C40000BF0848FFF796FE0390039B002B02D02C
:1039D400054A079B536000BF09B05DF804FB00BFB4
:1039E400301D00202C1D002018190020109B0200FF
:1039F40010B586B00390029101920093039B1B0CB7
:103A0400ADF81630BDF81640FFF7CCFE03469C42D5
:103A140004D325494FF4B27001F037FB009B5A1CC4
:103A2400089B1340BDF81620204902339B000B4429
:103A34005A60009A089B134002339B001B4A1344AC
:103A440004330493039B03F01003002B14BF0123DE
:103A54000023D9B2049A137861F382031370039B91
:103A6400DBB203F00703D9B2049A137861F3C503F8
:103A74001370019BDBB203F00F03D9B2049A1388CD
:103A840061F389131380029BC3F31501049A13682D
:103A940061F39F231360049A1378012161F30103F6
:103AA400137000BF06B010BD109B0200181900204F
:103AB40000B58BB001900091019B0233089302235F
:103AC400079301238DF81B3000238DF80F300DF17F
:103AD4000F03184601F08CFA214B1A68009B1A60F8
:103AE4001F4B9A681E4B59681D4B1B68CB1A134415
:103AF40001330993089A079B134405930BE0FFF7DE
:103B0400E9FE174B9A68164B5968154B1B68CB1A7C
:103B1400134401330993059A099B9A42EFD8104B39
:103B24001A680F4B9B68134002339B000C4A1344E2
:103B340004330493049A137843F003031370084B7B
:103B44001A68089B1344064A13609DF80F30184600
:103B540001F064FA9DF81B3018460BB05DF804FBC5
:103B64001819002000B58BB00590049103920293BC
:103B74001F4B9B68079306AB19460298FFF798FF03
:103B84000346002B24D0069B023309930023089399
:103B940011E0099B5A1C0992079A1340089A920053
:103BA40003990A441268124902339B000B445A6079
:103BB400089B01330893089A029B9A42E9D3069A18
:103BC400079B00931346029A04990598FFF710FF88
:103BD400074B93F81C34002B05D000BF00F064F8A9
:103BE4000346002BFAD100BF0BB05DF804FB00BF05
:103BF4001819002000B583B0019000910023002221
:103C040000990198FFF7AEFF00BF03B05DF804FB15
:103C140000B587B0039002910192019B059305AA18
:103C2400012302990398FFF79DFF00BF07B05DF8D9
:103C340004FB00B587B00390029101920093019BAD
:103C44000493009B059304AA022302990398FFF7A7
:103C540089FF00BF07B05DF804FB00B589B003908D
:103C6400029101920093019B0493009B05930A9B8C
:103C740006930B9B079304AA042302990398FFF766
:103C840071FF00BF09B05DF804FB0000054B5A68E2
:103C9400044B1B689A420CBF01230023DBB2184675
:103CA400704700BF1819002000B599B0FFF7EEFF68
:103CB4000346002B01D00023B5E19D4B0022C3F83D
:103CC4001824BFF34F8F9A4B5B681793984B9B68EC
:103CD4001093179A109B134002339B00944A134489
:103CE40004331693002315930023149300230F9396
:103CF4001BE0179B01331793169B5B88C3F389134F
:103D04009BB21A46169B1B88C3F389139BB21344B8
:103D14001A46179B13441793179A109B13400233A8
:103D24009B00834A134404331693169B1B7803F0B9
:103D34000303DBB2002BDCD00023139311E0139BAD
:103D44009B0002AA1A44179B591C179110990B4007
:103D5400774902339B000B445B681360139B013368
:103D64001393139B012BEAD99DF8083003F0030346
:103D7400DBB2022B40F09C80BDF80A30C3F38913F8
:103D84009BB20D93BDF80A30C3F389139BB2502B39
:103D9400A8BF50230C930C9B9BB2C3F309039AB2A4
:103DA400BDF80A3062F38F13ADF80A300C9B083368
:103DB4000B939DF80830C3F3C203DBB20F930B9946
:103DC4005C4801F0DEFE1590159B002B00F0E380AB
:103DD400159801F066FF02A9149B0822159802F0B9
:103DE40009F8149B08331493179BDA43109B134070
:103DF40001339B000A930C9A0A9B9A4242D90A9B6C
:103E0400002B08D0179A109B134002339B00484A9A
:103E14001344043300E0484B09930A9B002B02D05F
:103E24000A9BDBB201E00C9BDBB28DF823300A9BCA
:103E3400002B01D0404B00E0002307930A9B002B8A
:103E440006D00C9BDAB20A9BDBB2D31ADBB200E0D9
:103E540000238DF81B309DF82320149B0999159895
:103E640001F0C8FF9DF82330149A13441493079B60
:103E7400002B16D09DF81B20149B0799159801F070
:103E8400B9FF0EE0179A109B134002339B00284A97
:103E9400134404330593149B0C9A0599159801F067
:103EA400A9FF0D9B03339B08179A1344179372E0E1
:103EB4009DF8083003F00303DBB2012B5DD1BDF89C
:103EC4000830C3F38313DBB2062B28BF0623DBB20F
:103ED40003F00F03DAB2BDF8083062F38913ADF8CA
:103EE4000830BDF80830C3F38313DBB202330E93FA
:103EF4009DF80830C3F3C203DBB20F930E9B9B0003
:103F040019460C4801F03DFE1590159B002B42D03C
:103F1400159801F0C6FE02A9149B0822159801F019
:103F240069FF149B08331493002313931BE000BF11
:103F340018190020EC9A020024190020179B5A1C1F
:103F44001792109A134002339B00394A1344191DE7
:103F5400149B0422159801F04DFF149B0433149311
:103F6400139B01331393BDF80830C3F38313DBB2FF
:103F74001A46139B9A42E1D80DE09DF8083003F0ED
:103F84000303DBB2032B06D1294BD3F81834002BDF
:103F940001D1002347E0159B002B3ED0244BD3F8DE
:103FA40010341293224BD3F81834002B1AD01598DE
:103FB40001F086FE31E000238DF847301298FFF7B8
:103FC40056FB0346002B02D001238DF847309DF8A1
:103FD4004730002B03D015991298FFF713FB129B5F
:103FE4005B681293129B002BE5D1159801F068FED3
:103FF40000238DF807300DF10703184600F0F8FF91
:104004000B4BD3F81834002B02D1094A179B536089
:104014009DF80730184601F001F8FFF737FE034614
:1040240083F00103DBB2184619B05DF804FB00BF4E
:104034001819002000B585B00023039322E0164B25
:10404400D3F81034029301238DF807300EE0029860
:10405400FFF7FEFA03461A46039B9A4203D1002354
:104064008DF8073005E0029B5B680293029B002BEE
:10407400EDD19DF80730002B01D0039B07E0039B93
:1040840001330393039B092BD9DD4FF0FF3318460B
:1040940005B05DF804FB00BF1819002000B585B019
:1040A40001900B468DF80330FFF7C4FF0390039B88
:1040B400B3F1FF3F01D1039B1EE0039BDBB2194622
:1040C4000198FFF7B9FA0E4BD3F81034002B07D13F
:1040D4000B4A019BC2F81034019B00225A600AE08B
:1040E400074BD3F810345A68019B5A60044BD3F839
:1040F4001034019A5A60039B184605B05DF804FB1E
:104104001819002000B583B00C4BD3F81034019378
:104114000A4B012283F81C2408E00198FFF79FFA58
:104124000198FFF77DFA019B5B680193019B002BCB
:10413400F3D100BF03B05DF804FB00BF18190020E1
:1041440010B582B001900091019BDB7983F00103EB
:10415400DBB2002B28D0019B1B7A002B12D0019BD1
:104164009B881A46019B9B7919461046FFF77AFBF8
:1041740003461A460E4B53F822301A460D4900984E
:1041840001F0C6F8019B9B791A460B4B53F8224069
:10419400019B9B8800211846FFF744FB03462246F7
:1041A4000649009801F0B4F800BF02B010BD00BF8A
:1041B400C4170020E49B0200B0170020E89B020013
:1041C40000B585B00390029113468DF80730039B28
:1041D400DB7983F00103DBB2002B0FD0039B1B7A46
:1041E400002B06D00D4B1B681A460D49029801F0AE
:1041F4008FF80C49029801F08BF807E09DF807301E
:10420400002B03D00749029801F082F8029801F0CC
:104214005DF800BF05B05DF804FB00BFC4170020C3
:10422400E49B0200F49B020030B58BB0079006912A
:10423400059204930E9B1B7B8DF827300E9B002266
:104244001A730E990498FFF77BFF059B062B7FD802
:1042540001A252F823F000BF794202008342020017
:1042640093420200A7420200C5420200ED4202004E
:104274001D43020007990E9801F04AF869E0069B75
:104284001B681A4607990E9801F042F861E0069BF4
:104294001A68069B04331B6807990E9801F038F8D6
:1042A40057E0069B1A68069B04331968069B08337B
:1042B4001B6800930B4607990E9801F029F848E013
:1042C400069B1968069B04331868069B08331B6811
:1042D400069A0C3212680192009303460A46079923
:1042E4000E9801F015F834E0069B1868069B043319
:1042F4001C68069B08331B68069A0C3212680699E0
:1043040010310968029101920093234602460799ED
:104314000E9800F0FDFF1CE0069B1C68069B04330E
:104324001D68069B08331B68069A0C3212680699AE
:1043340010310968069814300068039002910192C4
:1043440000932B46224607990E9800F0E1FF00E007
:1043540000BF00220E990498FFF732FF0E9B9DF8D0
:1043640027201A7300BF0BB030BD00BF00B587B063
:104374000390029101920093029B082B5CD8009B4E
:104384001B7B8DF81330009B00221A73009901984F
:10439400FFF7D6FE0023059314E0059A029B9A4288
:1043A40009D2039A059B13441B781A4624490098A2
:1043B40000F0AEFF03E02349009800F0A9FF059B3D
:1043C40001330593059B072BE7D91F49009800F09B
:1043D4009FFF0023059322E0059A029B9A4217D27D
:1043E400039A059B13441B788DF812309DF8123004
:1043F400184605F0F3F90346002B02D09DF812305D
:1044040000E02E231A461149009800F081FF03E0D2
:104414000F49009800F07CFF059B01330593059B31
:10442400072BD9D9012200990198FFF7C9FE009BF7
:104434009DF813201A7300E000BF07B05DF804FB79
:10444400F89B0200009C0200049C0200089C0200ED
:104454000C9C020000B589B0039002910192029B6A
:104464009BB2ADF81430019B0693039B079305ABF5
:104474001A46002144F2010000F050F800BF09B0D0
:104484005DF804FB86B003900291019201238DF83C
:1044940017309DF81730204A039B13601E4A029B75
:1044A40053601D4A019B9360039B44F201029342B3
:1044B40012D044F20202934222D1019B164AD360E5
:1044C400154BDB681B881A46134B9A61124BDB6849
:1044D4005B68114AD36113E0019B0F4A13610E4BD1
:1044E4001B699B680C4A53610B4B1B691B881A465A
:1044F400094B9A61084B1B695B68074AD36100BF8B
:1045040072B600BF9DF81730DBB2002BFAD162B649
:1045140000BF06B0704700BF381D002030B589B019
:10452400059004910392FFF7EDFD00BFFFF7BCFB7C
:104534000346002BFAD1059B41F20102934219D0A4
:1045440041F20102934202D8012B09D04AE044F21D
:104554000102934228D044F20202934214D041E073
:104564002D4B1B881B0443F001032C491846FFF70D
:1045740041FB42E0284B1B881B0443F001032849FC
:104584001846FFF737FB38E0039B0793224B1B8841
:104594001B0443F00100079B5B681A46079B1B88BA
:1045A4002049FFF746FB28E0039B06931A4B1B8820
:1045B4001B0443F00104069B9D68069B9B681846F8
:1045C40001F098FC03461946069B5B681A46069B55
:1045D4001B88019300920B462A4613492046FFF795
:1045E4003CFB0AE00C4B1B881B0443F00103049AB8
:1045F4000E491846FFF70CFB00BF0D4B1B6803F078
:104604000103002B00D0FFDE039A04990598FFF7FD
:1046140039FF00BF09B030BD30170020109C0200E4
:10462400309C0200549C0200709C0200889C020092
:10463400F0ED00E082B003468DF8073007499DF99C
:1046440007305B099DF8072002F01F02012000FAE1
:1046540002F241F8232000BF02B0704700E100E0FD
:1046640082B003468DF8073008499DF907305B098D
:104674009DF8072002F01F02012000FA02F2203305
:1046840041F8232000BF02B0704700BF00E100E002
:1046940082B003468DF8073008499DF907305B095D
:1046A4009DF8072002F01F02012000FA02F24033B5
:1046B40041F8232000BF02B0704700BF00E100E0D2
:1046C40082B003468DF8073008499DF907305B092D
:1046D4009DF8072002F01F02012000FA02F2603365
:1046E40041F8232000BF02B0704700BF00E100E0A2
:1046F40084B00190244B0393019B002B40D0234BA7
:104704001A680399019B00BF00BF00BF00BF00BF30
:1047140000BF00BF00BF8A422FD000BF00BF00BF50
:1047240000BF00BF00BF00BF00BF00BF00BF00BF8D
:1047340000BF00BF00BF00BF00BF00BF00BF00BF7D
:1047440000BF00BF00BF00BF00BF00BF00BF00BF6D
:1047540000BF00BF00BF00BF00BF00BF00BF00BF5D
:1047640000BF00BF00BF00BF00BF00BF00BF00BF4D
:1047740000BF00BF00BF00BF00BF013BC3D1019316
:1047840000BF04B0704700BF0024F400EC17002001
:1047940008B50D4B4FF48032C3F844230A4B4FF451
:1047A4008032C3F804231120FFF78AFF1120FFF79A
:1047B40041FF054B01221A602F20FFF799FF034B9D
:1047C40001221A7000BF08BD00100140761E0020AF
:1047D40008B51120FFF744FF0E4B4FF48032C3F8A5
:1047E40048230C4B4FF48032C3F80823094B0122B1
:1047F4005A602F20FFF77CFF064B01229A60064B7C
:1048040000221A602F20FFF773FF044B00221A7056
:1048140000BF08BD00100140681E0020761E002065
:10482400024BD3F804351846704700BF001001400E
:1048340082B001900091019A009BD31A23F07F4328
:10484400184602B07047000082B00190034A019BF1
:10485400C2F8403500BF02B0704700BF00100140ED
:1048640086B00190284B1B68002B03D1264A019B7C
:10487400136045E0019B1A68234B1B681B689A422E
:1048840010D8214B1B68204A12681168019A1268DB
:104894008A1A1A601C4B1A68019BDA611A4A019B36
:1048A40013602DE0019B1B680393174B1B68059352
:1048B400154B1B68049309E0049B1B68039AD31AE5
:1048C4000393049B0593049BDB690493049B002BD3
:1048D40004D0049B1A68039B9A42EDD3049B002BDB
:1048E40005D0049B1A68039BD21A049B1A60019B8F
:1048F400039A1A60019B049ADA61059B019ADA61B2
:1049040000BF06B0704700BF641E002000B587B02A
:1049140001902A4B1B680393284B1B680593059B46
:10492400049308E0049A019B9A4208D0049B0593DF
:10493400049BDB690493049B002BF3D100E000BFCC
:10494400049B002B01D1002333E0059A049B9A4277
:1049540014D11A4B1B68DB69184A1360174B1B6888
:10496400002B0BD1164B01229A60164B00221A60C1
:10497400154B01221A702F20FFF7BAFE049B1B6807
:104984000293049BDA69059BDA61059BDB69049356
:10499400049B002B05D0049B1A68029B1A44049BB9
:1049A4001A60064B1B68039A9A4214BF0123002322
:1049B400DBB2184607B05DF804FB00BF641E00209C
:1049C40000100140681E0020771E002008B5112049
:1049D400FFF75EFE00BF08BD08B51420FFF758FEC0
:1049E40000BF08BD00B583B00190019B5B69019ACB
:1049F40092691046984700BF03B05DF804FB0000BD
:104A040000B585B02B4B1B68002B4ED000230193BF
:104A1400FFF706FF0246284B1B6819461046FFF7AE
:104A240007FF0290234B1B6803931DE0039B1A6846
:104A3400029B9A421CD8039B1B68029AD31A0293C6
:104A4400039B1B68019A13440193039B0093039BEC
:104A5400DB690393009B1B7C002B05D0009B002289
:104A64001A740098FFF7BEFF039B002BDED100E011
:104A740000BF124B1A78124B1B789A420CD1104B80
:104A84001B780133DAB20E4B1A700D4B1B78022BD4
:104A940002D10B4B00221A70094B1B781946094AA4
:104AA400019B42F82130FFF797FF00BF05B05DF886
:104AB40004FB00BF641E0020681E0020741E00203A
:104AC400751E00206C1E002082B00190184B1A78CD
:104AD400184B1B789A4223D0154B1B780133DAB25A
:104AE400134B1A70124B1B78022B02D1104B00226D
:104AF4001A700F4B1B781A460F4B53F82220019B58
:104B04001A60019B1A680D4B1B6813440B4A13600F
:104B14000A4B1B6823F07F43084A1360012303E018
:104B2400019B00221A600023184602B0704700BFA0
:104B3400741E0020751E00206C1E0020681E0020BC
:104B440088B00390029101920023079338E0204B30
:104B54001B680693069B1A68039B9A4206D9069B18
:104B64001A68039BD21A069B1A602DE0069B1B68E9
:104B7400039AD31A0393069B1B68079A134407935B
:104B8400069B00221A60124B1B680593069BDB6987
:104B94000F4A1360069BDB68002B11D0029A079B17
:104BA400134423F07F42069B5A60069BDA68069BF7
:104BB4009A60019B1A68069BDA61019B059A1A6048
:104BC400034B1B68002BC2D100BF08B0704700BF65
:104BD400641E002000B589B0019000238DF81F30B9
:104BE400664B1B680593AAE0019B002B05D0019B33
:104BF4000693069BDB69019361E0614B1B781A46BF
:104C040013465B001344DB005D4A134404330493EE
:104C14005B4B1B780133DAB2594B1A70584B1A7834
:104C2400574B9B789A4202D1554B00221A70049B31
:104C34005B680693049B1B78022B04D0032B1BD0C8
:104C4400012B1FD01DE0049B5B681846FFF75EFE36
:104C54000346002B02D001238DF81F30069B00224F
:104C64001A746CE0454B1B680393039B00221A746F
:104C7400039BDB69414A1360404B1B68002BF1D155
:104C84005DE05CE000BF069B1B7C002B00D056E07F
:104C9400049B9A68069B5A60049BDA68069B9A6098
:104CA400049B1A69069BDA60049B5A69069B9A6105
:104CB400344B1B78002B02D0069B00225A60069BC3
:104CC4005A68314B1B68D31A23F07F432F4A93420F
:104CD4000ED8069B5A682C4B1B6819461046FFF7E2
:104CE400A7FD0246069B9B681A44069B1A6017E0C0
:104CF400254B1A68069B5B6819461046FFF798FD1A
:104D04000290069B9A68029B9A4206D9069B9A686F
:104D1400029BD21A069B1A6002E0069B00221A60CC
:104D2400069B00225A60069B00229A60069B012281
:104D34001A74069B0022DA610698FFF791FD019B25
:104D4400002B7FF451AF0E4B1A780D4B5B789A42CF
:104D54007FF44AAF9DF81F30002B04D1074B1A682B
:104D6400059B9A4201D0012300E0002303F00103D4
:104D7400DBB2184609B05DF804FB00BF641E0020D6
:104D8400581D0020771E0020681E0020FEFF7F00B3
:104D940010B588B00190274B1B68002B44D0254BDD
:104DA4001B681B680793FFF73BFD0690224B1B68AB
:104DB400059305990698FFF73BFD034603330493D7
:104DC4001E4B1B7883F00103DBB2002B01D0FFF7ED
:104DD400DFFC049A079B934238BF1346059A134499
:104DE4000593059B23F07F4305930598FFF72CFD5E
:104DF400FFF716FD039006990398FFF719FD034684
:104E0400DC1C06990598FFF713FD03469C420DD957
:104E1400FFF706FD03461846FFF716FD2F20FFF7A0
:104E240067FCFFF7D3FD01E0FFF7D2FC00BF08B039
:104E340010BD00BF641E0020681E0020761E0020E6
:104E440000B587B00023019300238DF81730194B68
:104E54001B680493184B1B6803936B461846FFF7B3
:104E640033FE03468DF80B309DF80B30002B08D031
:104E7400009B01AA04991846FFF762FE01238DF8EE
:104E84001730019B1846FFF7A5FE0346002B02D0FE
:104E940001238DF817309DF81730002B02D00398AA
:104EA400FFF776FF054B00221A7000BF07B05DF8CC
:104EB40004FB00BF681E0020641E0020771E002033
:104EC40008B50E4B0022C3F840210C4B0022C3F856
:104ED40044210A4B0022C3F84821084B0022C3F89E
:104EE4004C21064B0022C3F80021044B0022C3F8D6
:104EF4000421FFF785FD00BF08BD00BF001001407D
:104F040008B5FFF79DFF00BF08BD82B0EFF3108323
:104F14000093009B019372B6019B184602B0704740
:104F240062B600BF7047000000B585B00190FFF77E
:104F3400ECFF0390164B9B68002B1BD1144B0122F2
:104F44009A60144BD3F88020134B1340104A13601B
:104F5400104B114AC3F880200E4BD3F884300C4A0E
:104F640053600C4B4FF0FF32C3F88420019B0022A6
:104F74001A7002E0019B01221A70039B002B01D1DD
:104F8400FFF7CEFF0023184605B05DF804FB00BF11
:104F9400781E002000E100E0FC06FFBD00B585B0EE
:104FA40003468DF80730104B9B68002B16D09DF8F4
:104FB4000730002B12D1FFF7A8FF03900B4A0A4BCE
:104FC4001B681360094A084B5B685360064B002258
:104FD4009A60039B002B01D1FFF7A2FF0023184620
:104FE40005B05DF804FB00BF781E002000E100E07E
:104FF40000B583B0019000F02BF80346012B03D0D9
:105004000549432000F041F80198FFF78DFF00BFE8
:1050140003B05DF804FB00BFA09C020000B583B0A0
:1050240003468DF8073000F013F80346012B03D034
:105034000649512000F029F89DF807301846FFF77B
:10504400ADFF00BF03B05DF804FB00BFA09C0200ED
:1050540084B0EFF305830193019BC3F30803039327
:10506400039B002B0DD1EFF314830093009B029359
:10507400029B03F00103002B0CBF01230023DBB2CE
:1050840000E00123184604B0704700B585B003461C
:105094000091ADF80630BDF80630ADF80830009B3D
:1050A400039302AB1A46002144F20200FFF736FADA
:1050B40000BF05B05DF804FB00B583B001900B465A
:1050C4008DF80330019B002B03D10849AF20FFF773
:1050D400DCFF019BDA689DF803300199098A01FB22
:1050E40003F31344184603B05DF804FB089D020063
:1050F40000B583B001900091019B002B03D10849B6
:10510400BC20FFF7C2FF009B019AD2689B1A019A48
:10511400128AB3FBF2F3DBB2184603B05DF804FB6A
:10512400089D020000B585B00190019B002B01D1C0
:105134000E2349E0019B1B68002B03D12449C620A0
:10514400FFF7A3FF019B5B68002B03D12049C72015
:10515400FFF79BFF019B9B68002B03D11C49C820D0
:10516400FFF793FF019BDB68002B03D11849C9208B
:10517400FFF78BFF019B1B8A002B03D11449CA2024
:10518400FFF783FF019B9B681A46019B5B68D31A58
:105194008DF80F30019B1B68019A52681A6007E072
:1051A400019B1A681368591C11609DF80F201A702E
:1051B4009DF80F305A1E8DF80F20002BF0D1019B63
:1051C4001B6800221A710023184605B05DF804FB21
:1051D400089D020000B585B00190019B002B03D10E
:1051E4001F49EC20FFF751FF0023039300238DF8A0
:1051F4000A300DF10A031846FFF7FAFE019B1B68FB
:105204001A68019B5B689A4220D9019B1B681A6843
:10521400013A1A601B681B7819460198FFF74CFF86
:105224000390019B9B681A46019B1B681B68D31A59
:105234008DF80B30019B1B681B799DF80B209A425B
:1052440004D9019B1B689DF80B201A719DF80A3044
:105254001846FFF7E3FE039B184605B05DF804FB10
:10526400089D020010B584B001900091019B002BB1
:1052740004D115494FF48870FFF707FF009B002BFA
:1052840004D1114940F21110FFF7FFFE009B039374
:1052940000238DF80B300DF10B031846FFF7A8FE21
:1052A400019B1B681C68621C1A6003990198FFF734
:1052B4001FFF034623709DF80B301846FFF7AEFE20
:1052C40000BF04B010BD00BF089D020000B583B04C
:1052D4000190019B002B03D10C493120FFF7D5FE2F
:1052E400019B9B68002B0CD0019B5B69019A1069A0
:1052F400019A1168019A92689847019B00229A606A
:1053040000E000BF03B05DF804FB00BF609D020035
:105314000EB400B584B00190019B002B03D1184951
:105324004220FFF7B2FE019B5B69002B03D11449B5
:105334004320FFF7AAFE019B1B68002B03D11049F1
:105344004420FFF7A2FE019B5B68002B03D10C49AC
:105354004520FFF79AFE059B002B0AD000230393F8
:1053640006AB039303AB1A460599019800F0B0F914
:1053740000E000BF04B05DF804EB03B0704700BF69
:10538400609D020000B583B001900B468DF8033098
:10539400019B1A68019B9B68581C019988601344FF
:1053A4009DF803201A70019B9A68019B5B689A42DE
:1053B40002D30198FFF78AFF00BF03B05DF804FB36
:1053C40000B587B0039002910192009300230593E6
:1053D400009B03F00103002B24D00BE0029B01335C
:1053E4000293059B013305939DF8133019460398E6
:1053F400FFF7C8FF029B1B788DF813309DF813301C
:10540400002BEBD106E0019B013B01932021039883
:10541400FFF7B8FF019A059B9A422ED9019B002BF6
:10542400F1D12AE0029B002B0BD0029804F03AFA47
:10543400059006E0019B013B019320210398FFF7AF
:10544400A1FF019A059B9A420FD9019B002BF1D130
:105454000BE0029B01330293059B013305939DF8F6
:10546400133019460398FFF78DFF029B1B788DF8C4
:1054740013309DF81330002BEBD100BF07B05DF85B
:1054840004FB000000B589B00390029101920093DF
:10549400029B07930123069307E0079A019BB2FB43
:1054A400F3F30793069B01330693079A019B9A42F1
:1054B400F3D2009A069B9A4201D9009B06930B9B58
:1054C40003F00103002B22D10A9B002B1FD00B9B5E
:1054D40003F00203002B06D0009B002B03D13023E2
:1054E4008DF8173002E020238DF8173008E00A9B6E
:1054F400013B0A939DF8173019460398FFF742FFC2
:105504000A9B002B03D0069A0A9B9A42EFD30123ED
:105514000793009B012B03D9009B013B009309E0F7
:10552400029A079BB2FBF3F30493049A019B9A42F9
:1055340000D205E0079B019A02FB03F30793E8E717
:10554400029A079BB2FBF3F30493049B079A02FBB2
:1055540003F3029AD31A0293154A049B13441B784B
:1055640019460398FFF70EFF079A019BB2FBF3F36A
:105574000793079B002BE3D10B9B03F00103002B44
:1055840011D00A9B002B0ED006E00A9B013B0A9324
:1055940020210398FFF7F6FE0A9B002B03D0069AFE
:1055A4000A9B9A42F1D300BF09B05DF804FB00BF27
:1055B400089E020000B589B00590049103920293FD
:1055C400049B002BB8BF5B4206930123079307E0BB
:1055D400039B069A92FBF3F30693079B013307930D
:1055E400039B069A9A42F3DA029A079B9A4201D9DC
:1055F400029B07930A9B002B0AD0049B002B04DB1D
:105604000B9B03F00403002B02D00A9B013B0A937B
:105614000B9B03F00203002B02D0029B002B16D03D
:105624000B9B03F00103002B11D10A9B002B0ED01E
:1056340006E00A9B013B0A9320210598FFF7A2FE8E
:105644000A9B002B03D0079A0A9B9A42F1D3049B2E
:10565400002B07DA049B5B4204932D210598FFF786
:1056640091FE08E00B9B03F00403002B03D02B21D5
:105674000598FFF787FE0B9B03F00203002B19D05C
:105684000B9B03F00103002B14D1029B002B11D1BF
:105694000A9B002B0ED006E00A9B013B0A933021A3
:1056A4000598FFF76FFE0A9B002B03D0079A0A9B0D
:1056B4009A42F1D304990B9B01930A9B0093029B9A
:1056C400039A0598FFF7DEFE00BF09B05DF804FBFE
:1056D40000B58FB0059004910392059B002B04D173
:1056E400C8494FF49F70FFF7D0FC059B5B69002B02
:1056F40004D1C4494FF4A070FFF7C7FC059B1B6895
:10570400002B04D1BF4940F24110FFF7BEFC059BBA
:105714005B68002B04D1BB494FF4A170FFF7B5FCC3
:10572400049B002B00F0ED81049B1B788DF837302F
:10573400049B013304939DF83730002B00F0D8818B
:105744009DF83730252B40F0C78100230A930123AD
:105754000C93049B1B788DF837309DF837302D2B34
:1057640004D0302B0AD02B2B10D017E00A9B43F027
:1057740001030A93049B0133049312E00A9B43F050
:1057840002030A93049B013304930AE00A9B43F047
:1057940004030A93049B0133049302E000230C9353
:1057A40000BF0C9B002BD4D1002309939DF8373004
:1057B4002A2B0CD1039B1B68191D039A11601B68CB
:1057C400099A13440993049B013304931AE0049B3C
:1057D4001B788DF837309DF837302F2B12D99DF870
:1057E4003730392B0ED8049B01330493099A13469E
:1057F4009B0013445B001A469DF837301344303B3A
:105804000993D3E700230B93049B1B788DF837305F
:105814009DF837302E2B1DD1049B01330493049B38
:105824001B788DF837309DF837302F2B12D99DF81F
:105834003730392B0ED8049B013304930B9A13464B
:105844009B0013445B001A469DF837301344303BE9
:105854000B93E4E7049B1B788DF837309DF83730C1
:105864006C2B03D09DF83730682B07D1049B013390
:105874000493049B1B788DF83730EFE79DF837309D
:10588400253B532B00F2238101A252F823F000BFE1
:10589400C95A0200D35A0200D35A0200D35A020052
:1058A400D35A0200D35A0200D35A0200D35A020038
:1058B400D35A0200D35A0200D35A0200D35A020028
:1058C400D35A0200D35A0200D35A0200D35A020018
:1058D400D35A0200D35A0200D35A0200D35A020008
:1058E400D35A0200D35A0200D35A0200D35A0200F8
:1058F400D35A0200D35A0200D35A0200D35A0200E8
:10590400D35A0200D35A0200D35A0200D35A0200D7
:10591400D35A0200D35A0200D35A0200D35A0200C7
:10592400D35A0200D35A0200D35A0200D35A0200B7
:10593400D35A0200D35A0200D35A0200D35A0200A7
:10594400D35A0200D35A0200D35A0200D35A020097
:10595400D35A0200D35A0200D35A0200555A020005
:10596400D35A0200D35A0200D35A0200D35A020077
:10597400D35A0200D35A0200D35A0200D35A020067
:10598400D35A0200D35A0200E55902000D5A02000C
:10599400D35A0200D35A0200D35A0200D35A020047
:1059A4000D5A0200D35A0200D35A0200D35A0200FD
:1059B400D35A0200D35A0200D35A0200955A020065
:1059C400D35A0200D35A0200795A0200D35A020071
:1059D400315A0200D35A0200D35A0200555A020027
:1059E400039B1B68191D039A11601B680C930C9B85
:1059F4008DF823309DF8233019460598FFF7C2FC33
:105A040066E000BFB09D0200039B1B68191D039A4A
:105A140011601B680C930A9B0193099B00930B9BD9
:105A24000A220C990598FFF7C5FD51E0039B1B68FA
:105A3400191D039A11601B680C930C990A9B01931E
:105A4400099B00930B9B0A220598FFF71BFD3FE07F
:105A5400039B1B68191D039A11601B680C930C9916
:105A64000A9B0193099B00930B9B10220598FFF757
:105A740009FD2DE0039B1B68191D039A11601B6827
:105A840007930A9B099A07990598FFF799FC1FE069
:105A9400039B1B68191D039A11601B680C9330212A
:105AA4000598FFF76FFC78210598FFF76BFC0C99BC
:105AB4000023019308230093082310220598FFF77D
:105AC400E1FC05E025210598FFF75CFC00E000BF40
:105AD400049B0133049305E09DF83730194605987B
:105AE400FFF750FC049B1B78002B7FF41DAE00E0F5
:105AF40000BF059B1B7B002B04D00598FFF7E6FB3A
:105B040000E000BF0FB05DF804FB00BF10B487B025
:105B140001900091019B009A53E8004F04EB0200AE
:105B240043E8000191F0000FF6D10594049003912D
:105B3400049B184607B05DF8044B704710B487B057
:105B440001900091019B009A53E8004FA4EB0200DE
:105B540043E8000191F0000FF6D1059404900391FD
:105B6400049B184607B05DF8044B704700B583B03A
:105B740001900198FFF7D6FA0346184603B05DF882
:105B840004FB00B58BB001900091019B1B8A043B80
:105B94000793009A079B1344DA1C079BB2FBF3F3A9
:105BA4008DF81B300198FFF715FB0590059B002B22
:105BB40001D1002338E0059B00221A71059B0122C4
:105BC4005A71079B9AB2059BDA80059B09939DF84D
:105BD4001B30013B0493099B019A1A60002308932C
:105BE4001DE00198FFF7F6FA0390039B002B0ED0FB
:105BF400059B5B790133DAB2059B5A71099B039AC1
:105C04001A60039B019A1A60039B099304E00598A8
:105C140000F00EF8002307E0089B01330893089A6C
:105C2400049B9A42DDD3059B18460BB05DF804FB38
:105C340000B58BB00190019B0793079B5B798DF8AE
:105C44001B30019B08939DF81B30013B05930023F7
:105C5400099305E0089B1B680893099B013309938A
:105C6400099A059B9A42F5D3089B1B680493019BF0
:105C74000893002309930BE0089B1B68039308997E
:105C84000498FFF7EFFA039B0893099B01330993E8
:105C94009DF81B20099B9A42EED800BF0BB05DF81B
:105CA40004FB00B585B00190019B0393039B04336F
:105CB40001211846FFF72AFF00BF05B05DF804FB79
:105CC40000B587B00190019B0593059B0433012126
:105CD4001846FFF733FF0346039303AB0493049B77
:105CE4001B78002B02D10198FFF7A2FF00BF07B079
:105CF4005DF804FB00B58DB003900291019200930E
:105D0400039B0693069BDB880593039B0B93009BE5
:105D14001A1D059BB2FBF3F30A93009B0433059A07
:105D2400B3FBF2F2059901FB02F29B1A0993009A64
:105D3400019B1A44059B1344DA1C059BB2FBF3F345
:105D44008DF81330069B5B799DF813209A420AD98B
:105D54002749BA20FFF799F905E00B9B1B680B93C1
:105D64000A9B013B0A930A9B002BF6D1002308935C
:105D7400059A099BD31A0793079A019B934228BF5C
:105D8400134607932DE09DF83830002B0BD0029A70
:105D9400089BD0180B9A099B13440433079A19469D
:105DA40003F022FD0AE00B9A099B1344181D029A82
:105DB400089B1344079A194603F016FD0023099320
:105DC4000B9B1B680B93019A079BD31A0193089AA8
:105DD400079B13440893059A019B934228BF1346DB
:105DE4000793019B002BCED100BF0DB05DF804FBDF
:105DF400189E020000B587B00590049103920293A7
:105E040000230093029B039A04990598FFF772FFFD
:105E140000BF07B05DF804FB00B587B0059004919E
:105E24000392029301230093029B039A0499059819
:105E3400FFF760FF00BF07B05DF804FB00B583B057
:105E440001900091019B002B03D110495020FFF7D2
:105E54001CF9009B002B03D10C495120FFF715F9C5
:105E6400019B009A1A60019B1B681A68019B5A6087
:105E7400019B5A68019B1B685B689A4202D1019B93
:105E840000225A6000BF03B05DF804FB749F020057
:105E940000B583B00190019B002B03D1144963200A
:105EA400FFF7F3F8019B1B68002B03D11049642012
:105EB400FFF7EBF8019B5B68002B14D0019B5B6838
:105EC4001A46019B1B689B6813441A46019B5A603F
:105ED400019B5A68019B1B685B689A4204D1019B31
:105EE40000225A6000E000BF03B05DF804FB00BF6D
:105EF400749F020000B585B00190019800F00EF87F
:105F04000390039B002B01D0039B00E0024B184637
:105F140005B05DF804FB00BFE89F020086B0019065
:105F2400164B0593164B04931FE0049A059BD31A52
:105F3400DB10DA0F13445B10DB00059A1344039360
:105F4400039B1B680293029A019B9A4202D9039B0A
:105F540004930AE0029A019B9A4203D2039B0833FA
:105F6400059302E0039B5B6804E0059A049B9A4254
:105F7400DBD30023184606B0704700BF04A3020019
:105F8400F4A3020082B003468DF8073008499DF956
:105F940007305B099DF8072002F01F02012000FA78
:105FA40002F2203341F8232000BF02B0704700BF43
:105FB40000E100E082B001904FF08042019BC2F802
:105FC400083300BF02B0704782B003468DF8073033
:105FD4009DF8073003F1804301221A6000BF02B02C
:105FE400704784B00346ADF80630BDF8063003F1BF
:105FF400804300221A60BDF8063003F180431B6819
:106004000393039B00BF04B0704782B00346ADF80E
:106014000630BDF8063003F180431B68002B14BF23
:1060240001230023DBB2184602B0704782B0034656
:106034008DF807304FF080429DF8073003F00303DA
:10604400C2F8183500BF02B070474FF08043D3F850
:1060540018341B0C03F00103002B14BF012300238D
:10606400DBB218467047000082B003468DF8073053
:106074000A4A9DF907305B0952F823209DF807303E
:1060840003F01F03012101FA03F31340002B14BF93
:1060940001230023DBB2184602B0704700E100E0A0
:1060A40008B50020FFF7E0FF034683F00103DBB2ED
:1060B400002B03D00721002000F096F900BF08BD93
:1060C40008B503F00BF9034683F00103DBB2002BA0
:1060D40003D109498420FEF7D8FF0C20FFF774FF91
:1060E40000BFFFF7B2FF0346002BFAD1034B002297
:1060F4009A7000BF08BD00BFFCA30200841E0020EC
:1061040000B583B000230193134B1B78002B02D0FE
:10611400852301931BE0104B00229A600E4B002252
:106124005A600D4B00221A610B4B0022DA60FFF714
:10613400B7FF03F0D3F8034683F00103DBB2002B6F
:1061440002D00120FFF772FF034B01221A70019B5A
:10615400184603B05DF804FB841E002084B001904F
:10616400019B1B680393039B002B03D0039B1A68BA
:10617400019B1A60039B184604B0704700B583B0B6
:10618400164B1B78002B04D115494FF48E70FEF783
:106194007CFF124BDB68002B04D1114940F21D1027
:1061A400FEF773FF00238DF807300DF1070318463F
:1061B400FEF71EFF094BDB68013B084AD360074B1F
:1061C400DB68002B01D1FFF77BFF9DF807301846F1
:1061D400FEF724FF00BF03B05DF804FB841E00201B
:1061E400FCA3020000B585B003468DF807309DF886
:1061F4000730002B02D10C4B039301E00B4B0393AC
:106204000398FFF7ABFF0290029B002B06D0029B82
:106214005B689DF8072010469847F1E700BF00BF70
:1062240005B05DF804FB00BF8C1E0020941E002006
:1062340008B54FF48070FFF7E8FE0346002B0CD03E
:106244004FF48070FFF7CDFE0120FFF7B3FE0E4B35
:1062540001225A700020FFF7C5FF4FF48270FFF748
:10626400D4FE0346002B0CD04FF48270FFF7B9FE26
:106274000220FFF79FFE044B01229A700120FFF7D2
:10628400B1FF00BF08BD00BF841E002000B583B06D
:1062940001900091019B002B02D10020FFF7A2FF87
:1062A40000BF03B05DF804FB00B585B00346009160
:1062B4008DF807309DF80730012B08D0032B25D02B
:1062C400002B00D032E00020FFF75CFE2EE000231C
:1062D4008DF80F300DF10F031846FEF789FE154BAC
:1062E4001B7883F00103DBB2002B01D0FFF708FF1A
:1062F400104BDB6801330F4AD3600E4B01229A70B6
:106304009DF80F301846FEF789FE0FE0094B1B7805
:10631400002B04D1084940F25B20FEF7B6FE0721AA
:10632400002000F061F8FFF729FF00BF00BF05B0AF
:106334005DF804FB841E0020FCA3020082B0034627
:106344008DF8073007499DF907305B099DF8072050
:1063540002F01F02012000FA02F241F8232000BFDC
:1063640002B0704700E100E082B003468DF80730C8
:1063740008499DF907305B099DF8072002F01F02C8
:10638400012000FA02F2603341F8232000BF02B07A
:10639400704700BF00E100E082B0034600918DF831
:1063A40007309DF90730002B0CDA0D499DF80730B2
:1063B40003F00F03043B009AD2B25201D2B20B4451
:1063C4001A7609E007499DF90730009AD2B25201C2
:1063D400D2B20B4483F8002300BF02B0704700BF61
:1063E40000ED00E000E100E000B583B003460A469A
:1063F4008DF8073013468DF806309DF80630012BD2
:1064040003D99DF80630032B0CD99DF80630042BD4
:1064140003D99DF80630072B04D90D494FF4927027
:10642400FEF733FE9DF806209DF907301146184605
:10643400FFF7B2FF9DF907301846FFF795FF9DF966
:1064440007301846FFF77AFF00BF03B05DF804FB7E
:1064540058A4020000B583B00346ADF80630BDF879
:106464000630184600F026F803461B68012B0CBFC3
:1064740001230023DBB2184603B05DF804FB00B52A
:1064840085B00346ADF80630BDF80630184600F076
:1064940011F803461A4600231360BDF80630184667
:1064A40000F008F803461B680393039B00BF05B084
:1064B4005DF804FB82B00346ADF80630BDF8063043
:1064C40003F1804303F5C043184602B0704700004F
:1064D40082B00190034BD3F80423019B1340184668
:1064E40002B070470060004082B00190054A019BF1
:1064F40003F5A27352F823301B0A03F01F03184656
:1065040002B070470060004082B00190064A019BCF
:1065140003F5A27352F823301B0C03F00303DBB220
:10652400184602B0704700BF0060004000B583B059
:106534000190019B1B681F2B04D905494FF4E87097
:10654400FEF7A3FD4FF0A043184603B05DF804FB2B
:10655400B8A4020000B585B001900B468DF8033055
:1065640001AB1846FFF7E2FF0390019A0199039BE0
:1065740001F5E07153F8213023F44031039B02F517
:10658400E07243F82210019A0199039B01F5E0712E
:1065940053F821309DF8031009041943039B02F5B5
:1065A400E07243F8221000BF05B05DF804FB00B5AB
:1065B40085B0019001AB1846FFF7B8FF0390019A2C
:1065C400039B02F5E07253F822301B0C03F0030323
:1065D400DBB2184605B05DF804FB82B00190019B64
:1065E400D3F81035184602B07047000000B587B0E4
:1065F4000390029101924FF0A0430493039A029BEB
:106604001344012B04D912494FF43A70FEF73DFDAF
:10661400039B059311E0059B9B0006AA134453F8C2
:10662400083C1846FFF7D9FF0246019B1A60019BFC
:1066340004330193059B01330593039A029B1A4487
:10664400059B9A42E7D800BF07B05DF804FB00BF82
:10665400B8A4020084B001900091009B0393019BB5
:10666400DB080293019B03F0070301930122019BC2
:1066740002FA03F30399029A0A4412781340184663
:1066840004B0704784B001900091009B0393019B78
:10669400DB080293019B03F007030193039A029B17
:1066A40013440399029A0A44127851B20120019AC0
:1066B40000FA02F252B20A4352B2D2B21A7000BFC6
:1066C40004B0704782B00190044A019B13443033F4
:1066D40093F90030184602B0704700BF981E00209E
:1066E40082B00190034A019B52F82330184602B04D
:1066F400704700BF981E002000B595B00023139387
:10670400002303934FF48073ADF8463001231093B4
:106714000023129321E0BDF846301846FFF79AFE95
:106724000346002B0ED01098FFF7D2FE0346002B31
:1067340008D0BDF846301846FFF7A1FE139A109B07
:1067440013431393109B5B001093BDF8463004333E
:10675400ADF84630129B01331293129B072BDAD902
:106764004FF4BE70FFF776FE0346002B0DD04FF4B6
:10677400BE70FFF784FE139B43F00043139303ABF7
:106784001A4601210020FFF731FF139BDBB2002BD7
:1067940029D0012310930023129321E0109A139B14
:1067A4001340002B16D01298FFF79EFE0D901298FE
:1067B400FFF7AAFE03468DF833301298FFF790FFD7
:1067C4000B900B9B002B05D09DF833200B9B11469F
:1067D4000D989847109B5B001093129B0133129302
:1067E400129B072BDAD9139B002B80F2EE80002337
:1067F4008DF83B300023029300230F930AE00F9B94
:106804009B0014AA13444FF0FF3243F84C2C0F9B07
:1068140001330F930F9B002BF1D000238DF83B30F5
:106824000023129378E06B4A129B1344503393F97C
:1068340000308DF82B309DF82B3023F0C0030993E2
:10684400644A129B1344503393F90030B3F1FF3F71
:106854005FD001AB19460998FFF7FCFE0346002BF5
:1068640057D09DF82B309B098DF823300998FFF7FA
:1068740029FF03461846FFF733FF0790079B002BB9
:1068840003D19DF82330032B43D19DF82330032BF0
:1068940004D102AB19460998FFF7F4FE0998FFF7F3
:1068A40086FE03468DF81B3003AB19460998FFF7A3
:1068B400D1FE0590059B002B03D09DF81B30022BC5
:1068C40006D0059B002B24D19DF81B30032B20D12F
:1068D4009DF82330032B13D19DF81B30022B01D1DB
:1068E400032300E002238DF813309DF8133019467A
:1068F4000998FFF72FFE9DF83B3001338DF83B30AC
:10690400079B002B05D09DF82320079B114609986F
:106914009847129B01331293129B032B83D99DF842
:106924003B30002B4CD001238DF83A306B461A468D
:1069340001210020FFF75AFE00230F9314E00F9B60
:106944009B0014AA134453F8502C0F9B9B0014A9CA
:106954000B4453F8443C9A4203D000238DF83A3058
:1069640005E00F9B01330F930F9B002BE7D09DF89D
:106974003A30002B03D000238DF83B3020E0002375
:106984000F931AE00F9B9B0014AA134453F8502C46
:106994000F9B9B0014A90B4443F8442C0F9B9B00B2
:1069A40014AA134453F8482C0F9B9B0014A90B44BE
:1069B40043F84C2C0F9B01330F930F9B002BE1D01A
:1069C4009DF83B30002B7FF428AF00BF15B05DF875
:1069D40004FB00BF981E002082B003468DF80730E8
:1069E40008499DF907305B099DF8072002F01F0252
:1069F400012000FA02F2203341F8232000BF02B044
:106A0400704700BF00E100E084B001900B46ADF890
:106A14000230BDF80230019A134400221A60BDF816
:106A24000230019A13441B680393039B00BF04B014
:106A3400704782B001900B46ADF80230BDF80230C9
:106A4400019A13441B68002B14BF01230023DBB2FB
:106A5400184602B0704782B001900091019B009AE1
:106A6400C3F8042300BF02B0704782B001900091C4
:106A7400019BD3F80423009B1340002B14BF012374
:106A84000023DBB2184602B0704782B00190009137
:106A9400019B009AC3F8082300BF02B0704784B07A
:106AA4000190019BD3F880340393019B039AC3F8AC
:106AB4008024039B184604B0704782B00190019B68
:106AC4000422C3F8002500BF02B0704782B00190D1
:106AD400019B0022C3F8002500BF02B0704784B0B8
:106AE400039002910192039B019AC3F81425039B1E
:106AF400029AC3F80C2500BF04B0704700B583B0F8
:106B040001904FF0FF324FF0FF310198FFF7E7FF9C
:106B140000BF03B05DF804FB82B00190019BD3F881
:106B24000C35184602B0704782B00190019BD3F82F
:106B34001435184602B0704782B00190019BD3F817
:106B44000835184602B0704782B00190019BD3F813
:106B54001035184602B0704784B003900291019238
:106B6400039B029AC3F80825039B019AC3F81025D6
:106B740000BF04B0704700B583B001904FF0FF32FE
:106B84004FF0FF310198FFF7E7FF00BF03B05DF856
:106B940004FB82B00190019BD3F81835DBB2184690
:106BA40002B0704782B001900B468DF803309DF817
:106BB4000320019BC3F81C2500BF02B0704782B0BC
:106BC40001900B468DF803309DF80330019A13446D
:106BD40001221A6000BF02B0704782B001900B46D8
:106BE4008DF8033013468DF802309DF803209DF88C
:106BF40002301343DBB21A46019BC3F86C2500BF75
:106C040002B0704782B001900091019B009AC3F8D2
:106C1400242500BF02B0704784B001900B46ADF844
:106C24000230BDF80230019A134400221A60BDF804
:106C34000230019A13441B680393039B00BF04B002
:106C4400704782B001900B46ADF80230BDF80230B7
:106C5400019A13441B68002B14BF01230023DBB2E9
:106C6400184602B0704782B001900091019BD3F89E
:106C74000022009BDB431A40019BC3F8002200BFA3
:106C840002B0704782B001900091019B009AC3F852
:106C9400042300BF02B0704782B001900091019BB1
:106CA400009AC3F8082300BF02B0704784B0019073
:106CB400019BD3F880340393019B039AC3F8802487
:106CC400039B184604B0704782B00190019B0822D0
:106CD400C3F8002500BF02B0704782B00190019B49
:106CE4000022C3F8002500BF02B0704784B00390AF
:106CF40002910192039B029AC3F80C25039B019A0B
:106D0400C3F8142500BF04B0704700B583B00190E8
:106D14004FF0FF324FF0FF310198FFF7E7FF00BF5C
:106D240003B05DF804FB82B00190019BD3F80C35ED
:106D3400184602B0704782B00190019BD3F8143515
:106D4400184602B0704782B00190019BD3F8083511
:106D5400184602B0704782B00190019BD3F81035F9
:106D6400184602B0704784B0039002910192039BCD
:106D7400029AC3F80825039B019AC3F8102500BFA3
:106D840004B0704700B583B001904FF0FF324FF06C
:106D9400FF310198FFF7E7FF00BF03B05DF804FB84
:106DA40082B001900B468DF803309DF80330019AB0
:106DB400134401221A6000BF02B0704782B00190F0
:106DC4000B468DF8033013468DF802309DF80320EE
:106DD4009DF802301343DBB21A46019BC3F86C25BD
:106DE40000BF02B0704782B001900091019B009AED
:106DF400C3F8242500BF02B0704784B00390029109
:106E040013468DF80730029A039BC3F844259DF876
:106E14000720039BC3F8482500BF04B0704782B025
:106E24000190019BD3F84C35184602B0704782B0EC
:106E34000190019BD3F83C35184602B0704700B569
:106E440083B003468DF807309DF907301846FFF7E5
:106E5400C3FD00BF03B05DF804FB84B00190019B47
:106E64001B0B8DF80F309DF90F30184604B0704796
:106E740082B00190019B03F06043B3F1005F0CBF4B
:106E840001230023DBB2184602B0704700B583B07B
:106E94000190019B1B681F2B04D905494FF4E8702E
:106EA400FEF7F3F84FF0A043184603B05DF804FB77
:106EB40058A5020000B585B00190084611461A464F
:106EC40003468DF803300B468DF8023013468DF8D7
:106ED400013001AB1846FFF7D9FF0390019A9DF8E2
:106EE40003109DF802305B0019439DF801309B00AC
:106EF40019439DF818301B0219439DF81C301B04DC
:106F04001943039B02F5E07243F8221000BF05B059
:106F14005DF804FB00B585B00390002301930023C2
:106F240000930023012201210398FFF7C3FF00BF50
:106F340005B05DF804FB00B585B003900B468DF8F1
:106F44000B309DF80B20002301930023009313467C
:106F5400002200210398FFF7ADFF00BF05B05DF8E4
:106F640004FB00B585B00390002301930023009334
:106F74000023012200210398FFF79CFF00BF05B006
:106F84005DF804FB00B585B0019001AB1846FFF72E
:106F94007DFF0390019B012202FA03F31946039833
:106FA40000F004F800BF05B05DF804FB82B0019066
:106FB4000091019B009AC3F8082500BF02B07047F6
:106FC40000B583B001900091009B1B68B3F1FF3FB3
:106FD40009D0009B1B681846FFF7D4FF009B1B6871
:106FE4001846FFF797FF009B5B68B3F1FF3F05D09E
:106FF400009B5B6800211846FFF79DFF019B1B79EE
:10700400464A5B0113441C331B78002B41D0019B7F
:107014001A68009B9B6919461046FFF7E4FE019B22
:107024001868009B597D009B1B7D1A46FFF7C6FE1E
:10703400019B1868009B1968009B5B681A46FFF760
:1070440055FE009B1B7D012B64D1009B9B68B3F113
:10705400FF3F05D0009B9B6800211846FFF76BFF9C
:10706400009BDB68B3F1FF3F09D0009BDB68184647
:10707400FFF788FF009BDB681846FFF74BFF019B77
:107084001868009BD968009B9B681A46FFF76BFE43
:1070940040E0019B1A68009B9B6919461046FFF764
:1070A400B1FD019B1868009B597D009B1B7D1A460E
:1070B400FFF793FD019B1868009B1968009B5B68B0
:1070C4001A46FFF70CFD009B1B7D012B22D1009B70
:1070D4009B68B3F1FF3F05D0009B9B6800211846D5
:1070E400FFF729FF009BDB68B3F1FF3F09D0009B4A
:1070F400DB681846FFF746FF009BDB681846FFF77E
:1071040009FF019B1868009BD968009B9B681A467D
:10711400FFF722FD00BF03B05DF804FBF01E002062
:1071240000B583B001900B468DF80330019B1B79A9
:107134002D4A5B0113441C331B78002B2FD0019B79
:107144001B684FF488711846FFF766FD019B1B68A6
:107154004FF490711846FFF75FFD019B1B684FF4D5
:1071640092711846FFF758FD019B1B684FF4A271FA
:107174001846FFF751FD019B1B681C491846FFF791
:1071840081FD019B1B681846FFF767FE03461A46FC
:107194009DF8033019461046FFF726F920E0019BBD
:1071A4001B684FF48E711846FFF72EFC019B1B6879
:1071B4004FF4A2711846FFF727FC019B1B680C498A
:1071C4001846FFF748FC019B1B681846FFF745FE6D
:1071D40003461A469DF8033019461046FFF704F992
:1071E40000BF03B05DF804FBF01E00201003020092
:1071F4008000020000B583B00190019B1B79154A01
:107204005B0113441C331B78002B0FD0019B1B68BC
:1072140011491846FFF740FD019B1B681846FFF70C
:107224001CFE03461846FFF70AFE0EE0019B1B688E
:107234000A491846FFF729FC019B1B681846FFF70B
:107244000CFE03461846FFF7FAFD00BF03B05DF8D5
:1072540004FB00BFF01E00201003020084020200A1
:1072640000B587B00190019B1B79364A5B0113443A
:107274001C331B78002B22D0019B1B681846FFF798
:1072840052FD0590019B1B681846FFF754FD0490BE
:10729400019B1B681846FFF756FD0390019B1B6872
:1072A4001846FFF758FD0290019B1B681846FFF72C
:1072B4002CFD019B1B681846FFF764FD21E0019B30
:1072C4001B681846FFF728FC0590019B1B681846AD
:1072D400FFF72AFC0490019B1B681846FFF72CFC5F
:1072E4000390019B1B681846FFF72EFC0290019B3C
:1072F4001B681846FFF702FC019B1B681846FFF742
:107304003AFC059BB3F1FF3F02D00598FFF729FE35
:10731400049BB3F1FF3F02D00498FFF722FE029BC7
:10732400B3F1FF3F02D00298FFF71BFE039BB3F1BA
:10733400FF3F02D00398FFF714FE00BF07B05DF8CB
:1073440004FB00BFF01E002000B583B00190019B38
:107354001B790B4A5B0113441C331B78002B05D0AB
:10736400019B1B681846FFF7AFFC04E0019B1B68F8
:107374001846FFF7A2FB00BF03B05DF804FB00BF93
:10738400F01E002000B583B00190019B1B790B4ACD
:107394005B0113441C331B78002B05D0019B1B6835
:1073A4001846FFF79AFC04E0019B1B681846FFF798
:1073B4008DFB00BF03B05DF804FB00BFF01E00208E
:1073C40000B587B0039002910192029B002B04D177
:1073D40022494FF48870FDF758FE039B1B795B012B
:1073E4001F4A1344059300230493059BDB7E002B63
:1073F40003D008230493049B2BE0029B5A7F059B34
:107404001A7702990398FFF7DBFD059B019A5A60EE
:10741400029B1A69059B1A60059B5B68002B05D0CB
:10742400029B1B7F19460398FFF77AFE0398FFF728
:107434008BFF059B0022DA75059B00221A76059BBB
:1074440000229A75059B0122DA76059B00229A7622
:10745400049B184607B05DF804FB00BF98A5020022
:10746400F01E002000B585B00190019B1B795B01E3
:107474000C4A134403930198FFF784FF039B5B6852
:10748400002B02D00198FFF7B5FE0198FFF7E8FE44
:10749400039B0022DA76039B00225A6000BF05B0EA
:1074A4005DF804FBF01E002000B585B0019000914A
:1074B4004FF48E710198FFF7A7FA009B9B68009A1E
:1074C400928A92B213441B788DF80F30009B9B8AEA
:1074D4009BB201339AB2009B9A829DF80F301946F1
:1074E4000198FFF75FFB00BF05B05DF804FB0000E7
:1074F40000B585B00190019B1B795B01344A1344AC
:10750400029300230393019B1B684FF48E7118466A
:10751400FFF77AFA019B1B6808211846FFF74FFB17
:10752400019B1B6802991846FFF7BEFF029B5B682C
:10753400002B48D11FE000BF019B1B684FF48E71E4
:107544001846FFF776FA034683F00103DBB2002BFB
:1075540005D0029B9B8A9BB2B3F5807FECD1029B42
:107564009B8A9BB2B3F5807F05D0019B1B6802996F
:107574001846FFF799FF029B9B8A9AB2029B9B7D58
:107584009BB29A42D7D3029B9B8A9BB2B3F5807F6E
:1075940002D10F23039313E000BF019B1B684FF438
:1075A4008E711846FFF745FA034683F00103DBB2F8
:1075B400002BF2D1019B1B680C211846FFF7FFFA40
:1075C400029B00229A75039B184605B05DF804FBE4
:1075D400F01E002000B587B00190019B1B795B0170
:1075E4002A4A1344049300230593019B1B684FF418
:1075F40090711846FFF710FB019B1B684FF4AC71A8
:107604001846FFF709FB019B1868049B9968049BC3
:107614009B7D1A46FFF7F1FB019B1B680821184666
:10762400FFF7BEFB049B5B68002B2AD1019B1B6800
:107634004FF490711846FFF704FB03468DF80F30A2
:10764400019B1B684FF4AC711846FFF7FAFA034626
:107654008DF80E309DF80F3083F00103DBB2002B60
:1076640006D09DF80E3083F00103DBB2002BDDD190
:107674009DF80E30002B01D00F230593049B0022AC
:107684009A75059B184607B05DF804FBF01E0020B0
:1076940000B587B00390029113468DF80730039B21
:1076A4001B795B012E4A13440593059BDB7E012B5A
:1076B40004D02C494FF4CC70FDF7E7FC9DF807305B
:1076C400002B04D1274940F29910FDF7DEFC029B00
:1076D400002B04D123494FF4CD70FDF7D6FC039B56
:1076E4001B791F4A5B0113441C331B78002B0CD0FD
:1076F4000298FFF7BDFB034683F00103DBB2002BC6
:1077040003D010230493049B25E0039800F02CF885
:107714000346002B03D011230493049B1BE0059B19
:107724009DF807209A75059B029A9A60059B002292
:107734009A82039B1B790A4A5B0113441C331B780E
:10774400002B04D00398FFF745FF034603E003989A
:10775400FFF7CEFE0346184607B05DF804FB00BFF2
:10776400F01E002098A5020082B00190019B1B79B5
:10777400064A5B01134416331B78002B14BF012304
:107784000023DBB2184602B0704700BFF01E002091
:1077940010B582B001900091009BDB7D002B08D1D5
:1077A4004FF484710198FFF72FF90198FFF7F1F96D
:1077B40016E04FF484710198FFF726F9009BDB680B
:1077C400009A527ED2B29C180198FFF7E2F9034660
:1077D4002370009B5B7EDBB20133DAB2009B5A76E6
:1077E40002B010BD00B589B003900B4601928DF82C
:1077F4000B3001238DF810309DF80B308DF81830C4
:10780400019B0593039B5B68039A116804AA1046C5
:10781400984700BF09B05DF804FB00B587B001903C
:107824000B468DF8033000238DF808309DF80330A3
:107834008DF81030019B9B680393019B00229A757D
:10784400019B5B68019A116802AA1046984700BF21
:1078540007B05DF804FB00B589B0019000914FF4C6
:1078640000710198FFF701F90346002B39D04FF45A
:1078740092710198FFF7DDF80346002B31D04FF4E5
:1078840092710198FFF7C0F84FF401710198FFF766
:10789400FCF8009B9B7E83F00103DBB2002B03D03A
:1078A40004210198FFF78BF902238DF80830019821
:1078B400FFF7F5F803460593009BDB7D8DF8103048
:1078C400009BDB680393009B0022DA75009B002277
:1078D4001A76009B5B68009A116802AA10469847C2
:1078E40056E004210198FFF7C0F80346002B4FD05F
:1078F4004FF484710198FFF79CF80346002B47D09E
:1079040000990198FFF744FF009BDA7D009B5B7EA2
:10791400DBB29A423CD1009B1B7E002B1CD0009B07
:10792400DB680793009B5B7E8DF81B30009B1A7EFF
:10793400009BDA75009B1A69009BDA60009B0022A9
:107944001A76009B00225A769DF81B30079A194636
:107954000098FFF747FF1BE0009B9B7E83F0010329
:10796400DBB2002B03D004210198FFF728F94FF470
:1079740001710198FFF789F8009B0022DA75009BDA
:107984005B7ED9B2009BDB681A460098FFF72AFF9A
:107994004FF48E710198FFF74CF80346002B1BD06F
:1079A400009B9B8A9AB2009B9B7D9BB29A4204D215
:1079B40000990198FFF778FD0EE04FF48E7101985D
:1079C400FFF722F8009B9B7D002B05D0009B9B7D3D
:1079D40019460098FFF721FF4FF4A2710198FFF7B1
:1079E40028F80346002B1CD04FF4A2710198FFF72E
:1079F4000BF8009B9B7E002B03D000210198FFF71E
:107A0400DEF8009BDB7D002B0BD0009B0022DA7597
:107A1400009B5B7ED9B2009BDB681A460098FFF797
:107A2400E1FE00BF09B05DF804FB00B589B0019028
:107A340000914FF492710198FFF703F90346002B6C
:107A440024D04FF492710198FFF7E6F802238DF8E1
:107A540008300198FFF72AF9034605930198FFF7C8
:107A6400E6F90346DBB28DF81030009BDB68039324
:107A7400009B0022DA75009B00221A76009B5B684B
:107A8400009A116802AA1046984741E04FF48871A1
:107A94000198FFF7D6F80346002B39D04FF48871CC
:107AA4000198FFF7B9F80198FFF7C1F903468DF87B
:107AB4001F30009BDB7D9DF81F209A4228D1009B3C
:107AC4001B7E002B19D0009BDB68069320210198B4
:107AD400FFF7C9F8009B1A7E009BDA75009B1A69B0
:107AE400009BDA60009B00221A769DF81F30069AEC
:107AF40019460098FFF776FE0AE0009B0022DA752B
:107B0400009BDA689DF81F3019460098FFF76AFE5B
:107B14004FF4A2710198FFF794F80346002B16D096
:107B24004FF4A2710198FFF777F8009BDB7D002BDF
:107B34000DD0009B0022DA750198FFF778F903460F
:107B4400D9B2009BDB681A460098FFF74BFE4FF44E
:107B540090710198FFF775F80346002B11D04FF48C
:107B640090710198FFF758F8009B9B7D002B08D07B
:107B74000198FFF754F90346DBB219460098FFF762
:107B84004CFE00BF09B05DF804FB000008B5074BCC
:107B94001B7F002B04D005490548FFF746FF03E08F
:107BA40002490348FFF757FE00BF08BDF01E00203E
:107BB4000020004073DF704700BF184677DF70472E
:107BC40000BF184662DF704700BF184610B598B072
:107BD40004238DF85F3005AB3C220021184601F0E8
:107BE4002DFE9DF85F308DF817300123ADF8243059
:107BF4001E4B0A931E4B01AC0FCB84E80F0001AB64
:107C04001C491846FFF7DEFF1690169B1593159B2B
:107C1400002B04D0184A24211598FCF71BFC05AB53
:107C24000021184600F01CFE1690169B1493149B1A
:107C3400002B04D0104A27211498FCF70BFC1022C7
:107C440000210E4801F0FAFD0C4B03221A700B4B75
:107C540000225A60094B00221A72084B20225A81D2
:107C6400064B00229A8100BF18B010BDE81700200F
:107C740060A60200EA170020F4A50200101F0020ED
:107C840000B583B001210948FFF794FF0190019BDF
:107C94000093009B002B04D0054A38210098FCF780
:107CA400D9FB00BF03B05DF804FB00BF101F002028
:107CB400F4A5020000B587B001F0CCFA0590059B4D
:107CC4000493049B002B04D0164A44210498FCF727
:107CD400C1FB0023019301AB1946012001F060FBB5
:107CE4000590059B0393039B002B04D00D4A4A2166
:107CF4000398FCF7AFFB01AB184601F037FC059085
:107D0400059B0293029B002B04D0064A4E21029845
:107D1400FCF7A0FB6FF01300FFF750FF00BF07B0A4
:107D24005DF804FBF4A5020000B583B00020FBF766
:107D3400EDFC0190019B0093009B002B04D0054AAD
:107D440057210098FCF786FBFBF73EFC00BF03B00D
:107D54005DF804FBF4A5020008B5FFF7E5FFFFF7A3
:107D6400A9FFFFF733FFFFF78BFF064B1B881B04AC
:107D740043F0030304491846FBF73CFF002318466D
:107D840008BD00BF3017002070A602006DDF7047E9
:107D940000BF184672DF704700BF184679DF70478E
:107DA40000BF18467DDF704700BF184664DF704788
:107DB40000BF184682B003460091ADF80630BDF806
:107DC4000630DAB2009B1A70009B0133BDF806201E
:107DD400120A92B2D2B21A700223184602B0704745
:107DE40000B589B0039002911346ADF80630029BAA
:107DF4001B8803F10902BDF806309A4201D90C230D
:107E040051E005AB1846FFF7C1FF0790079B002B15
:107E140001D0079B47E0029B1B881A46039B13442F
:107E240008221A70029B1B8801339AB2029B1A80A3
:107E3400029B1B881A46039B13441B221A70029B45
:107E44001B8801339AB2029B1A80029B1B881A4634
:107E5400039B981805AB01330622194601F0C4FCB4
:107E6400029B1B8806339AB2029B1A809DF8143039
:107E740023F00103DBB2002B07D1029B1B881A46B7
:107E8400039B134400221A7006E0029B1B881A46C7
:107E9400039B134401221A70029B1B8801339AB27C
:107EA400029B1A800023184609B05DF804FB00B554
:107EB40089B0039002910192ADF80230039B1B78C4
:107EC400012B05D1039B5B78002B01D1072389E0AB
:107ED400019B1B889A1CBDF802309A420ED8039B62
:107EE4001B78012B0CD1019B1B881A46039B5B78E2
:107EF40013449A1CBDF802309A4201D90C2371E054
:107F0400019B1B88BDF80220D31A9BB2023BADF83B
:107F14001C30BDF81C30ADF81630019B1B880233B1
:107F2400029A13440DF1160211461846FFF73AFF60
:107F34000690069B002B01D0069B53E0039B1B7805
:107F4400022B09D1BDF81630BDF81C209A4203D388
:107F540009238DF81F3017E008238DF81F30039B89
:107F64001B78012B0CD1039B5B789BB2BDF81C20C2
:107F74009A4205D3039B5B789BB2ADF8163003E0BD
:107F8400BDF81C30ADF81630BDF81630FE2B01D903
:107F94000C2327E0019B1B881A46029B1344BDF85F
:107FA4001620D2B20132D2B21A70019B1B8801335F
:107FB4009AB2019B1A80019B1B881A46029B1344A8
:107FC4009DF81F201A70019B1B8801339AB2019BF4
:107FD4001A80019B1A88BDF8163013449AB2019B8B
:107FE4001A800023184609B05DF804FB00B587B079
:107FF400039002911346ADF80630029B1B881A1DAC
:10800400BDF806309A4201D90C2339E00DF1120370
:108014001846FFF7C3FE0590059B002B01D0059B76
:108024002EE0029B1B881A46039B134403221A70FA
:10803400029B1B8801339AB2029B1A80029B1B8805
:108044001A46039B134419221A70029B1B8801339E
:108054009AB2029B1A80BDF81220029B1B88194613
:10806400039B0B4419461046FFF7A4FE034619462A
:10807400029B1A888BB213449AB2029B1A80002383
:10808400184607B05DF804FB84B0029101921A46C9
:1080940003468DF80F301346ADF80C30019B1B8856
:1080A400DA1CBDF80C309A4201D90C2328E0019B5C
:1080B4001B881A46029B134402221A70019B1B88D8
:1080C40001339AB2019B1A80019B1B881A46029BBA
:1080D400134401221A70019B1B8801339AB2019B3D
:1080E4001A80019B1B881A46029B13449DF80F209B
:1080F4001A70019B1B8801339AB2019B1A800023DA
:10810400184604B0704784B0029101921A4603469F
:108114008DF80F301346ADF80C30019B1B88DA1C28
:10812400BDF80C309A4201D90C2328E0019B1B882E
:108134001A46029B134402221A70019B1B880133C6
:108144009AB2019B1A80019B1B881A46029B134416
:108154000A221A70019B1B8801339AB2019B1A8070
:10816400019B1B881A46029B13449DF80F201A702A
:10817400019B1B8801339AB2019B1A800023184685
:1081840004B0704700B58BB0039001930B468DF893
:108194000B3013468DF80A3000238DF823300C9BE6
:1081A4001B88ADF82030002309936DE0039B5A68C7
:1081B400099B9B001A4404AB106818600DF1170169
:1081C40004AB00221846FFF7F1FD0790079B002B34
:1081D40001D0079B7AE09DF817309DF80A209A4257
:1081E4004FD19DF82330002B01D0002300E002235F
:1081F4008DF81B300C9B1B881A469DF817301A44C7
:108204009DF81B301A44BDF834309A4201DD0C232A
:108214005CE09DF8233083F00103DBB2002B16D021
:108224000C9B1B8801339AB20C9B1A800C9B1B88F5
:108234001A46019B13449DF80B201A700C9B1B8853
:1082440001339AB20C9B1A8001238DF823300C9BC6
:108254001B881A46019B1A440DF1170104AB1846FA
:10826400FFF7A4FD0790079B002B01D0079B2DE08F
:108274000C9B1A889DF817309BB213449AB20C9B3E
:108284001A80099B01330993039B1B881A46099B97
:108294009A428BDC9DF82330002B16D00C9B1A8855
:1082A400BDF82030D31A9BB2013BADF81830BDF8AD
:1082B4001830FF2B01D90C2308E0BDF82030019AB7
:1082C4001344BDF81820D2B21A70002318460BB01C
:1082D4005DF804FB00B589B0059003930B468DF857
:1082E400133013468DF812309DF81310BDF82C305E
:1082F40001930A9B0093039B02220598FFF742FF18
:108304000790079B002B01D0079B12E09DF81210E9
:10831400BDF82C3001930A9B0093039B102205980F
:10832400FFF730FF0790079B002B01D0079B00E06D
:108334000023184609B05DF804FB82B00190019B4C
:108344001B88052B0AD9019B1B88B3F5486F07D9F5
:10835400019B1B884FF6FF72934201D0072325E04F
:10836400019B5B88052B0AD9019B5B88B3F5486F99
:1083740007D9019B5B884FF6FF72934201D0072314
:1083840014E0019B1B884FF6FF7293420DD0019BB2
:108394005B884FF6FF72934207D0019B1A88019BBA
:1083A4005B889A4201D9072300E00023184602B0F3
:1083B400704700B587B0039002910192ADF8023086
:1083C400019B1B889A1DBDF802309A4201D90C23E7
:1083D4004BE00398FFF7B1FF0590059B002B01D0FC
:1083E400059B42E0019B1B881A46029B134405220D
:1083F4001A70019B1B8801339AB2019B1A80019B5E
:108404001B881A46029B134412221A70019B1B8874
:1084140001339AB2019B1A80039B1A88019B1B8823
:108424001946029B0B4419461046FFF7C3FC03464A
:108434001946019B1A888BB213449AB2019B1A8085
:10844400039B5A88019B1B881946029B0B441946BF
:108454001046FFF7AFFC03461946019B1A888BB2FE
:1084640013449AB2019B1A800023184607B05DF8A2
:1084740004FB00B587B0039002910192ADF802307D
:10848400039B9B8802330593019B1B881A46059B1B
:1084940013449A1CBDF802309A4201D90C2354E0CB
:1084A400059BFE2B01D90C234FE0019B1B881A4628
:1084B400029B1344059AD2B20132D2B21A70019BC4
:1084C4001B8801339AB2019B1A80019B1B881A46B0
:1084D400029B1344FF221A70019B1B8801339AB23A
:1084E400019B1A80039B1A88019B1B881946029BD7
:1084F4000B4419461046FFF75DFC03461946019BE1
:108504001A888BB213449AB2019B1A80039B9B88EE
:10851400002B19D0039B9B68002B01D1072314E087
:10852400019B1B881A46029B9818039B9968039B1E
:108534009B881A4601F058F9019B1A88039B9B8873
:1085440013449AB2019B1A800023184607B05DF8C1
:1085540004FB00B589B0039002910192ADF802309A
:10856400039B9B6A002B01D1072372E000238DF843
:108574001F3066E0039B996A9DF81F2013465B0039
:1085840013449B000B440693069B9B88023305937C
:10859400059BFE2B01D90C235BE0019B1B881A462B
:1085A400029B1344059AD2B20132D2B21A70019BD3
:1085B4001B8801339AB2019B1A80019B1B881A46BF
:1085C400029B134416221A70019B1B8801339AB232
:1085D400019B1A80069B1A88019B1B881946029BE3
:1085E4000B4419461046FFF7E5FB03461946019B69
:1085F4001A888BB213449AB2019B1A80069B9B88FB
:10860400002B19D0069B9B68002B01D1072320E087
:10861400019B1B881A46029B9818069B9968069B27
:108624009B881A4601F0E0F8019B1A88069B9B88F8
:1086340013449AB2019B1A809DF81F3001338DF8C0
:108644001F30039B93F82C309DF81F209A4291D33E
:108654000023184609B05DF804FB00B589B0059005
:108664000491039200230793039B1B88ADF81A30EF
:10867400039B00221A80059B93F82D30002B0CD00D
:10868400BDF81A301A4603990498FFF7A9FB07901E
:10869400079B002B01D0079BC4E0059B9B78002B14
:1086A4000CD0BDF81A301A4603990498FFF79EFCC3
:1086B4000790079B002B01D0079BB3E0059BDB7859
:1086C400002B0ED0059BDB7858B2BDF81A30039A04
:1086D4000499FFF7D9FC0790079B002B01D0079B57
:1086E400A0E0059B5B68002B0FD0059B5B6893F9AA
:1086F4000000BDF81A30039A0499FFF704FD0790AF
:10870400079B002B01D0079B8CE0059B1B89002B4A
:1087140012D0059B03F10800BDF81A300193039BA6
:108724000093049B06220221FFF7D4FD0790079BC8
:10873400002B01D0079B75E0059B1B8A002B12D0F0
:10874400059B03F11000BDF81A300193039B0093BD
:10875400049B07220321FFF7BDFD0790079B002B15
:1087640001D0079B5EE0059B1B8B002B12D0059B61
:1087740003F11800BDF81A300193039B0093049B86
:1087840015221421FFF7A6FD0790079B002B01D0AB
:10879400079B47E0059B1B6A002B0DD0059B186ABD
:1087A400BDF81A30039A0499FFF703FE0790079B5C
:1087B400002B01D0079B35E0059B5B6A002B0DD095
:1087C400059B586ABDF81A30039A0499FFF751FEC5
:1087D4000790079B002B01D0079B23E0059B93F890
:1087E4002C30002B0CD0BDF81A30039A049905984C
:1087F400FFF7AFFE0790079B002B01D0079B11E00A
:10880400059B1B78002B0CD0BDF81A30039A0499F1
:108814000598FFF74CFB0790079B002B01D0079BA3
:1088240000E0079B184609B05DF804FB82B0019094
:10883400019BDB7803F00403002B01D1072300E044
:108844000023184602B0704782B00190019BDB7888
:10885400002B01D0072300E00023184602B0704724
:1088640000B597B0019000911F23ADF84A301F2343
:10887400ADF84830019B002B18D00198FFF7D6FFC4
:108884001390139B002B01D0139B3FE00DF14A0280
:108894000AAB19460198FFF7E0FE1390139B002BD7
:1088A40001D0139B32E00AAB159304E00023159327
:1088B4000023ADF84A30009B002B17D00098FFF737
:1088C400C3FF1390139B002B01D0139B1EE012AA2D
:1088D40002AB19460098FFF7C0FE1390139B002BC0
:1088E40001D0139B12E002AB149304E00023149311
:1088F4000023ADF84830BDF84A30D9B2BDF848304D
:10890400DBB2149A1598FFF745FA0346184617B0D8
:108914005DF804FBBFF34F8F0549054BDB6803F497
:10892400E062044B1343CB60BFF34F8F00BFFDE7FE
:1089340000ED00E00400FA05024B034A1A6000BF90
:10894400704700BFEC1700200090D00308B500F07A
:108954005BF90346002B06D09A4A9B4B1B681B0A03
:1089640003F01F03136000F07BF90346002B02D0D1
:10897400964B974A1A6000F08FF90346002B06D0F5
:10898400944A954B1B685B0B03F00703136000F0DC
:10899400AFF90346002B05D0904A904BDB6823F0D7
:1089A4008073D36000F0C0F90346002B0ED04FF063
:1089B40080430022C3F80C214FF080430022C3F807
:1089C40010214FF080430022C3F8382500F0D8F975
:1089D4000346002B02D0824B03221A6000F0ECF90C
:1089E4000346002B0BD07F4B05221A607E4B0122DD
:1089F4001A607E4B00221A607D4B3F221A6000F001
:108A0400F7F90346002B76D07A4A4FF08053D3F817
:108A14000434C2F82035774A4FF08053D3F8083431
:108A2400C2F82435734A4FF08053D3F80C34C2F89B
:108A34002835704A4FF08053D3F81034C2F82C35DF
:108A44006C4A4FF08053D3F81434C2F83035694A75
:108A54004FF08053D3F81834C2F83435654A4FF0D8
:108A64008053D3F81C34C2F84035624A4FF0805327
:108A7400D3F82034C2F844355E4A4FF08053D3F81B
:108A84002434C2F848355B4A4FF08053D3F8283475
:108A9400C2F84C35574A4FF08053D3F82C34C2F8FF
:108AA4005035544A4FF08053D3F83034C2F854351B
:108AB400504A4FF08053D3F83434C2F860354D4AED
:108AC4004FF08053D3F83834C2F86435494A4FF034
