:020000022000DC
:10300000000001203D32020095320200973202009A
:10301000993202009B3202009D3202000000000043
:103020000000000000000000000000009F320200CD
:10303000A132020000000000A3320200A53202000B
:10304000E9760200AB320200C9970200AF320200FB
:10305000B1320200B33202009D810200B732020099
:10306000B9320200BB320200BD320200BF320200A0
:10307000C1320200C3320200C5320200C732020070
:10308000C9320200DD530200CD320200CF3202000D
:103090001D540200D332020041E50200D732020083
:1030A000D9320200DB320200DD320200DF320200E0
:1030B000E1320200E3320200A7320200A73202002E
:1030C000E5320200E7320200E9320200EB32020090
:0C30D000ED320200EF320200F13202008B
:1030DC00364937480A1A02D0072291438D463549A2
:1030EC0035480A1A06D00722914381F30988022237
:1030FC0082F3148831483249324A00F045F832489C
:10310C003249334A00F040F832483349334A00F030
:10311C003BF833483349344A00F036F833483449E5
:10312C00344A00F031F834483449354A00F02CF870
:10313C0034483549354A00F027F8354835490022DE
:10314C0000F02DF834483549002200F028F83448B6
:10315C003449091A082903DB00220260043001609B
:10316C00314A90471F482049884205D002680430F4
:10317C0003B4904703BCF7E700208646EC460020DA
:10318C0000212A4A9047FEE7884207D0521A05D000
:10319C00037801300B700131013AF9D17047884244
:1031AC0002D002700130FAE77047000000000120E5
:1031BC0000F800200000012000000120480F03004F
:1031CC00D827002044280020F4320200F4320200F8
:1031DC00CCF40200480F0300D8270020D827002089
:1031EC000CF602000CF602000CF602000CF60200C3
:1031FC000CF602000CF602000CF602000CF60200B3
:10320C00480F0300B40F030044280020442800207A
:10321C004428002004380020043800200438002002
:10322C0004380020043A00206132020025B002006C
:10323C000F484FF00701884385460E4880470E48DB
:10324C00016841F470010160BFF34F8FBFF36F8FC2
:10325C00FFF73EBF09480A490A4A884207D0521A6A
:10326C0005D0037801300B700131013AF9D1704768
:10327C00000001200DD5020088ED00E094F502005D
:10328C0060270020D8270020FEE7FEE7FEE7FEE7D8
:10329C00FEE7FEE7FEE7FEE7FEE7FEE7FEE7FEE7FA
:1032AC00FEE7FEE7FEE7FEE7FEE7FEE7FEE7FEE7EA
:1032BC00FEE7FEE7FEE7FEE7FEE7FEE7FEE7FEE7DA
:1032CC00FEE7FEE7FEE7FEE7FEE7FEE7FEE7FEE7CA
:1032DC00FEE7FEE7FEE7FEE7FEE7FEE7FEE7FEE7BA
:0832EC00FEE7FEE7FEE700BF6C
:1032F4007047704708B508F035F800BF08BD00B541
:1033040089B0039002910192019B002B22D00023EB
:1033140007930A230693029A079B1344019A1946BA
:10332400002007F0D1FF0590079A059B13440793EB
:10333400019A059BD31A0193059B002B05D1069B8B
:10334400013B0693069B002B03D0019B002BE2D18B
:1033540000E000BF00BF09B05DF804FB00B585B014
:1033640003900291054B00934023054A0299039868
:1033740000F012F800BF05B05DF804FB033302004F
:103384004428002082B0019000BF02B0704782B090
:10339400019000BF02B0704700B5A1B00590049140
:1033A40003920293049803F0B6FB039B1593029BCC
:1033B40016930023179300238DF86030002319938C
:1033C400229B1A9300231F930FA91F9B0822049882
:1033D40003F05CFC08231F93119B1293109B9BB278
:1033E400ADF84C3000238DF850309DF83C3003F09C
:1033F4000303DBB2012B32D10F9BC3F395231D933F
:103404009DF83C30C3F3C203DBB28DF84E309DF817
:103414003C30C3F38003DBB2002B14BF0123002331
:10342400DBB28DF84F30BDF83C30C3F38313DBB20D
:103434001C931C9B9A0009A91F9B049803F026FC6B
:103444001C9B9B001F9A13441F9312AA09A915AB36
:10345400009313461C9A1D9800F07CFE3BE09DF8F7
:103464003C3003F00303DBB2022B34D1BDF83E3011
:10347400C3F389139BB21E939DF83C30C3F3C2037C
:10348400DBB28DF84E309DF83C30C3F38003DBB2E1
:10349400002B14BF01230023DBB28DF84F301E9B99
:1034A400082B28BF08231B9307A91F9B1B9A04986A
:1034B40003F0ECFB1F9A1B9B13441F931E9A1B9B48
:1034C400D31A1E9315AB12AA07A81B9900F0E4FEA9
:1034D4001E9B002BE3D1049803F02CFB00BF21B00A
:1034E4005DF804FB82B00190019B01225A7200BF77
:1034F40002B0704700B583B04FF0FF330193FFF77C
:10350400F9FE0421084800F05FFD0190019B002BA7
:1035140003DA0649412006F0F7FE0348FFF7E2FF0D
:1035240000BF03B05DF804FBD827002018F60200A2
:1035340000B583B001900091019B1B681B68009942
:103544000198984700BF03B05DF804FB00B583B051
:103554000190019B1B685B680198984700BF03B00A
:103564005DF804FB82B001900B468DF80330019B9B
:103574009DF803201A7200BF02B0704782B0019018
:10358400019B1B7A184602B0704782B00190019BE0
:1035940001225A7200BF02B0704782B00190019BB1
:1035A4005B7A184602B0704710B487B0019000915E
:1035B400019B009A53E8004F44EA020043E80001EB
:1035C40091F0000FF6D1059404900391049B1846E2
:1035D40007B05DF8044B704710B487B001900091B8
:1035E400019B009A53E8004F04EA020043E80001FB
:1035F40091F0000FF6D1059404900391059B1846B1
:1036040007B05DF8044B704700B583B00190012109
:103614000198FFF7C9FF0346184603B05DF804FBA1
:1036240000B583B0019000210198FFF7D5FF034650
:10363400184603B05DF804FB00B587B001901F4B3A
:10364400FF229A601D4B00221A601C4B00225A6014
:103654001A4B0022C3F81824184B0022C3F8142470
:10366400164B002283F81C24154803F0B9F9049082
:10367400049B002B01D0049B1CE0124A124BD31A6A
:10368400DB080393002305930FE0059A13465B00C0
:1036940013449B001A460D4B13440293059B9AB2A4
:1036A400029B1A80059B01330593059A039B9A425A
:1036B400EBD30023184607B05DF804FB542900201F
:1036C400A4F602006CF502001CF50200602700203D
:1036D400024A034BD31ADB08184670476CF5020004
:1036E4001CF5020000B587B001900B468DF803303D
:1036F4009DF80330002B23D0FFF7EAFF049000234A
:10370400059317E0059A13465B0013449B001A4681
:103714000E4B13440393039B5B881A46019B1B685F
:103724009A4204D1019B059A1A60002309E0059B83
:1037340001330593059A049B9A42E3D3052300E0E1
:103744000023184607B05DF804FB00BF6027002083
:1037540000B585B001900B468DF803309DF8032029
:1037640001AB11461846FFF7BDFF0346002B07D1F6
:10377400019BDB00054A13440393039B1B6800E091
:103784000023184605B05DF804FB00BF1CF50200D9
:1037940084B001900B468DF80330019BDB00174A7F
:1037A400134402939DF80330013B032B1CD801A260
:1037B40052F823F0C9370200D1370200D93702008A
:1037C400E337020002238DF80F3011E004238DF853
:1037D4000F300DE0029B1B798DF80F3008E0029B3F
:1037E4005B798DF80F3003E000238DF80F3000BFB4
:1037F4009DF80F30184604B0704700BF1CF5020056
:1038040000B589B04148FFF7FFFE4148FFF7FCFED1
:10381400404B5B6807933F4B9B680493079A049B58
:10382400134002339B003B4A1344043306931BE0CA
:10383400079B01330793069B5B88C3F389139BB2F1
:103844001A46069B1B88C3F389139BB213441A467A
:10385400079B13440793079A049B134002339B006E
:103864002C4A134404330693069B1B7803F003038A
:10387400DBB2002BDCD00023059311E0059B9B00F9
:103884006A461A44079B591C079104990B40214925
:1038940002339B000B445B681360059B0133059363
:1038A400059B012BEAD99DF80030C3F30103DBB279
:1038B400012B0CD0022B14D1BDF80230C3F38913B1
:1038C4009BB203339B08079A134407930FE0BDF898
:1038D4000030C3F38313DBB21A46079B13440793E8
:1038E40005E00D4940F24D1006F00EFD00BF0848FA
:1038F400FFF796FE0390039B002B02D0054A079B1B
:10390400536000BF09B05DF804FB00BF6C2D0020BC
:10391400682D002054290020C8F6020010B586B096
:103924000390029101920093039B1B0CADF8163097
:10393400BDF81640FFF7CCFE03469C4204D325494C
:103944004FF4B27006F0E0FC009B5A1C089B134035
:10395400BDF81620204902339B000B445A60009A9C
:10396400089B134002339B001B4A13440433049303
:10397400039B03F01003002B14BF01230023D9B2CF
:10398400049A137861F382031370039BDBB203F090
:103994000703D9B2049A137861F3C5031370019B2A
:1039A400DBB203F00F03D9B2049A138861F38913CD
:1039B4001380029BC3F31501049A136861F39F23D8
:1039C4001360049A1378012161F30103137000BF9B
:1039D40006B010BDC8F602005429002000B58BB013
:1039E40001900091019B0233089302230793012362
:1039F4008DF81B3000238DF80F300DF10F0318469E
:103A040001F0C0FF214B1A68009B1A601F4B9A6893
:103A14001E4B59681D4B1B68CB1A13440133099381
:103A2400089A079B134405930BE0FFF7E9FE174B35
:103A34009A68164B5968154B1B68CB1A134401330B
:103A44000993059A099B9A42EFD8104B1A680F4BB9
:103A54009B68134002339B000C4A134404330493C1
:103A6400049A137843F003031370084B1A68089BF5
:103A74001344064A13609DF80F30184601F098FF6E
:103A84009DF81B3018460BB05DF804FB5429002048
:103A940000B58BB005900491039202931F4B9B6871
:103AA400079306AB19460298FFF798FF0346002BCD
:103AB40024D0069B023309930023089311E0099B49
:103AC4005A1C0992079A1340089A920003990A44CF
:103AD4001268124902339B000B445A60089B01335D
:103AE4000893089A029B9A42E9D3069A079B00938B
:103AF4001346029A04990598FFF710FF074B93F8B1
:103B04001C34002B05D000BF00F064F80346002BE2
:103B1400FAD100BF0BB05DF804FB00BF54290020AC
:103B240000B583B001900091002300220099019810
:103B3400FFF7AEFF00BF03B05DF804FB00B587B02C
:103B4400039002910192019B059305AA0123029916
:103B54000398FFF79DFF00BF07B05DF804FB00B5B5
:103B640087B00390029101920093019B0493009B00
:103B7400059304AA022302990398FFF789FF00BF63
:103B840007B05DF804FB00B589B00390029101927F
:103B94000093019B0493009B05930A9B06930B9B44
:103BA400079304AA042302990398FFF771FF00BF47
:103BB40009B05DF804FB0000054B5A68044B1B6810
:103BC4009A420CBF01230023DBB21846704700BFA2
:103BD4005429002000B599B0FFF7EEFF0346002BEF
:103BE40001D00023B5E19D4B0022C3F81824BFF394
:103BF4004F8F9A4B5B681793984B9B681093179A57
:103C0400109B134002339B00944A134404331693CD
:103C1400002315930023149300230F931BE0179B99
:103C240001331793169B5B88C3F389139BB21A461F
:103C3400169B1B88C3F389139BB213441A46179B24
:103C440013441793179A109B134002339B00834A23
:103C5400134404331693169B1B7803F00303DBB25F
:103C6400002BDCD00023139311E0139B9B0002AACA
:103C74001A44179B591C179110990B40774902332A
:103C84009B000B445B681360139B01331393139BDA
:103C9400012BEAD99DF8083003F00303DBB2022BB1
:103CA40040F09C80BDF80A30C3F389139BB20D9396
:103CB400BDF80A30C3F389139BB2502BA8BF50231D
:103CC4000C930C9B9BB2C3F309039AB2BDF80A3060
:103CD40062F38F13ADF80A300C9B08330B939DF8F5
:103CE4000830C3F3C203DBB20F930B995C4802F0B4
:103CF40082FE1590159B002B00F0E380159802F0CE
:103D04000AFF02A9149B0822159802F0ADFF149B28
:103D140008331493179BDA43109B134001339B0021
:103D24000A930C9A0A9B9A4242D90A9B002B08D008
:103D3400179A109B134002339B00484A13440433E0
:103D440000E0484B09930A9B002B02D00A9BDBB28C
:103D540001E00C9BDBB28DF823300A9B002B01D0D1
:103D6400404B00E0002307930A9B002B06D00C9BDA
:103D7400DAB20A9BDBB2D31ADBB200E000238DF87F
:103D84001B309DF82320149B0999159802F06CFFB1
:103D94009DF82330149A13441493079B002B16D0D8
:103DA4009DF81B20149B0799159802F05DFF0EE007
:103DB400179A109B134002339B00284A1344043380
:103DC4000593149B0C9A0599159802F04DFF0D9BD1
:103DD40003339B08179A1344179372E09DF8083035
:103DE40003F00303DBB2012B5DD1BDF80830C3F34C
:103DF4008313DBB2062B28BF0623DBB203F00F03C9
:103E0400DAB2BDF8083062F38913ADF80830BDF8B2
:103E14000830C3F38313DBB202330E939DF80830EA
:103E2400C3F3C203DBB20F930E9B9B0019460C48ED
:103E340002F0E1FD1590159B002B42D0159802F07D
:103E44006AFE02A9149B0822159802F00DFF149B28
:103E540008331493002313931BE000BF542900205C
:103E6400A4F6020060290020179B5A1C1792109A8E
:103E7400134002339B00394A1344191D149B042236
:103E8400159802F0F1FE149B04331493139B013331
:103E94001393BDF80830C3F38313DBB21A46139BA4
:103EA4009A42E1D80DE09DF8083003F00303DBB239
:103EB400032B06D1294BD3F81834002B01D100234E
:103EC40047E0159B002B3ED0244BD3F810341293BB
:103ED400224BD3F81834002B1AD0159802F02AFE7E
:103EE40031E000238DF847301298FFF756FB034664
:103EF400002B02D001238DF847309DF84730002B6A
:103F040003D015991298FFF713FB129B5B68129369
:103F1400129B002BE5D1159802F00CFE00238DF8BE
:103F240007300DF10703184601F02CFD0B4BD3F8B5
:103F34001834002B02D1094A179B53609DF80730AF
:103F4400184601F035FDFFF737FE034683F0010301
:103F5400DBB2184619B05DF804FB00BF54290020F9
:103F640000B585B00023039322E0164BD3F8103438
:103F7400029301238DF807300EE00298FFF7FEFA52
:103F840003461A46039B9A4203D100238DF8073057
:103F940005E0029B5B680293029B002BEDD19DF828
:103FA4000730002B01D0039B07E0039B01330393ED
:103FB400039B092BD9DD4FF0FF33184605B05DF89C
:103FC40004FB00BF5429002000B585B001900B46C6
:103FD4008DF80330FFF7C4FF0390039BB3F1FF3F59
:103FE40001D1039B1EE0039BDBB219460198FFF746
:103FF400B9FA0E4BD3F81034002B07D10B4A019BAE
:10400400C2F81034019B00225A600AE0074BD3F82F
:1040140010345A68019B5A60044BD3F81034019A47
:104024005A60039B184605B05DF804FB5429002030
:1040340000B583B00C4BD3F8103401930A4B012222
:1040440083F81C2408E00198FFF79FFA0198FFF712
:104054007DFA019B5B680193019B002BF3D100BFA8
:1040640003B05DF804FB00BF5429002010B582B0F2
:1040740001900091019BDB7983F00103DBB2002BFB
:1040840028D0019B1B7A002B12D0019B9B881A46D7
:10409400019B9B7919461046FFF77AFB03461A46A3
:1040A4000E4B53F822301A460D49009801F04AFE8F
:1040B400019B9B791A460B4B53F82240019B9B882A
:1040C40000211846FFF744FB0346224606490098A0
:1040D40001F038FE00BF02B010BD00BFF827002079
:1040E400B4F70200E4270020B8F7020000B585B059
:1040F4000390029113468DF80730039BDB7983F01C
:104104000103DBB2002B0FD0039B1B7A002B06D0DC
:104114000D4B1B681A460D49029801F013FE0C4919
:10412400029801F00FFE07E09DF80730002B03D042
:104134000749029801F006FE029801F0E1FD00BF74
:1041440005B05DF804FB00BFF8270020B4F70200B7
:10415400C4F7020030B58BB0079006910592049322
:104164000E9B1B7B8DF827300E9B00221A730E9931
:104174000498FFF77BFF059B062B7FD801A252F81A
:1041840023F000BFA5410200AF410200BF4102007D
:10419400D3410200F14102001942020049420200E7
:1041A40007990E9801F0CEFD69E0069B1B681A463C
:1041B40007990E9801F0C6FD61E0069B1A68069BFC
:1041C40004331B6807990E9801F0BCFD57E0069B69
:1041D4001A68069B04331968069B08331B6800930E
:1041E4000B4607990E9801F0ADFD48E0069B19684F
:1041F400069B04331868069B08331B68069A0C3226
:1042040012680192009303460A4607990E9801F03A
:1042140099FD34E0069B1868069B04331C68069BD2
:1042240008331B68069A0C32126806991031096823
:104234000291019200932346024607990E9801F0D9
:1042440081FD1CE0069B1C68069B04331D68069BCD
:1042540008331B68069A0C321268069910310968F3
:1042640006981430006803900291019200932B4643
:10427400224607990E9801F065FD00E000BF002278
:104284000E990498FFF732FF0E9B9DF827201A73AE
:1042940000BF0BB030BD00BF00B587B003900291E2
:1042A40001920093029B082B5CD8009B1B7B8DF82A
:1042B4001330009B00221A7300990198FFF7D6FE71
:1042C4000023059314E0059A029B9A4209D2039AAB
:1042D400059B13441B781A462449009801F032FDCB
:1042E40003E02349009801F02DFD059B013305935C
:1042F400059B072BE7D91F49009801F023FD0023F4
:10430400059322E0059A029B9A4217D2039A059BD1
:1043140013441B788DF812309DF8123018460AF0B9
:104324002BFC0346002B02D09DF8123000E02E2314
:104334001A461149009801F005FD03E00F49009861
:1043440001F000FD059B01330593059B072BD9D98B
:10435400012200990198FFF7C9FE009B9DF81320E4
:104364001A7300E000BF07B05DF804FBC8F7020051
:10437400D0F70200D4F70200D8F70200DCF70200FD
:1043840000B589B0019000238DF81F3051E02E4B09
:104394001A689DF81F30DB0013440693069B1B78B4
:1043A4001A46012393400593284B1A68059B134032
:1043B400002B39D0059BDA43244B1B681340234A56
:1043C4001360069B1B78184603F0CCFE03468DF859
:1043D4001330069B1B781A46012393401A461C4B44
:1043E4001B6813409DF81320069909788A4093426C
:1043F4001AD19DF81330069A5278012A0CBF012273
:104404000022D2B293420CBF01230023DBB20393F8
:10441400069B5B68002B07D0069B5B68069A1278A4
:104424000399C9B2104698479DF81F3001338DF89F
:104434001F30084B1B789DF81F209A42A7D300BF5A
:1044440009B05DF804FB00BF742D0020A42D0020EA
:10445400A02D0020782D002000B585B001900B46DA
:104464008DF803300122019B02FA03F303931E4BE0
:10447400184601F06DF80290029B002B30D11B4BC3
:104484001A68039B1340002B22D1019803F06AFEA3
:104494000346002B06D0164B1A68039B1343144A99
:1044A400136006E0039BDA43114B1B681340104A68
:1044B40013600E4B1A68039B13430C4A13600A489B
:1044C4000C4B1B680022194601F010F8029008E01A
:1044D400039BDA43054B1B681340044A136000E056
:1044E40000BF05B05DF804FB802D0020A42D002042
:1044F400A02D00207C2D002000B589B003900B4630
:1045040001928DF80B30019B042B01D8072351E055
:1045140003F030FD034683F00103DBB2002B07D028
:1045240003F0E0FC0790079B002B01D0079B41E0C0
:10453400224A039B1360224A9DF80B301370214AD0
:10454400019B1360204B00221A60204B00221A604A
:1045540023E09DF80B30DB00039A134406930323F6
:104564008DF8143000238DF8153000238DF81630A3
:1045740000238DF81730069B9B788DF81530069B29
:104584001B78184605AB124A194603F0FFFC079046
:10459400079B002B01D0079B0CE09DF80B305A1EA3
:1045A4008DF80B20002BD4D10A4A00210A4800F0D0
:1045B4006DFF0346184609B05DF804FB742D002016
:1045C400782D00207C2D0020A02D0020A42D00207B
:1045D4005D44020085430200E0F7020000B583B0A9
:1045E400114B1B68002B03D11049B62005F08CFE3B
:1045F400002301930CE00C4B1A68019BDB0013446D
:104604001B780121184603F025FD019B013301931A
:10461400074B1B781A46019B9A42ECD80023184694
:1046240003B05DF804FB00BF742D0020E4F7020022
:10463400782D002000B589B0039002910192029B6D
:104644009BB2ADF81430019B0693039B079305AB13
:104654001A46002144F2010000F050F800BF09B0EE
:104664005DF804FB86B003900291019201238DF85A
:1046740017309DF81730204A039B13601E4A029B93
:1046840053601D4A019B9360039B44F201029342D1
:1046940012D044F20202934222D1019B164AD36003
:1046A400154BDB681B881A46134B9A61124BDB6867
:1046B4005B68114AD36113E0019B0F4A13610E4BEF
:1046C4001B699B680C4A53610B4B1B691B881A4678
:1046D400094B9A61084B1B695B68074AD36100BFA9
:1046E40072B600BF9DF81730DBB2002BFAD162B668
:1046F40000BF06B0704700BFA82D002030B589B0B8
:10470400059004910392FFF793FC00BFFFF762FA50
:104714000346002BFAD1059B41F20102934219D0C2
:1047240041F20102934202D8012B09D04AE044F23B
:104734000102934228D044F20202934214D041E091
:104744002D4B1B881B0443F001032C491846FFF72B
:10475400E7F942E0284B1B881B0443F00103284976
:104764001846FFF7DDF938E0039B0793224B1B88BB
:104774001B0443F00100079B5B681A46079B1B88D8
:104784002049FFF7ECF928E0039B06931A4B1B889A
:104794001B0443F00104069B9D68069B9B68184616
:1047A40002F0E2FA03461946069B5B681A46069B2A
:1047B4001B88019300920B462A4613492046FFF7B3
:1047C400E2F90AE00C4B1B881B0443F00103049A32
:1047D4000E491846FFF7B2F900BF0D4B1B6803F0F2
:1047E4000103002B00D0FFDE039A04990598FFF71C
:1047F40039FF00BF09B030BD6027002054F8020023
:1048040074F8020098F80200B4F80200CCF8020030
:10481400F0ED00E084B00190019B9B680393019B41
:10482400DA68039BD31A184604B0704782B001902B
:104834000B468DF80330019B1A68019BDB680199D4
:1048440089880B4013449DF803201A70019BDB6890
:104854005A1C019BDA6000BF02B0704784B0039019
:104864000B460192ADF80A30039B1A68039B9968C2
:10487400BDF80A300B44039989880B4013441A7815
:10488400019B1A7000BF04B0704700B583B001905B
:104894000091009A00210198FFF7E0FF019B9B68BB
:1048A4005A1C019B9A6000BF03B05DF804FB84B0FE
:1048B400039002911346ADF80630029B002B01D100
:1048C4000E231DE0BDF80630002B07D0BDF80630DE
:1048D4005A1EBDF806301340002B01D009230FE007
:1048E400039B029A1A60BDF80630013B9AB2039BFF
:1048F4009A80039B00229A60039B0022DA600023C3
:10490400184604B0704700B583B001900B468DF88B
:1049140003300198FFF77EFF0246019B9B889A4271
:1049240007D89DF8033019460198FFF77FFF00234D
:1049340000E00423184603B05DF804FB00B583B01F
:10494400019000910198FFF765FF0346002B05D005
:1049540000990198FFF799FF002300E0052318460A
:1049640003B05DF804FB000082B003468DF8073005
:1049740007499DF907305B099DF8072002F01F02E3
:10498400012000FA02F241F8232000BF02B0704770
:1049940000E100E082B003468DF8073008499DF934
:1049A40007305B099DF8072002F01F02012000FA7E
:1049B40002F2203341F8232000BF02B0704700BF49
:1049C40000E100E082B003468DF8073008499DF904
:1049D40007305B099DF8072002F01F02012000FA4E
:1049E40002F2403341F8232000BF02B0704700BFF9
:1049F40000E100E082B003468DF8073008499DF9D4
:104A040007305B099DF8072002F01F02012000FA1D
:104A140002F2603341F8232000BF02B0704700BFA8
:104A240000E100E082B0034600918DF807309DF963
:104A34000730002B0CDA0D499DF8073003F00F0303
:104A4400043B009AD2B25201D2B20B441A7609E066
:104A540007499DF90730009AD2B25201D2B20B44F1
:104A640083F8002300BF02B0704700BF00ED00E0F0
:104A740000E100E084B00190244B0393019B002BE0
:104A840040D0234B1A680399019B00BF00BF00BFAD
:104A940000BF00BF00BF00BF00BF8A422FD000BFCD
:104AA40000BF00BF00BF00BF00BF00BF00BF00BF0A
:104AB40000BF00BF00BF00BF00BF00BF00BF00BFFA
:104AC40000BF00BF00BF00BF00BF00BF00BF00BFEA
:104AD40000BF00BF00BF00BF00BF00BF00BF00BFDA
:104AE40000BF00BF00BF00BF00BF00BF00BF00BFCA
:104AF40000BF00BF00BF00BF00BF00BF00BF013B3D
:104B0400C3D1019300BF04B0704700BF0024F40078
:104B14002C28002000B583B00190064A019BC2F8FE
:104B2400083507211120FFF77DFF00BF03B05DF8B2
:104B340004FB00BF0010014008B50D4B4FF4803258
:104B4400C3F844230A4B4FF48032C3F804231120E2
:104B5400FFF750FF1120FFF707FF054B01221A60F2
:104B64002F20FFF787FF034B01221A7000BF08BDF7
:104B740000100140E62E002008B51120FFF70AFFBF
:104B84000E4B4FF48032C3F848230C4B4FF4803261
:104B9400C3F80823094B01225A602F20FFF76AFF4C
:104BA400064B01229A60064B00221A602F20FFF761
:104BB40061FF044B00221A7000BF08BD00100140C1
:104BC400D82E0020E62E0020024BD3F804351846D8
:104BD400704700BF0010014082B001900091019A1B
:104BE400009BD31A23F07F43184602B0704700009D
:104BF40082B00190034A019BC2F8403500BF02B065
:104C0400704700BF0010014086B00190284B1B681C
:104C1400002B03D1264A019B136045E0019B1A68CF
:104C2400234B1B681B689A4210D8214B1B68204AEF
:104C340012681168019A12688A1A1A601C4B1A6861
:104C4400019BDA611A4A019B13602DE0019B1B68EA
:104C54000393174B1B680593154B1B68049309E0DA
:104C6400049B1B68039AD31A0393049B0593049B28
:104C7400DB690493049B002B04D0049B1A68039BF8
:104C84009A42EDD3049B002B05D0049B1A68039B26
:104C9400D21A049B1A60019B039A1A60019B049A1E
:104CA400DA61059B019ADA6100BF06B0704700BF64
:104CB400D42E002000B587B001902A4B1B680393C3
:104CC400284B1B680593059B049308E0049A019BF9
:104CD4009A4208D0049B0593049BDB690493049BCC
:104CE400002BF3D100E000BF049B002B01D1002373
:104CF40033E0059A049B9A4214D11A4B1B68DB6972
:104D0400184A1360174B1B68002B0BD1164B01225A
:104D14009A60164B00221A60154B01221A702F203C
:104D2400FFF7A8FE049B1B680293049BDA69059BAA
:104D3400DA61059BDB690493049B002B05D0049B7B
:104D44001A68029B1A44049B1A60064B1B68039A58
:104D54009A4214BF01230023DBB2184607B05DF862
:104D640004FB00BFD42E002000100140D82E0020E8
:104D7400E72E002008B51120FFF724FE00BF08BD70
:104D840008B51420FFF71EFE00BF08BD00B583B0B0
:104D94000190019B5B69019A92691046984700BF94
:104DA40003B05DF804FB000000B585B02B4B1B6815
:104DB400002B4ED000230193FFF706FF0246284B39
:104DC4001B6819461046FFF707FF0290234B1B6828
:104DD40003931DE0039B1A68029B9A421CD8039B11
:104DE4001B68029AD31A0293039B1B68019A13440B
:104DF4000193039B0093039BDB690393009B1B7C40
:104E0400002B05D0009B00221A740098FFF7BEFF08
:104E1400039B002BDED100E000BF124B1A78124B2B
:104E24001B789A420CD1104B1B780133DAB20E4B2B
:104E34001A700D4B1B78022B02D10B4B00221A70F7
:104E4400094B1B781946094A019B42F82130FFF7A8
:104E540097FF00BF05B05DF804FB00BFD42E00200F
:104E6400D82E0020E42E0020E52E0020DC2E002089
:104E740082B00190184B1A78184B1B789A4223D0B1
:104E8400154B1B780133DAB2134B1A70124B1B7893
:104E9400022B02D1104B00221A700F4B1B781A46BA
:104EA4000F4B53F82220019B1A60019B1A680D4B8B
:104EB4001B6813440B4A13600A4B1B6823F07F439F
:104EC400084A1360012303E0019B00221A600023B7
:104ED400184602B0704700BFE42E0020E52E0020E3
:104EE400DC2E0020D82E002088B00390029101927D
:104EF4000023079338E0204B1B680693069B1A682F
:104F0400039B9A4206D9069B1A68039BD21A069BF6
:104F14001A602DE0069B1B68039AD31A0393069B21
:104F24001B68079A13440793069B00221A60124BCE
:104F34001B680593069BDB690F4A1360069BDB68BD
:104F4400002B11D0029A079B134423F07F42069B47
:104F54005A60069BDA68069B9A60019B1A68069B56
:104F6400DA61019B059A1A60034B1B68002BC2D1BE
:104F740000BF08B0704700BFD42E002000B589B030
:104F8400019000238DF81F30664B1B680593AAE03F
:104F9400019B002B05D0019B0693069BDB690193C3
:104FA40061E0614B1B781A4613465B001344DB0037
:104FB4005D4A1344043304935B4B1B780133DAB228
:104FC400594B1A70584B1A78574B9B789A4202D116
:104FD400554B00221A70049B5B680693049B1B7854
:104FE400022B04D0032B1BD0012B1FD01DE0049BEC
:104FF4005B681846FFF75EFE0346002B02D00123D0
:105004008DF81F30069B00221A746CE0454B1B6818
:105014000393039B00221A74039BDB69414A1360C8
:10502400404B1B68002BF1D15DE05CE000BF069BA8
:105034001B7C002B00D056E0049B9A68069B5A60A8
:10504400049BDA68069B9A60049B1A69069BDA60E3
:10505400049B5A69069B9A61344B1B78002B02D03F
:10506400069B00225A60069B5A68314B1B68D31A70
:1050740023F07F432F4A93420ED8069B5A682C4B49
:105084001B6819461046FFF7A7FD0246069B9B685E
:105094001A44069B1A6017E0254B1A68069B5B6846
:1050A40019461046FFF798FD0290069B9A68029BEA
:1050B4009A4206D9069B9A68029BD21A069B1A60EA
:1050C40002E0069B00221A60069B00225A60069B9F
:1050D40000229A60069B01221A74069B0022DA6160
:1050E4000698FFF791FD019B002B7FF451AF0E4B07
:1050F4001A780D4B5B789A427FF44AAF9DF81F30C3
:10510400002B04D1074B1A68059B9A4201D0012356
:1051140000E0002303F00103DBB2184609B05DF898
:1051240004FB00BFD42E0020C82D0020E72E002051
:10513400D82E0020FEFF7F0010B588B00190274BC9
:105144001B68002B44D0254B1B681B680793FFF793
:105154003BFD0690224B1B68059305990698FFF7C3
:105164003BFD0346033304931E4B1B7883F001037A
:10517400DBB2002B01D0FFF7DFFC049A079B9342BC
:1051840038BF1346059A13440593059B23F07F43C8
:1051940005930598FFF72CFDFFF716FD039006997C
:1051A4000398FFF719FD0346DC1C06990598FFF7E1
:1051B40013FD03469C420DD9FFF706FD034618462E
:1051C400FFF716FD2F20FFF755FCFFF7D3FD01E095
:1051D400FFF7D2FC00BF08B010BD00BFD42E0020E2
:1051E400D82E0020E62E002000B587B000230193BE
:1051F40000238DF81730194B1B680493184B1B6858
:1052040003936B461846FFF733FE03468DF80B30C5
:105214009DF80B30002B08D0009B01AA0499184676
:10522400FFF762FE01238DF81730019B1846FFF744
:10523400A5FE0346002B02D001238DF817309DF8FC
:105244001730002B02D00398FFF776FF054B00229E
:105254001A7000BF07B05DF804FB00BFD82E002011
:10526400D42E0020E72E002082B003468DF80730AC
:10527400034A9DF80730537000BF02B0704700BF67
:10528400C82D002084B00190144B5B7801338DF855
:105294000F30124B9B789DF80F209A4202D10023C5
:1052A4008DF80F300D4B1B789DF80F209A4201D1D9
:1052B40000230FE0019B9DF80F201A70074B5B78C9
:1052C4001A4613465B001344DB00044A13440433B8
:1052D4000293029B184604B0704700BFC82D0020FB
:1052E40000B589B0039002910192009300230793C3
:1052F40000238DF816300DF11603184600F042FB1A
:105304000DF117031846FFF7BDFF0690069B002B0F
:1053140002D10423079318E0069B01221A70069B0E
:10532400039A5A60FFF750FC0246069B9A60069B5C
:10533400029ADA60069B019A1A61069B009A5A61E6
:105344009DF817301846FFF78FFF9DF81630184662
:1053540000F02EFB079B002B01D1FFF711FD079BEB
:10536400184609B05DF804FB00B587B001900B4600
:105374008DF803300023059300238DF80E300DF1D2
:105384000E03184600F0FEFA0DF10F031846FFF75E
:1053940079FF0490049B002B02D1042305930BE0B6
:1053A400049B9DF803201A70049B019A5A609DF88F
:1053B4000F301846FFF758FF9DF80E30184600F0DE
:1053C400F7FA059B002B01D1FFF7DAFC059B184681
:1053D40007B05DF804FB000008B50E4B0022C3F8CB
:1053E40040210C4B0022C3F844210A4B0022C3F88D
:1053F4004821084B0022C3F84C21064B0022C3F875
:105404000021044B0022C3F80421FFF7CDFC00BFA8
:1054140008BD00BF0010014008B5FFF7E5FE00BF5E
:1054240008BD000008B5FFF7A7FB134B00221A7054
:10543400114B00225A70104B0B229A700F4B002212
:105444001A600F4B00221A700E4B00221A7014209F
:10545400FFF7D0FA07211420FFF7E4FA1420FFF72E
:1054640083FA0020FFF756FBFFF7AEFB0246064B1C
:105474001A600023184608BDC82D0020D42E002031
:10548400E42E0020E52E0020D82E002086B00390C4
:105494000B4601928DF80B30134B9B78002B01D1F6
:1054A40008231EE0019B002B01D1072319E0039B75
:1054B400002B01D1072314E0039B1B681B7C002BEA
:1054C40001D008230DE0039B1B680593059B002274
:1054D4001A74059B9DF80B205A74059B019A5A6116
:1054E4000023184606B07047C82D002000B587B0C9
:1054F400039002910192039B0593144B9B78002B1C
:1055040001D108231EE0039B002B01D1082319E0DD
:10551400029B042B01D8072314E0059B5B69002B35
:1055240001D108230EE0059B5B7C012B01D1029B7A
:1055340000E000230493019B049A02990598FFF765
:10554400CFFE0346184607B05DF804FBC82D0020C3
:1055540000B585B00190019B03930D4B9B78002B04
:1055640001D1082310E0019B002B03D0039B5B694E
:10557400002B01D1082307E0039B00221A740221A7
:105584000398FFF7F1FE0346184605B05DF804FBE7
:10559400C82D002084B00190019B9B680393019B5C
:1055A400DA68039BD31A184604B0704700B587B075
:1055B40001900091019B1B78012B04D0022B38D061
:1055C400002B47D05CE0019B5B681B7819462E4892
:1055D400FFF799F90590059B002B0AD001238DF85C
:1055E4000C30059B0493294B1B6803AA104698476B
:1055F4000DE02548FFF7CEFF0346002B07D000231C
:105604008DF80C30214B1B6803AA104698471E489E
:10561400FFF7C0FF02461C4B9B889A4205D8012223
:105624001B491C4803F004FE2AE01B4B01221A709C
:1056340026E002238DF80C30019BDB6804930122E1
:105644001349144803F0F4FD104B1B6803AA1046D9
:10565400984715E011491248FFF770F90346002BEB
:1056640005D101220D490B4803F0D8FB07E00323C1
:105674008DF80C30054B1B6803AA1046984700BFF1
:1056840000BF07B05DF804FBF42E0020E82E0020D4
:10569400F02E00201C280020F12E0020EC2E0020EB
:1056A400042F002030B58FB00390029101928DF841
:1056B40003303E4A019B1360029B002B01D1072358
:1056C40071E0029B1968029B5B689BB21A463848DA
:1056D400FFF7EDF80D900D9B002B01D00D9B62E0C0
:1056E400029B9968029BDB689BB21A463148FFF71C
:1056F400DEF80D900D9B002B01D00D9B53E02E4B3B
:1057040005AC1D460FCD0FC495E80F0084E80F00CB
:10571400039B5B690B93039B1B7C002B14BF01232E
:105724000023DBB28DF828309DF803308DF830303B
:10573400039B5B7C002B01D00E2300E000238DF83B
:105744002930039BDB680793039B9B680893039BA7
:105754001B680693039B5B68059305AB174A1946C0
:10576400174803F015FA0D900D9B002B01D00D9BEB
:1057740019E0144B00221A70039B1B68B3F1FF3F1E
:1057840010D09DF8313083F00103DBB2002B02D03E
:105794000B4803F011FE01220B49094803F048FDB0
:1057A400034600E0002318460FB030BDE82E002069
:1057B400F42E0020042F0020E4F80200B15502006A
:1057C4001C280020F12E0020F02E002000B587B008
:1057D4000190019B002B03D11449C92004F094FDCE
:1057E400134B1B788DF8173001991248FFF7A6F870
:1057F40004909DF81730002B12D00D4B00221A7024
:1058040001220D490D4803F013FD0390039B0293FD
:10581400029B002B04D0054AD5210298FEF70AFF0B
:10582400049B184607B05DF804FB00BF04F90200AE
:10583400F12E0020F42E0020F02E00201C28002041
:1058440000B585B003468DF807309DF8073019463A
:105854001048FFF758F80390039B002B15D10E480E
:1058640003F048FB034683F00103DBB2002B0CD0AA
:105874000A490848FFF762F80346002B05D10122C4
:105884000649054803F0CAFA0390039B184605B07D
:105894005DF804FB042F00201C280020EC2E0020BF
:1058A40082B0EFF310830093009B019372B6019BC7
:1058B400184602B0704762B600BF704700B585B0A5
:1058C4000190FFF7EDFF0390164B9B68002B1BD153
:1058D400144B01229A60144BD3F88020134B1340CD
:1058E400104A1360104B114AC3F880200E4BD3F8B2
:1058F40084300C4A53600C4B4FF0FF32C3F88420C1
:10590400019B00221A7002E0019B01221A70039B82
:10591400002B01D1FFF7CFFF0023184605B05DF837
:1059240004FB00BF142F002000E100E0FC06FFBDD3
:1059340000B585B003468DF80730104B9B68002BEB
:1059440016D09DF80730002B12D1FFF7A9FF039062
:105954000B4A0A4B1B681360094A084B5B68536087
:10596400064B00229A60039B002B01D1FFF7A3FF93
:105974000023184605B05DF804FB00BF142F002077
:1059840000E100E000B583B0019000F02BF803467D
:10599400012B03D00549432004F0B6FC0198FFF71E
:1059A4008DFF00BF03B05DF804FB00BF74F9020073
:1059B40000B583B003468DF8073000F013F80346B2
:1059C400012B03D00649512004F09EFC9DF80730BA
:1059D4001846FFF7ADFF00BF03B05DF804FB00BF3E
:1059E40074F9020084B0EFF305830193019BC3F3C0
:1059F40008030393039B002B0DD1EFF3148300934F
:105A0400009B0293029B03F00103002B0CBF0123B4
:105A14000023DBB200E00123184604B0704786B0CF
:105A240001900091019B53E8021F1FFAA1F2D8884C
:105A3400824202BFBFF32F8F00230DE0D8890244B6
:105A44009889824228BF121AC1EA024243E802201E
:105A54000028E8D14FF001038DF80F300590029132
:105A64000492029A009B1A609DF80F30DBB218462C
:105A740006B0704784B00190019951E8023FC3EA2F
:105A8400234341E80232002AF7D10392029300BF74
:105A940004B0704700B583B001900091009B194693
:105AA4000198FFF7BCFF0346002B05D0019B1B6840
:105AB400009A5288134400E00023184603B05DF8AE
:105AC40004FB00B583B001900091009B1A88009BF1
:105AD4005B889A4204D10198FFF7CCFF012300E0D0
:105AE4000023184603B05DF804FB000000B583B042
:105AF40001900B468DF80330019B002B03D108491C
:105B0400AF2004F001FC019BDA689DF80330019991
:105B1400098A01FB03F31344184603B05DF804FB40
:105B2400F0F9020000B583B001900091019B002BB5
:105B340003D10849BC2004F0E7FB009B019AD2681A
:105B44009B1A019A128AB3FBF2F3DBB2184603B034
:105B54005DF804FBF0F9020000B585B00190019BEB
:105B6400002B01D10E2349E0019B1B68002B03D1BC
:105B74002449C62004F0C8FB019B5B68002B03D1B9
:105B84002049C72004F0C0FB019B9B68002B03D174
:105B94001C49C82004F0B8FB019BDB68002B03D12F
:105BA4001849C92004F0B0FB019B1B8A002B03D1C8
:105BB4001449CA2004F0A8FB019B9B681A46019B68
:105BC4005B68D31A8DF80F30019B1B68019A5268E9
:105BD4001A6007E0019B1A681368591C11609DF84C
:105BE4000F201A709DF80F305A1E8DF80F20002BCD
:105BF400F0D1019B1B6800221A710023184605B0DE
:105C04005DF804FBF0F9020000B585B00190019B3A
:105C1400002B03D11F49EC2004F076FB00230393EF
:105C240000238DF80A300DF10A031846FFF7AAFE87
:105C3400019B1B681A68019B5B689A4220D9019BEF
:105C44001B681A68013A1A601B681B781946019888
:105C5400FFF74CFF0390019B9B681A46019B1B684E
:105C64001B68D31A8DF80B30019B1B681B799DF8B8
:105C74000B209A4204D9019B1B689DF80B201A71D2
:105C84009DF80A301846FFF793FE039B184605B0AB
:105C94005DF804FBF0F9020010B584B001900091A6
:105CA400019B002B04D115494FF4887004F02CFBA0
:105CB400009B002B04D1114940F2111004F024FB85
:105CC400009B039300238DF80B300DF10B03184652
:105CD400FFF758FE019B1B681C68621C1A6003993D
:105CE4000198FFF71FFF034623709DF80B301846F9
:105CF400FFF75EFE00BF04B010BD00BFF0F9020064
:105D040000B583B00190019B002B03D10C493120D5
:105D140004F0FAFA019B9B68002B0CD0019B5B6991
:105D2400019A1069019A1168019A92689847019B37
:105D340000229A6000E000BF03B05DF804FB00BFDE
:105D440060FA02000EB400B584B00190019B002BF0
:105D540003D11849422004F0D7FA019B5B69002B58
:105D640003D11449432004F0CFFA019B1B68002B94
:105D740003D11049442004F0C7FA019B5B68002B4F
:105D840003D10C49452004F0BFFA059B002B0AD02F
:105D94000023039306AB039303AB1A4605990198BA
:105DA40000F0B0F900E000BF04B05DF804EB03B00C
:105DB400704700BF60FA020000B583B001900B4643
:105DC4008DF80330019B1A68019B9B68581C01994C
:105DD400886013449DF803201A70019B9A68019B04
:105DE4005B689A4202D30198FFF78AFF00BF03B0B1
:105DF4005DF804FB00B587B0039002910192009313
:105E040000230593009B03F00103002B24D00BE037
:105E1400029B01330293059B013305939DF81330D4
:105E240019460398FFF7C8FF029B1B788DF81330BF
:105E34009DF81330002BEBD106E0019B013B01934D
:105E440020210398FFF7B8FF019A059B9A422ED9A7
:105E5400019B002BF1D12AE0029B002B0BD002986E
:105E640008F074FF059006E0019B013B019320219B
:105E74000398FFF7A1FF019A059B9A420FD9019B52
:105E8400002BF1D10BE0029B01330293059B0133FC
:105E940005939DF8133019460398FFF78DFF029B75
:105EA4001B788DF813309DF81330002BEBD100BF15
:105EB40007B05DF804FB000000B589B003900291BF
:105EC40001920093029B07930123069307E0079A2C
:105ED400019BB2FBF3F30793069B01330693079AE6
:105EE400019B9A42F3D2009A069B9A4201D9009BE5
:105EF40006930B9B03F00103002B22D10A9B002B7A
:105F04001FD00B9B03F00203002B06D0009B002B39
:105F140003D130238DF8173002E020238DF8173099
:105F240008E00A9B013B0A939DF817301946039831
:105F3400FFF742FF0A9B002B03D0069A0A9B9A4262
:105F4400EFD301230793009B012B03D9009B013B53
:105F5400009309E0029A079BB2FBF3F30493049ABB
:105F6400019B9A4200D205E0079B019A02FB03F3CE
:105F74000793E8E7029A079BB2FBF3F30493049BAD
:105F8400079A02FB03F3029AD31A0293154A049B5D
:105F940013441B7819460398FFF70EFF079A019BD9
:105FA400B2FBF3F30793079B002BE3D10B9B03F0A6
:105FB4000103002B11D00A9B002B0ED006E00A9B94
:105FC400013B0A9320210398FFF7F6FE0A9B002B5E
:105FD40003D0069A0A9B9A42F1D300BF09B05DF838
:105FE40004FB00BF34FB020000B589B005900491A6
:105FF40003920293049B002BB8BF5B4206930123D8
:10600400079307E0039B069A92FBF3F30693079B1F
:1060140001330793039B069A9A42F3DA029A079B89
:106024009A4201D9029B07930A9B002B0AD0049B36
:10603400002B04DB0B9B03F00403002B02D00A9B10
:10604400013B0A930B9B03F00203002B02D0029B3B
:10605400002B16D00B9B03F00103002B11D10A9BDC
:10606400002B0ED006E00A9B013B0A9320210598E1
:10607400FFF7A2FE0A9B002B03D0079A0A9B9A42C1
:10608400F1D3049B002B07DA049B5B4204932D217C
:106094000598FFF791FE08E00B9B03F00403002B27
:1060A40003D02B210598FFF787FE0B9B03F0020317
:1060B400002B19D00B9B03F00103002B14D1029B7E
:1060C400002B11D10A9B002B0ED006E00A9B013B4A
:1060D4000A9330210598FFF76FFE0A9B002B03D02B
:1060E400079A0A9B9A42F1D304990B9B01930A9B4A
:1060F4000093029B039A0598FFF7DEFE00BF09B0E8
:106104005DF804FB00B58FB0059004910392059BE4
:10611400002B04D1C8494FF49F7004F0F5F8059B97
:106124005B69002B04D1C4494FF4A07004F0ECF86F
:10613400059B1B68002B04D1BF4940F2411004F0B9
:10614400E3F8059B5B68002B04D1BB494FF4A170B5
:1061540004F0DAF8049B002B00F0ED81049B1B781B
:106164008DF83730049B013304939DF83730002BAE
:1061740000F0D8819DF83730252B40F0C7810023EB
:106184000A9301230C93049B1B788DF837309DF8F8
:1061940037302D2B04D0302B0AD02B2B10D017E006
:1061A4000A9B43F001030A93049B0133049312E016
:1061B4000A9B43F002030A93049B013304930AE00D
:1061C4000A9B43F004030A93049B0133049302E003
:1061D40000230C9300BF0C9B002BD4D10023099304
:1061E4009DF837302A2B0CD1039B1B68191D039A89
:1061F40011601B68099A13440993049B01330493A7
:106204001AE0049B1B788DF837309DF837302F2B1C
:1062140012D99DF83730392B0ED8049B01330493DF
:10622400099A13469B0013445B001A469DF83730C5
:106234001344303B0993D3E700230B93049B1B784F
:106244008DF837309DF837302E2B1DD1049B013348
:106254000493049B1B788DF837309DF837302F2B2F
:1062640012D99DF83730392B0ED8049B013304938F
:106274000B9A13469B0013445B001A469DF8373073
:106284001344303B0B93E4E7049B1B788DF83730C1
:106294009DF837306C2B03D09DF83730682B07D12D
:1062A400049B01330493049B1B788DF83730EFE78C
:1062B4009DF83730253B532B00F2238101A252F87D
:1062C40023F000BFFD6402000765020007650200B9
:1062D4000765020007650200076502000765020002
:1062E40007650200076502000765020007650200F2
:1062F40007650200076502000765020007650200E2
:1063040007650200076502000765020007650200D1
:1063140007650200076502000765020007650200C1
:1063240007650200076502000765020007650200B1
:1063340007650200076502000765020007650200A1
:106344000765020007650200076502000765020091
:106354000765020007650200076502000765020081
:106364000765020007650200076502000765020071
:106374000765020007650200076502000765020061
:106384000765020007650200076502000765020051
:1063940089640200076502000765020007650200C0
:1063A4000765020007650200076502000765020031
:1063B4000765020007650200076502001964020010
:1063C40041640200076502000765020007650200D8
:1063D40007650200416402000765020007650200C8
:1063E40007650200076502000765020007650200F1
:1063F400C96402000765020007650200AD6402007B
:106404000765020065640200076502000765020073
:1064140089640200039B1B68191D039A11601B68A1
:106424000C930C9B8DF823309DF823301946059866
:10643400FFF7C2FC66E000BFC8FA0200039B1B68BA
:10644400191D039A11601B680C930A9B0193099B05
:1064540000930B9B0A220C990598FFF7C5FD51E0A8
:10646400039B1B68191D039A11601B680C930C99FC
:106474000A9B0193099B00930B9B0A220598FFF743
:106484001BFD3FE0039B1B68191D039A11601B68E9
:106494000C930C990A9B0193099B00930B9B10226C
:1064A4000598FFF709FD2DE0039B1B68191D039A4E
:1064B40011601B6807930A9B099A07990598FFF7CF
:1064C40099FC1FE0039B1B68191D039A11601B684C
:1064D4000C9330210598FFF76FFC78210598FFF79E
:1064E4006BFC0C99002301930823009308231022CA
:1064F4000598FFF7E1FC05E025210598FFF75CFC12
:1065040000E000BF049B0133049305E09DF837309D
:1065140019460598FFF750FC049B1B78002B7FF469
:106524001DAE00E000BF059B1B7B002B04D005982B
:10653400FFF7E6FB00E000BF0FB05DF804FB00BF0F
:1065440000B585B00190019B002B03D0019B1B6813
:10655400002B28D10023039319E0039A13469B00D0
:1065640013449B001A46154B13440193019B1B686B
:10657400002B09D0019B1B68DB69019898470346EF
:10658400002B01D0012314E0039B013303930C4A35
:106594000A4BD31A0B4AA2FB03231B09039A9A4200
:1065A400DBD3002305E0019B1B68DB690198984756
:1065B4000346184605B05DF804FB00BFD827002049
:1065C400D8270020CDCCCCCC29DF704700BF18469B
:1065D40028DF704700BF184600B589B001900091CC
:1065E400019B1B689B68002B31D003AB00221A600F
:1065F4005A609A60DA601A61009B0493019B9B685D
:106604000793019B1B79002B02D0012B0AD017E0C2
:1066140001238DF80C30019B1B690593019B5B6979
:1066240006930DE002238DF80C30019BDB684FF4D8
:10663400805202FB03F30593019B5B69069300BF41
:10664400019B1B689B6803AA1046984700E000BFA3
:1066540009B05DF804FB00B587B00190019B5A694D
:10666400019B9B69D31AB3F5805F28BF4FF4805315
:1066740005930422059BB3FBF2F3012B38BF0123DE
:106684000593019B1A69019B9B6913440493019B25
:10669400DB681A46019B9B6913440393059A03998B
:1066A4000498FFF791FF0346184607B05DF804FB12
:1066B40000B583B00190019BDA68019B1B69134408
:1066C4001846FFF785FF0346184603B05DF804FB40
:1066D40008B5034B03491846FFF7F3F900BF08BD9B
:1066E400202F0020482F002008B5084B08491846E1
:1066F400FFF7D0F90246074B1A60064B1B68002BC4
:1067040014BF01230023DBB2184608BD202F00204C
:10671400482F0020442F002000B583B0294B1B7A5A
:10672400002B0BD1FFF7E0FF034683F00103DBB23C
:10673400002B03D0234B00225A6040E0214B02225D
:106744001A72214B1B681B79002B02D0012B07D036
:106754000DE01D4B1B681846FFF77DFF019009E013
:10676400194B1B681846FFF7A3FF019002E00323AF
:10677400019300BF019B002B02D0112B0CD00FE022
:10678400104B1B7C83F00103DBB2002B16D00021DD
:10679400022000F06DF811E00A4B01221A720EE09B
:1067A400094B1B6803211846FFF716FF054B00220F
:1067B4001A72044B00225A6000BF00E000BF03B00D
:1067C4005DF804FB302F0020442F002084B001909A
:1067D4001B4B0022DA60019B1B79002B02D0012B9A
:1067E40019D028E0019B5A69019B9B69D31AB3F520
:1067F400805F28BF4FF480530393019B9A69039BE6
:106804001A44019B9A61019B9A69019B5B699A42B4
:106814000ED1012310E0019B1B695A1C019B1A61D4
:10682400019B1A69019B5B699A4203D1012303E02E
:1068340000BF00E000BF0023184604B0704700BF4B
:10684400302F002082B00190084BDB680133074AE7
:10685400D360064BDB68082B04D9044B0022DA60B2
:10686400012300E00023184602B07047302F0020B7
:1068740000B585B001900091244B1B7A012B33D0D5
:10688400022B00D03FE000238DF80F30019B022B38
:1068940002D0032B09D011E01D4B1B681846FFF7EB
:1068A40095FF03468DF80F3008E0194B1B68184616
:1068B400FFF7C8FF03468DF80F3000BF9DF80F3077
:1068C400002B13D0114B00221A72114B1A68019B32
:1068D400022B01D1002300E00D2319461046FFF7D7
:1068E4007BFEFFF7F5FE01E000BF00E000BF074BB1
:1068F4005B7C83F00103DBB2002B02D0FFF70CFFBB
:1069040001E007F0D3FD05B05DF804FB302F002053
:10691400442F002082B0034600918DF80730064BC7
:1069240001225A74044B1B7A002B0CBF0123002351
:10693400DBB2184602B07047302F002000B583B098
:10694400034600918DF807309DF80730012B03D0E2
:106954009DF80730032B0DD1084B00225A749DF883
:106964000730012B0CBF01230023DAB2034B1A7446
:10697400FFF7D2FE00BF03B05DF804FB302F002008
:1069840010B487B001900091019B009A53E8004F26
:1069940004EB020043E8000191F0000FF6D10594E6
:1069A40004900391049B184607B05DF8044B7047AC
:1069B40010B487B001900091019B009A53E8004FF6
:1069C400A4EB020043E8000191F0000FF6D1059416
:1069D40004900391049B184607B05DF8044B70477C
:1069E40000B583B001900198FFF7B6F80346184646
:1069F40003B05DF804FB00B58BB001900091019BDE
:106A04001B8A043B0793009A079B1344DA1C079BD9
:106A1400B2FBF3F38DF81B300198FFF7F5F80590FE
:106A2400059B002B01D1002338E0059B00221A713D
:106A3400059B01225A71079B9AB2059BDA80059B3C
:106A440009939DF81B30013B0493099B019A1A603A
:106A5400002308931DE00198FFF7D6F80390039BE9
:106A6400002B0ED0059B5B790133DAB2059B5A717A
:106A7400099B039A1A60039B019A1A60039B09936A
:106A840004E0059800F00EF8002307E0089B0133AA
:106A94000893089A049B9A42DDD3059B18460BB0D1
:106AA4005DF804FB00B58BB00190019B0793079B35
:106AB4005B798DF81B30019B08939DF81B30013BDB
:106AC40005930023099305E0089B1B680893099B21
:106AD40001330993099A059B9A42F5D3089B1B68D5
:106AE4000493019B0893002309930BE0089B1B6804
:106AF400039308990498FFF7CFF8039B0893099B25
:106B0400013309939DF81B20099B9A42EED800BFDC
:106B14000BB05DF804FB00B585B00190019B0393B5
:106B2400039B043301211846FFF72AFF00BF05B079
:106B34005DF804FB00B587B00190019B0593059BAC
:106B4400043301211846FFF733FF0346039303ABD5
:106B54000493049B1B78002B02D10198FFF7A2FF3A
:106B640000BF07B05DF804FB00B58DB0039002913F
:106B740001920093039B0693069BDB880593039B7A
:106B84000B93009B1A1D059BB2FBF3F30A93009B26
:106B94000433059AB3FBF2F2059901FB02F29B1A46
:106BA4000993009A019B1A44059B1344DA1C059B24
:106BB400B2FBF3F38DF81330069B5B799DF8132039
:106BC4009A420AD92749BA2003F09EFB05E00B9BA1
:106BD4001B680B930A9B013B0A930A9B002BF6D17B
:106BE40000230893059A099BD31A0793079A019BDC
:106BF400934228BF134607932DE09DF83830002BAD
:106C04000BD0029A089BD0180B9A099B13440433A7
:106C1400079A194608F01AF80AE00B9A099B1344DC
:106C2400181D029A089B1344079A194608F00EF897
:106C3400002309930B9B1B680B93019A079BD31AA0
:106C44000193089A079B13440893059A019B934266
:106C540028BF13460793019B002BCED100BF0DB074
:106C64005DF804FB44FB020000B587B00590049175
:106C74000392029300230093029B039A04990598BC
:106C8400FFF772FF00BF07B05DF804FB00B587B0E3
:106C9400059004910392029301230093029B039AAB
:106CA40004990598FFF760FF00BF07B05DF804FB87
:106CB40000B583B001900091019B002B03D11049D2
:106CC400502003F021FB009B002B03D10C495120E1
:106CD40003F01AFB019B009A1A60019B1B681A6857
:106CE400019B5A60019B5A68019B1B685B689A422E
:106CF40002D1019B00225A6000BF03B05DF804FB7F
:106D0400CCFC020000B583B00190019B002B03D1A1
:106D14001449632003F0F8FA019B1B68002B03D18C
:106D24001049642003F0F0FA019B5B68002B14D037
:106D3400019B5B681A46019B1B689B6813441A46B7
:106D4400019B5A60019B5A68019B1B685B689A42CD
:106D540004D1019B00225A6000E000BF03B05DF83B
:106D640004FB00BFCCFC020000B585B00190019883
:106D740000F00EF80390039B002B01D0039B00E06E
:106D8400024B184605B05DF804FB00BF54FD020039
:106D940086B00190164B0593164B04931FE0049A9A
:106DA400059BD31ADB10DA0F13445B10DB00059A42
:106DB40013440393039B1B680293029A019B9A4218
:106DC40002D9039B04930AE0029A019B9A4203D2DC
:106DD400039B0833059302E0039B5B6804E0059A78
:106DE400049B9A42DBD30023184606B0704700BFC9
:106DF400700003006001030000B583B001900091AE
:106E0400019BDBB21846FEF71BFD019B184603B03D
:106E14005DF804FB82B001900B46ADF80230019B93
:106E24001A68BDF80230012101FA03F31A43019BE9
:106E34001A6000BF02B0704782B001900B46ADF8F3
:106E44000230019B1A68BDF80230012101FA03F3F4
:106E5400DB431A40019B1A6000BF02B0704782B046
:106E640001900B46ADF80230BDF80230012202FA5F
:106E740003F31A46019B1340002B14BF0123002384
:106E8400DBB2184602B0704700B585B0019000230C
:106E9400ADF80E3010E0BDF80E3019460198FFF73A
:106EA400DEFF0346002B02D0BDF80E300AE0BDF829
:106EB4000E300133ADF80E30BDF80E301F2BEAD979
:106EC4004FF6FF73184605B05DF804FB00B587B0B4
:106ED4000590049111461A460B46ADF80E30134640
:106EE4008DF80D30BDF80E209DF80D30009313463B
:106EF40001220499059800F004F800BF07B05DF87A
:106F040004FB00B587B0039002910192ADF8023002
:106F1400039B002B3BD0029B002B38D0019B002B02
:106F240035D0002305932FE0059B5B00039A13449F
:106F34001B88BDF802209A4223D1002304931BE04E
:106F44009DF82030002B0AD0049B9B00029A134426
:106F5400059A92B211461846FFF75CFF09E0049BBC
:106F64009B00029A1344059A92B211461846FFF701
:106F740063FF049B01330493049A019B9A42DFD379
:106F840005E0059B01330593059B1F2BCCD907B066
:106F94005DF804FB00B597B00390029101920023C1
:106FA4000493029B002B1ED00023159318E0159B1D
:106FB4009BB219460198FFF752FF0346002B0CD0F1
:106FC400049B5A1C0492159A520002990A4412888E
:106FD4005B0016A90B4423F8442C159B013315932D
:106FE400159B1F2BE3D9039B184604AB4422194677
:106FF40007F02CFE039817B05DF804FB00B583B0CE
:107004000190019B1B681F2B04D905494FF4E870BC
:1070140003F07AF94FF0A043184603B05DF804FB7F
:107024006001030000B585B00190084611461A4678
:1070340003468DF803300B468DF8023013468DF865
:10704400013001AB1846FFF7D9FF0390019A9DF870
:1070540003109DF802305B0019439DF801309B003A
:1070640019439DF818301B0219439DF81C301B046A
:107074001943039B02F5E07243F8221000BF05B0E8
:107084005DF804FB00B585B0039000230193002351
:1070940000930023012201210398FFF7C3FF00BFDF
:1070A40005B05DF804FB00B585B0019001AB18464E
:1070B400FFF7A4FF0390019B012202FA03F3194690
:1070C400039800F086F800BF05B05DF804FB00B536
:1070D40085B0019001AB1846FFF790FF0390019B28
:1070E400012202FA03F31946039800F07CF800BF6A
:1070F40005B05DF804FB00B585B0019001AB1846FE
:10710400FFF77CFF0390039BD3F804350293029BA3
:10711400DA43019B012101FA03F31A40039BC3F8EC
:107124000825019B01229A40029B1A40039BC3F845
:107134000C2500BF05B05DF804FB00B583B00190D9
:107144000091009B002B03D10198FFF7C0FF02E0E0
:107154000198FFF7A8FF00BF03B05DF804FB00B57A
:1071640085B0019001AB1846FFF748FF03900398E0
:1071740000F01FF80246019B22FA03F303F0010317
:10718400184605B05DF804FB00B585B0019001AB6D
:107194001846FFF733FF0390039800F012F80246F5
:1071A400019B22FA03F303F00103184605B05DF8CE
:1071B40004FB82B00190019BD3F81035184602B04D
:1071C400704782B00190019BD3F80435184602B091
:1071D400704782B001900091019B009AC3F8082582
:1071E40000BF02B0704782B001900091019B009AE9
:1071F400C3F80C2500BF02B07047000000B585B08D
:107204000190019B032B03D91149372003F07CF82B
:10721400104A019B13441B781846FFF7B5FF034639
:10722400002B14BF012300238DF80F309DF80F307D
:10723400002B14BF01230023DBB283F00103DBB274
:1072440003F00103DBB2184605B05DF804FB00BF90
:1072540098010300FC01030000B583B00190019B79
:10726400032B03D907493E2003F04EF8064A019B3D
:1072740013441B7800211846FFF75FFF00BF03B0DB
:107284005DF804FB98010300FC01030000B583B022
:107294000190019B032B03D90749442003F034F8E0
:1072A400064A019B13441B7801211846FFF745FF4A
:1072B40000BF03B05DF804FB98010300FC01030068
:1072C40000B583B00023019305E00198FFF7DEFFCA
:1072D400019B01330193019B032BF6D900BF03B03B
:1072E4005DF804FB00B583B00023019305E0019829
:1072F400FFF7B2FF019B01330193019B032BF6D9E6
:1073040000BF03B05DF804FB00B583B00190019B9E
:10731400032B03D907495C2002F0F6FF064A019BC0
:1073240013441B781846FFF7E6FE00BF03B05DF870
:1073340004FB00BF98010300FC01030000B583B007
:107344000023019309E0094A019B13441B78184662
:10735400FFF798FE019B01330193019B032BF2D9A4
:10736400FFF7AEFF00BF03B05DF804FBFC010300B0
:1073740000B585B00190019B032B03D911498320EB
:1073840002F0C2FF104A019B13441B781846FFF712
:10739400E6FE0346002B14BF012300238DF80F30B3
:1073A4009DF80F30002B14BF01230023DBB283F0C0
:1073B4000103DBB203F00103DBB2184605B05DF84C
:1073C40004FB00BF980103000002030084B0019095
:1073D4004FF0FF330293002303930DE00A4A039B0B
:1073E40013441B781A46019B9A4202D1039B0293D1
:1073F40005E0039B01330393039B032BEED9029B0C
:10740400184604B0704700BF0002030000B583B003
:107414000190019B032B03D90549A22002F074FFBC
:10742400044A019B13441B78184603B05DF804FB1F
:10743400980103000002030082B003468DF8073070
:1074440008499DF907305B099DF8072002F01F02E7
:10745400012000FA02F2203341F8232000BF02B0D9
:10746400704700BF00E100E082B001904FF080421D
:10747400019BC2F8083300BF02B0704782B00346D4
:107484008DF807309DF8073003F1804301221A601C
:1074940000BF02B0704784B00346ADF80630BDF8B3
:1074A400063003F1804300221A60BDF8063003F170
:1074B40080431B680393039B00BF04B0704782B0F2
:1074C4000346ADF80630BDF8063003F180431B686F
:1074D400002B14BF01230023DBB2184602B070470F
:1074E40082B003468DF807304FF080429DF8073094
:1074F40003F00303C2F8183500BF02B070474FF021
:107504008043D3F818341B0C03F00103002B14BF81
:1075140001230023DBB218467047000082B0034603
:107524008DF807300A4A9DF907305B0952F8232089
:107534009DF8073003F01F03012101FA03F3134000
:10754400002B14BF01230023DBB2184602B070479E
:1075540000E100E008B50020FFF7E0FF034683F0F8
:107564000103DBB2002B03D00721002000F096F9C1
:1075740000BF08BD08B506F0B5FF034683F001035C
:10758400DBB2002B03D10949842002F0BDFE0C209C
:10759400FFF774FF00BFFFF7B2FF0346002BFAD1D9
:1075A400034B00229A7000BF08BD00BF0C02030009
:1075B4004C2F002000B583B000230193134B1B789C
:1075C400002B02D0852301931BE0104B00229A600C
:1075D4000E4B00225A600D4B00221A610B4B002205
:1075E400DA60FFF7B7FF06F07DFF034683F001037F
:1075F400DBB2002B02D00120FFF772FF034B012204
:107604001A70019B184603B05DF804FB4C2F002050
:1076140084B00190019B1B680393039B002B03D050
:10762400039B1A68019B1A60039B184604B07047B9
:1076340000B583B0164B1B78002B04D115494FF4C9
:107644008E7002F061FE124BDB68002B04D11149ED
:1076540040F21D1002F058FE00238DF807300DF1A2
:1076640007031846FEF78EF9094BDB68013B084A0D
:10767400D360074BDB68002B01D1FFF77BFF9DF83C
:1076840007301846FEF794F900BF03B05DF804FB19
:107694004C2F00200C02030000B585B003468DF882
:1076A40007309DF80730002B02D10C4B039301E007
:1076B4000B4B03930398FFF7ABFF0290029B002B45
:1076C40006D0029B5B689DF8072010469847F1E7B7
:1076D40000BF00BF05B05DF804FB00BF542F0020BD
:1076E4005C2F002008B54FF48070FFF7E8FE0346D6
:1076F400002B0CD04FF48070FFF7CDFE0120FFF774
:10770400B3FE0E4B01225A700020FFF7C5FF4FF461
:107714008270FFF7D4FE0346002B0CD04FF4827026
:10772400FFF7B9FE0220FFF79FFE044B01229A7077
:107734000120FFF7B1FF00BF08BD00BF4C2F0020A0
:1077440000B583B001900091019B002B02D1002071
:10775400FFF7A2FF00BF03B05DF804FB00B585B0DE
:10776400034600918DF807309DF80730012B08D0AF
:10777400032B25D0002B00D032E00020FFF75CFE65
:107784002EE000238DF80F300DF10F031846FEF79D
:10779400F9F8154B1B7883F00103DBB2002B01D001
:1077A400FFF708FF104BDB6801330F4AD3600E4B21
:1077B40001229A709DF80F301846FEF7F9F80FE091
:1077C400094B1B78002B04D1084940F25B2002F0DE
:1077D4009BFD0721002000F061F8FFF729FF00BF9F
:1077E40000BF05B05DF804FB4C2F00200C02030021
:1077F40082B003468DF8073007499DF907305B09CD
:107804009DF8072002F01F02012000FA02F241F85D
:10781400232000BF02B0704700E100E082B00346BD
:107824008DF8073008499DF907305B099DF807205A
:1078340002F01F02012000FA02F2603341F8232013
:1078440000BF02B0704700BF00E100E082B0034611
:1078540000918DF807309DF90730002B0CDA0D49A3
:107864009DF8073003F00F03043B009AD2B2520193
:10787400D2B20B441A7609E007499DF90730009A01
:10788400D2B25201D2B20B4483F8002300BF02B03B
:10789400704700BF00ED00E000E100E000B583B0F8
:1078A40003460A468DF8073013468DF806309DF8D6
:1078B4000630012B03D99DF80630032B0CD99DF813
:1078C4000630042B03D99DF80630072B04D90D4943
:1078D4004FF4927002F018FD9DF806209DF90730D0
:1078E40011461846FFF7B2FF9DF907301846FFF717
:1078F40095FF9DF907301846FFF77AFF00BF03B0E4
:107904005DF804FB8002030000B583B00346ADF8C4
:107914000630BDF80630184600F026F803461B680A
:10792400012B0CBF01230023DBB2184603B05DF822
:1079340004FB00B585B00346ADF80630BDF806304B
:10794400184600F011F803461A4600231360BDF8E8
:107954000630184600F008F803461B680393039B9F
:1079640000BF05B05DF804FB82B00346ADF80630F5
:10797400BDF8063003F1804303F5C043184602B056
:107984007047000082B00190034A019BC2F804339F
:1079940000BF02B0704700BF0060004082B0019099
:1079A400034BD3F80423019B1340184602B07047DD
:1079B4000060004082B001900849084A019B03F529
:1079C400A27352F8233043F00102019B03F5A27322
:1079D40041F8232000BF02B0704700BF00600040A0
:1079E40084B00390029113468DF807301449144A69
:1079F400039B03F5A27352F8233023F4473323F493
:107A04004073039A02F5A27241F822300C480C4AE2
:107A1400039B03F5A27352F82320029B1B0203F479
:107A2400F8519DF807301B0403F440330B431A4309
:107A3400039B03F5A27340F8232000BF04B07047F2
:107A44000060004082B00190054A019B03F5A273D7
:107A540052F823301B0A03F01F03184602B0704784
:107A64000060004082B00190064A019B03F5A273B6
:107A740052F823301B0C03F00303DBB2184602B0A8
:107A8400704700BF0060004000B583B00190019BC7
:107A94001B681F2B04D905494FF4E87002F034FC2D
:107AA4004FF0A043184603B05DF804FBF80203004E
:107AB40000B585B00190084611461A4603468DF874
:107AC40003300B468DF8023013468DF8013001ABBC
:107AD4001846FFF7D9FF0390019A9DF803109DF80B
:107AE40002305B0019439DF801309B0019439DF857
:107AF40018301B0219439DF81C301B041943039BC7
:107B040002F5E07243F8221000BF05B05DF804FBF3
:107B140000B585B003900B468DF80B309DF80B2013
:107B240000230193002300931346002200210398AD
:107B3400FFF7BEFF00BF05B05DF804FB00B585B0DC
:107B4400019001AB1846FFF79FFF0390019A039B36
:107B540002F5E07253F8223023F002030293019AF3
:107B6400039B02F5E072029943F8221000BF05B0AE
:107B74005DF804FB00B585B001900B468DF8033029
:107B840001AB1846FFF780FF0390019A0199039B0C
:107B940001F5E07153F8213023F44031039B02F5E1
:107BA400E07243F82210019A0199039B01F5E071F8
:107BB40053F821309DF8031009041943039B02F57F
:107BC400E07243F8221000BF05B05DF804FB00B575
:107BD40085B0019001AB1846FFF756FF0390039858
:107BE40000F020F80246019B22FA03F303F001039C
:107BF400184605B05DF804FB00B585B0019001ABF3
:107C04001846FFF741FF0390019A039B02F5E072C7
:107C140053F822301B0C03F00303DBB2184605B003
:107C24005DF804FB82B00190019BD3F8103518462F
:107C340002B0704700B587B00390029101924FF0F3
:107C4400A0430493039A029B1344012B04D91249C1
:107C54004FF43A7002F058FB039B059311E0059B27
:107C64009B0006AA134453F8083C1846FFF7DAFFB2
:107C74000246019B1A60019B04330193059B013367
:107C84000593039A029B1A44059B9A42E7D800BFC6
:107C940007B05DF804FB00BFF802030084B0019054
:107CA4000091009B0393019BDB080293019B03F06B
:107CB400070301930122019B02FA03F30399029A39
:107CC4000A4412781340184604B0704784B00190F7
:107CD4000091009B0393019BDB080293019B03F03B
:107CE40007030193039A029B13440399029A0A44DB
:107CF400127851B20120019A00FA02F252B20A43F8
:107D040052B2D2B21A7000BF04B0704782B0019070
:107D14000C4A019B1344303393F90030002B09DBE8
:107D2400084A019B1344303393F90030072B01DCDC
:107D3400012300E0002303F00103DBB2184602B084
:107D4400704700BF602F002082B00190064A019B5B
:107D54001344303393F90030072BCCBF01230023A5
:107D6400DBB2184602B07047602F002082B0019049
:107D7400064A019B1344303393F90030DB43DBB2F2
:107D8400DB09DBB2184602B0704700BF602F002049
:107D940084B00390029101928DF80330029B59B292
:107DA4000E4A039B134430330A461A700B49029B54
:107DB400019A41F823209DF8033083F00103DBB2DC
:107DC400002B08D0029B083B039A51B2034A134488
:107DD4000A4683F8502000BF04B07047602F00208B
:107DE40082B00190044A019B13443033FF221A707D
:107DF40000BF02B0704700BF602F002082B0019026
:107E0400044A019B1344303393F90030184602B0FE
:107E1400704700BF602F002082B00190034A019B8D
:107E240052F82330184602B0704700BF602F00207C
:107E340000B589B00390029113468DF80730FF23F3
:107E44008DF81F309DF80730002B01D0002300E08F
:107E5400082305939DF80730002B01D0082300E088
:107E64000C230493059B069314E00F4A069B52F8D7
:107E74002330B3F1FF3F0AD19DF80730029A0699E7
:107E84000398FFF785FF069B8DF81F3006E0069BDD
:107E940001330693069A049B9A42E6D39DF91F3058
:107EA400184609B05DF804FB602F002082B0034639
:107EB4008DF807309DF80730094A4FF0FF3142F83A
:107EC40023109DF80730072B07D99DF80730083B8E
:107ED400034A1344FF2283F8502000BF02B07047C6
:107EE400602F002000B583B0214B93F85430002B51
:107EF40003D008230093009B36E000238DF807305D
:107F040009E09DF807301846FFF76AFF9DF807302F
:107F140001338DF807309DF807301F2BF1D900236A
:107F24008DF8073009E09DF807301846FFF7BEFFCB
:107F34009DF8073001338DF807309DF807300B2B7F
:107F4400F1D907210620FFF7A9FC4FF4BE70FFF713
:107F5400F0FC4FF00040FFF715FD054B012283F8BC
:107F6400542000230093009B184603B05DF804FBE3
:107F7400602F0020044B93F85430002B14BF0123CE
:107F84000023DBB218467047602F002000B587B08D
:107F9400039002910192039B1F2B04D92B4940F2B9
:107FA400F71002F0B1F9002305930398FFF7DEFE02
:107FB4000346002B02D00823059341E0029BDB78A3
:107FC4001A4601990398FFF733FF03468DF81330DF
:107FD4009DF91330B3F1FF3F30D0029B9B78002B07
:107FE40003D00398FFF7AAFD05E0029B5B781946CE
:107FF4000398FFF78DFD029BDB78002B08D09DF9D9
:108004001300029B1B781A460399FFF7E9FC17E05B
:108014009DF91330083B9DF91320083A0C490A4492
:1080240092F95010029A1278920152B20A4351B254
:10803400074A13440A4683F8502001E004230593B9
:10804400059B184607B05DF804FB00BF3803030026
:10805400602F002000B587B001900B468DF80330E7
:10806400019B1F2B04D93D4940F2252002F04CF915
:108074000198FFF77BFE0346002B04D1374940F2F9
:10808400262002F041F90198FFF75EFE0346002B1B
:108094002FD00198FFF7B2FE0346083B304A134441
:1080A40093F950308DF816309DF816309B098DF8F1
:1080B40015309DF81530032B0BD10198FFF787FD80
:1080C4000346002B01D0032300E002238DF8173070
:1080D40008E09DF81530012B01D1022300E00323B1
:1080E4008DF817309DF8173019460198FFF742FDB7
:1080F40030E00198FFF70AFE0346002B2AD00198CE
:10810400FFF77CFE03460493049B9BB240339BB26F
:108114009B00ADF80E30049B1846FFF74BFCBDF8EE
:108124000E301846FFF705FC9DF80330002B11D0E4
:108134000198FFF763FE03461846FFF76DFE0290B1
:10814400029B002B06D00122049B02FA03F318467B
:10815400FFF718FC00BF07B05DF804FB3803030009
:10816400602F002000B583B00190019B1F2B04D920
:10817400084940F2722002F0C7F80198FFF727FD82
:108184000346002B14BF01230023DBB2184603B0BF
:108194005DF804FB3803030000B595B00023139386
:1081A400002303934FF48073ADF8463001231093FA
:1081B4000023129321E0BDF846301846FFF7A4FBD4
:1081C4000346002B0ED01098FFF7E8FB0346002B64
:1081D40008D0BDF846301846FFF7ABFB139A109B46
:1081E40013431393109B5B001093BDF84630043384
:1081F400ADF84630129B01331293129B072BDAD948
:108204004FF4BE70FFF780FB0346002B0DD04FF4F4
:10821400BE70FFF78EFB139B43F00043139303AB35
:108224001A4601210020FFF705FD139BDBB2002B4A
:1082340029D0012310930023129321E0109A139B59
:108244001340002B16D01298FFF7FCFB0D901298E8
:10825400FFF708FC03468DF833301298FFF7DCFD76
:108264000B900B9B002B05D09DF833200B9B1146E4
:108274000D989847109B5B001093129B0133129347
:10828400129B072BDAD9139B002B80F2EE8000237C
:108294008DF83B300023029300230F930AE00F9BD9
:1082A4009B0014AA13444FF0FF3243F84C2C0F9B4D
:1082B40001330F930F9B002BF1D000238DF83B303B
:1082C4000023129378E06B4A129B1344503393F9C2
:1082D40000308DF82B309DF82B3023F0C003099328
:1082E400644A129B1344503393F90030B3F1FF3FB7
:1082F4005FD001AB19460998FFF7D0FC0346002B69
:1083040057D09DF82B309B098DF823300998FFF73F
:1083140075FD03461846FFF77FFD0790079B002B6A
:1083240003D19DF82330032B43D19DF82330032B35
:1083340004D102AB19460998FFF7C8FC0998FFF766
:108344005BFC03468DF81B3003AB19460998FFF715
:10835400A5FC0590059B002B03D09DF81B30022B38
:1083640006D0059B002B24D19DF81B30032B20D174
:108374009DF82330032B13D19DF81B30022B01D120
:10838400032300E002238DF813309DF813301946BF
:108394000998FFF7EFFB9DF83B3001338DF83B3034
:1083A400079B002B05D09DF82320079B11460998B5
:1083B4009847129B01331293129B032B83D99DF888
:1083C4003B30002B4CD001238DF83A306B461A46D3
:1083D40001210020FFF72EFC00230F9314E00F9BD4
:1083E4009B0014AA134453F8502C0F9B9B0014A910
:1083F4000B4453F8443C9A4203D000238DF83A309E
:1084040005E00F9B01330F930F9B002BE7D09DF8E2
:108414003A30002B03D000238DF83B3020E00023BA
:108424000F931AE00F9B9B0014AA134453F8502C8B
:108434000F9B9B0014A90B4443F8442C0F9B9B00F7
:1084440014AA134453F8482C0F9B9B0014A90B4403
:1084540043F84C2C0F9B01330F930F9B002BE1D05F
:108464009DF83B30002B7FF428AF00BF15B05DF8BA
:1084740004FB00BF602F002084B001900B46ADF8D0
:108484000230BDF80230019A134400221A60BDF88C
:108494000230019A13441B680393039B00BF04B08A
:1084A400704782B001900B46ADF80230BDF802303F
:1084B400019A13441B68002B14BF01230023DBB271
:1084C400184602B0704782B001900091019B009A57
:1084D400C3F8042300BF02B0704782B0019000913A
:1084E400019BD3F80423009B1340002B14BF0123EA
:1084F4000023DBB2184602B0704782B001900091AD
:10850400019B009AC3F8082300BF02B0704784B0EF
:108514000190019BD3F880340393019B039AC3F821
:108524008024039B184604B0704782B00190019BDD
:108534000422C3F8002500BF02B0704784B0039042
:1085440002910192039B019AC3F81425039B029A9A
:10855400C3F80C2500BF04B0704784B003900291A7
:108564000192039B029AC3F80825039B019AC3F85E
:10857400102500BF04B0704782B00190019BD3F86E
:108584001835DBB2184602B0704782B001900B4632
:108594008DF803309DF80320019BC3F81C2500BF10
:1085A40002B0704782B001900B468DF803309DF8FD
:1085B4000330019A134401221A6000BF02B07047CD
:1085C40082B001900B468DF8033013468DF80230CB
:1085D4009DF803209DF802301343DBB21A46019B39
:1085E400C3F86C2500BF02B0704782B001900091BF
:1085F400019B009AC3F8242500BF02B0704784B0E1
:1086040001900B46ADF80230BDF80230019A1344D4
:1086140000221A60BDF80230019A13441B680393C8
:10862400039B00BF04B0704782B001900B46ADF8C5
:108634000230BDF80230019A13441B68002B14BFAA
:1086440001230023DBB2184602B0704782B00190C8
:108654000091019BD3F80022009B1A43019BC3F8AD
:10866400002200BF02B0704782B001900091019BCC
:10867400D3F80022009BDB431A40019BC3F800227D
:1086840000BF02B0704782B001900091019B009A34
:10869400C3F8042300BF02B0704782B00190009178
:1086A400019B009AC3F8082300BF02B0704784B04E
:1086B4000190019BD3F880340393019B039AC3F880
:1086C4008024039B184604B0704782B00190019B3C
:1086D4000822C3F8002500BF02B0704784B003909D
:1086E40002910192039B029AC3F80C25039B019A01
:1086F400C3F8142500BF04B0704784B003900291FE
:108704000192039B029AC3F80825039B019AC3F8BC
:10871400102500BF04B0704782B001900B468DF85D
:1087240003309DF80330019A134401221A6000BFFC
:1087340002B0704782B001900B468DF803301346A7
:108744008DF802309DF803209DF802301343DBB20C
:108754001A46019BC3F86C2500BF02B0704782B073
:1087640001900091019B009AC3F8242500BF02B038
:10877400704784B00390029113468DF80730029A33
:10878400039BC3F844259DF80720039BC3F84825A1
:1087940000BF04B0704782B00190019BD3F84C3500
:1087A400184602B0704784B00390029113468DF8C6
:1087B4000730029A039BC3F834259DF80720039BD6
:1087C400C3F8382500BF04B0704782B00190019B04
:1087D400D3F83C35184602B0704784B00190019B31
:1087E4001B0B8DF80F309DF90F30184604B07047FD
:1087F40082B00190019B03F06043B3F1005F0CBFB2
:1088040001230023DBB2184602B0704700B583B0E1
:108814000190019B1B681F2B04D905494FF4E87094
:1088240001F072FD4FF0A043184603B05DF804FB5D
:10883400B003030000B585B00190084611461A46FE
:1088440003468DF803300B468DF8023013468DF83D
:10885400013001AB1846FFF7D9FF0390019A9DF848
:1088640003109DF802305B0019439DF801309B0012
:1088740019439DF818301B0219439DF81C301B0442
:108884001943039B02F5E07243F8221000BF05B0C0
:108894005DF804FB00B585B0039000230193002329
:1088A40000930023012201210398FFF7C3FF00BFB7
:1088B40005B05DF804FB00B585B003900B468DF858
:1088C4000B309DF80B2000230193002300931346E3
:1088D400002200210398FFF7ADFF00BF05B05DF84B
:1088E40004FB00B585B0019001AB1846FFF78EFF7D
:1088F4000390019B012202FA03F31946039800F046
:1089040004F800BF05B05DF804FB82B0019000914B
:10891400019B009AC3F8082500BF02B0704700000D
:1089240000B583B001900091009B1B68B3F1FF3F39
:1089340009D0009B1B681846FFF7D3FF009B1B68F8
:108944001846FFF7A7FF009B5B68B3F1FF3F05D014
:10895400009B5B6800211846FFF7ADFF019B1B7964
:10896400464A5B0113441C331B78002B41D0019B06
:108974001A68009B9B6919461046FFF7F0FE019B9D
:108984001868009B597D009B1B7D1A46FFF7D2FE99
:10899400019B1868009B1968009B5B681A46FFF7E7
:1089A4009DFE009B1B7D012B64D1009B9B68B3F152
:1089B400FF3F05D0009B9B6800211846FFF77BFF13
:1089C400009BDB68B3F1FF3F09D0009BDB681846CE
:1089D400FFF787FF009BDB681846FFF75BFF019BEF
:1089E4001868009BD968009B9B681A46FFF785FEB0
:1089F40040E0019B1A68009B9B6919461046FFF7EB
:108A0400F4FD019B1868009B597D009B1B7D1A4651
:108A1400FFF7D6FD019B1868009B1968009B5B68F3
:108A24001A46FFF78BFD009B1B7D012B22D1009B77
:108A34009B68B3F1FF3F05D0009B9B68002118465B
:108A4400FFF739FF009BDB68B3F1FF3F09D0009BC0
:108A5400DB681846FFF745FF009BDB681846FFF705
:108A640019FF019B1868009BD968009B9B681A46F4
:108A7400FFF773FD00BF03B05DF804FBB82F0020BF
:108A840000B583B001900B468DF80330019B1B7930
:108A94002D4A5B0113441C331B78002B2FD0019B00
:108AA4001B684FF488711846FFF7A9FD019B1B68EA
:108AB4004FF490711846FFF7A2FD019B1B684FF419
:108AC40092711846FFF79BFD019B1B684FF4A2713E
