:020000022000DC
:10300000000001203D32020095320200973202009A
:10301000993202009B3202009D3202000000000043
:103020000000000000000000000000009F320200CD
:10303000A132020000000000A3320200A53202000B
:1030400011420200AB320200894F0200AF3202008F
:10305000B1320200B3320200D9460200B732020098
:10306000B9320200BB320200BD320200BF320200A0
:10307000C1320200C3320200C5320200C732020070
:10308000C9320200B53C0200CD320200CF3202004C
:10309000F53C0200D332020019670200D732020069
:1030A000D9320200DB320200DD320200DF320200E0
:1030B000E1320200E3320200A7320200A73202002E
:1030C000E5320200E7320200E9320200EB32020090
:0C30D000ED320200EF320200F13202008B
:1030DC00364937480A1A02D0072291438D463549A2
:1030EC0035480A1A06D00722914381F30988022237
:1030FC0082F3148831483249324A00F045F832489C
:10310C003249334A00F040F832483349334A00F030
:10311C003BF833483349344A00F036F833483449E5
:10312C00344A00F031F834483449354A00F02CF870
:10313C0034483549354A00F027F8354835490022DE
:10314C0000F02DF834483549002200F028F83448B6
:10315C003449091A082903DB00220260043001609B
:10316C00314A90471F482049884205D002680430F4
:10317C0003B4904703BCF7E700208646EC460020DA
:10318C0000212A4A9047FEE7884207D0521A05D000
:10319C00037801300B700131013AF9D17047884244
:1031AC0002D002700130FAE77047000000000120E5
:1031BC0000F800200000012000000120D06F020068
:1031CC003017002038170020F4320200F4320200CD
:1031DC00806A0200D06F02003017002030170020E8
:1031EC00A06A0200A06A0200A06A0200A06A0200A3
:1031FC00A06A0200A06A0200A06A0200A06A020093
:10320C00D06F0200D86F020038170020381700204A
:10321C00381700202319002024190020241900201D
:10322C0024190020241B0020613202005D51020091
:10323C000F484FF00701884385460E4880470E48DB
:10324C00016841F470010160BFF34F8FBFF36F8FC2
:10325C00FFF73EBF09480A490A4A884207D0521A6A
:10326C0005D0037801300B700131013AF9D1704768
:10327C0000000120315D020088ED00E0A06A020030
:10328C003017002030170020FEE7FEE7FEE7FEE7D0
:10329C00FEE7FEE7FEE7FEE7FEE7FEE7FEE7FEE7FA
:1032AC00FEE7FEE7FEE7FEE7FEE7FEE7FEE7FEE7EA
:1032BC00FEE7FEE7FEE7FEE7FEE7FEE7FEE7FEE7DA
:1032CC00FEE7FEE7FEE7FEE7FEE7FEE7FEE7FEE7CA
:1032DC00FEE7FEE7FEE7FEE7FEE7FEE7FEE7FEE7BA
:0832EC00FEE7FEE7FEE700BF6C
:1032F40000B589B0039002910192029B9BB2ADF894
:103304001430019B0693039B079305AB1A460021D7
:1033140044F2010000F050F800BF09B05DF804FB6E
:1033240086B003900291019201238DF817309DF825
:103334001730204A039B13601E4A029B53601D4AA8
:10334400019B9360039B44F20102934212D044F226
:103354000202934222D1019B164AD360154BDB68CB
:103364001B881A46134B9A61124BDB685B68114A3F
:10337400D36113E0019B0F4A13610E4B1B699B68D9
:103384000C4A53610B4B1B691B881A46094B9A6103
:10339400084B1B695B68074AD36100BF72B600BF64
:1033A4009DF81730DBB2002BFAD162B600BF06B02D
:1033B400704700BF3817002000B587B00390029112
:1033C4000192039B41F20102934215D041F20102A2
:1033D400934202D8012B11D011E044F2010293422E
:1033E40007D044F20202934200D008E0019B059307
:1033F40005E0019B049302E000BF00E000BF084B1E
:103404001B6803F00103002B00D0FFDE019A029930
:103414000398FFF785FF00BF07B05DF804FB00BF0A
:10342400F0ED00E082B003468DF8073007499DF9BE
:1034340007305B099DF8072002F01F02012000FA03
:1034440002F241F8232000BF02B0704700E100E01F
:1034540082B003468DF8073008499DF907305B09AF
:103464009DF8072002F01F02012000FA02F2203327
:1034740041F8232000BF02B0704700BF00E100E024
:1034840082B003468DF8073008499DF907305B097F
:103494009DF8072002F01F02012000FA02F24033D7
:1034A40041F8232000BF02B0704700BF00E100E0F4
:1034B40082B003468DF8073008499DF907305B094F
:1034C4009DF8072002F01F02012000FA02F2603387
:1034D40041F8232000BF02B0704700BF00E100E0C4
:1034E40084B00190244B0393019B002B40D0234BC9
:1034F4001A680399019B00BF00BF00BF00BF00BF53
:1035040000BF00BF00BF8A422FD000BF00BF00BF72
:1035140000BF00BF00BF00BF00BF00BF00BF00BFAF
:1035240000BF00BF00BF00BF00BF00BF00BF00BF9F
:1035340000BF00BF00BF00BF00BF00BF00BF00BF8F
:1035440000BF00BF00BF00BF00BF00BF00BF00BF7F
:1035540000BF00BF00BF00BF00BF00BF00BF00BF6F
:1035640000BF00BF00BF00BF00BF013BC3D1019338
:1035740000BF04B0704700BF0024F40034170020DB
:1035840008B50D4B4FF48032C3F844230A4B4FF473
:103594008032C3F804231120FFF78AFF1120FFF7BC
:1035A40041FF054B01221A602F20FFF799FF034BBF
:1035B40001221A7000BF08BD0010014076180020D7
:1035C40008B51120FFF744FF0E4B4FF48032C3F8C7
:1035D40048230C4B4FF48032C3F80823094B0122D3
:1035E4005A602F20FFF77CFF064B01229A60064B9E
:1035F40000221A602F20FFF773FF044B00221A7079
:1036040000BF08BD00100140681800207618002093
:10361400024BD3F804351846704700BF0010014030
:1036240082B001900091019A009BD31A23F07F434A
:10363400184602B07047000082B00190034A019B13
:10364400C2F8403500BF02B0704700BF001001400F
:1036540086B00190284B1B68002B03D1264A019B9E
:10366400136045E0019B1A68234B1B681B689A4250
:1036740010D8214B1B68204A12681168019A1268FD
:103684008A1A1A601C4B1A68019BDA611A4A019B58
:1036940013602DE0019B1B680393174B1B68059374
:1036A400154B1B68049309E0049B1B68039AD31A07
:1036B4000393049B0593049BDB690493049B002BF5
:1036C40004D0049B1A68039B9A42EDD3049B002BFD
:1036D40005D0049B1A68039BD21A049B1A60019BB1
:1036E400039A1A60019B049ADA61059B019ADA61D4
:1036F40000BF06B0704700BF6418002000B587B053
:1037040001902A4B1B680393284B1B680593059B68
:10371400049308E0049A019B9A4208D0049B059301
:10372400049BDB690493049B002BF3D100E000BFEE
:10373400049B002B01D1002333E0059A049B9A4299
:1037440014D11A4B1B68DB69184A1360174B1B68AA
:10375400002B0BD1164B01229A60164B00221A60E3
:10376400154B01221A702F20FFF7BAFE049B1B6829
:103774000293049BDA69059BDA61059BDB69049378
:10378400049B002B05D0049B1A68029B1A44049BDB
:103794001A60064B1B68039A9A4214BF0123002344
:1037A400DBB2184607B05DF804FB00BF64180020C4
:1037B40000100140681800207718002008B5112077
:1037C400FFF75EFE00BF08BD08B51420FFF758FEE2
:1037D40000BF08BD00B583B00190019B5B69019AED
:1037E40092691046984700BF03B05DF804FB0000DF
:1037F40000B585B02B4B1B68002B4ED000230193E2
:10380400FFF706FF0246284B1B6819461046FFF7D0
:1038140007FF0290234B1B6803931DE0039B1A6868
:10382400029B9A421CD8039B1B68029AD31A0293E8
:10383400039B1B68019A13440193039B0093039B0E
:10384400DB690393009B1B7C002B05D0009B0022AB
:103854001A740098FFF7BEFF039B002BDED100E033
:1038640000BF124B1A78124B1B789A420CD1104BA2
:103874001B780133DAB20E4B1A700D4B1B78022BF6
:1038840002D10B4B00221A70094B1B781946094AC6
:10389400019B42F82130FFF797FF00BF05B05DF8A8
:1038A40004FB00BF6418002068180020741800206E
:1038B400751800206C18002082B00190184B1A78FB
:1038C400184B1B789A4223D0154B1B780133DAB27C
:1038D400134B1A70124B1B78022B02D1104B00228F
:1038E4001A700F4B1B781A460F4B53F82220019B7A
:1038F4001A60019B1A680D4B1B6813440B4A136032
:103904000A4B1B6823F07F43084A1360012303E03A
:10391400019B00221A600023184602B0704700BFC2
:1039240074180020751800206C18002068180020F6
:1039340088B00390029101920023079338E0204B52
:103944001B680693069B1A68039B9A4206D9069B3A
:103954001A68039BD21A069B1A602DE0069B1B680B
:10396400039AD31A0393069B1B68079A134407937D
:10397400069B00221A60124B1B680593069BDB69A9
:103984000F4A1360069BDB68002B11D0029A079B39
:10399400134423F07F42069B5A60069BDA68069B19
:1039A4009A60019B1A68069BDA61019B059A1A606A
:1039B400034B1B68002BC2D100BF08B0704700BF87
:1039C4006418002000B589B0019000238DF81F30E1
:1039D400664B1B680593AAE0019B002B05D0019B55
:1039E4000693069BDB69019361E0614B1B781A46E1
:1039F40013465B001344DB005D4A13440433049311
:103A04005B4B1B780133DAB2594B1A70584B1A7856
:103A1400574B9B789A4202D1554B00221A70049B53
:103A24005B680693049B1B78022B04D0032B1BD0EA
:103A3400012B1FD01DE0049B5B681846FFF75EFE58
:103A44000346002B02D001238DF81F30069B002271
:103A54001A746CE0454B1B680393039B00221A7491
:103A6400039BDB69414A1360404B1B68002BF1D177
:103A74005DE05CE000BF069B1B7C002B00D056E0A1
:103A8400049B9A68069B5A60049BDA68069B9A60BA
:103A9400049B1A69069BDA60049B5A69069B9A6127
:103AA400344B1B78002B02D0069B00225A60069BE5
:103AB4005A68314B1B68D31A23F07F432F4A934231
:103AC4000ED8069B5A682C4B1B6819461046FFF704
:103AD400A7FD0246069B9B681A44069B1A6017E0E2
:103AE400254B1A68069B5B6819461046FFF798FD3C
:103AF4000290069B9A68029B9A4206D9069B9A6892
:103B0400029BD21A069B1A6002E0069B00221A60EE
:103B1400069B00225A60069B00229A60069B0122A3
:103B24001A74069B0022DA610698FFF791FD019B47
:103B3400002B7FF451AF0E4B1A780D4B5B789A42F1
:103B44007FF44AAF9DF81F30002B04D1074B1A684D
:103B5400059B9A4201D0012300E0002303F00103F6
:103B6400DBB2184609B05DF804FB00BF64180020FE
:103B7400581700207718002068180020FEFF7F00E7
:103B840010B588B00190274B1B68002B44D0254BFF
:103B94001B681B680793FFF73BFD0690224B1B68CD
:103BA400059305990698FFF73BFD034603330493F9
:103BB4001E4B1B7883F00103DBB2002B01D0FFF70F
:103BC400DFFC049A079B934238BF1346059A1344BB
:103BD4000593059B23F07F4305930598FFF72CFD80
:103BE400FFF716FD039006990398FFF719FD0346A6
:103BF400DC1C06990598FFF713FD03469C420DD97A
:103C0400FFF706FD03461846FFF716FD2F20FFF7C2
:103C140067FCFFF7D3FD01E0FFF7D2FC00BF08B05B
:103C240010BD00BF6418002068180020761800201A
:103C340000B587B00023019300238DF81730194B8A
:103C44001B680493184B1B6803936B461846FFF7D5
:103C540033FE03468DF80B309DF80B30002B08D053
:103C6400009B01AA04991846FFF762FE01238DF810
:103C74001730019B1846FFF7A5FE0346002B02D020
:103C840001238DF817309DF81730002B02D00398CC
:103C9400FFF776FF054B00221A7000BF07B05DF8EE
:103CA40004FB00BF68180020641800207718002067
:103CB40008B50E4B0022C3F840210C4B0022C3F878
:103CC40044210A4B0022C3F84821084B0022C3F8C0
:103CD4004C21064B0022C3F80021044B0022C3F8F8
:103CE4000421FFF785FD00BF08BD00BF001001409F
:103CF40008B5FFF79DFF00BF08BD82B0EFF3108346
:103D04000093009B019372B6019B184602B0704762
:103D140062B600BF7047000000B585B00190FFF7A0
:103D2400ECFF0390164B9B68002B1BD1144B012214
:103D34009A60144BD3F88020134B1340104A13603D
:103D4400104B114AC3F880200E4BD3F884300C4A30
:103D540053600C4B4FF0FF32C3F88420019B0022C8
:103D64001A7002E0019B01221A70039B002B01D1FF
:103D7400FFF7CEFF0023184605B05DF804FB00BF33
:103D84007818002000E100E0FC06FFBD00B585B016
:103D940003468DF80730104B9B68002B16D09DF816
:103DA4000730002B12D1FFF7A8FF03900B4A0A4BF0
:103DB4001B681360094A084B5B685360064B00227A
:103DC4009A60039B002B01D1FFF7A2FF0023184642
:103DD40005B05DF804FB00BF7818002000E100E0A6
:103DE40000B583B0019000F02BF80346012B03D0FB
:103DF4000549432000F041F80198FFF78DFF00BF0B
:103E040003B05DF804FB00BFA06A020000B583B0F4
:103E140003468DF8073000F013F80346012B03D056
:103E24000649512000F029F89DF807301846FFF79D
:103E3400ADFF00BF03B05DF804FB00BFA06A020041
:103E440084B0EFF305830193019BC3F30803039349
:103E5400039B002B0DD1EFF314830093009B02937B
:103E6400029B03F00103002B0CBF01230023DBB2F0
:103E740000E00123184604B0704700B585B003463E
:103E84000091ADF80630BDF80630ADF80830009B5F
:103E9400039302AB1A46002144F20200FFF78CFAA6
:103EA40000BF05B05DF804FB00B583B0019000913C
:103EB400019B002B03D110495020FFF7DEFF009B2C
:103EC400002B03D10C495120FFF7D7FF019B009A27
:103ED4001A60019B1B681A68019B5A60019B5A680F
:103EE400019B1B685B689A4202D1019B00225A60C5
:103EF40000BF03B05DF804FB086B020000B583B09B
:103F04000190019B002B03D114496320FFF7B5FFF7
:103F1400019B1B68002B03D110496420FFF7ADFF00
:103F2400019B5B68002B14D0019B5B681A46019BC4
:103F34001B689B6813441A46019B5A60019B5A688C
:103F4400019B1B685B689A4204D1019B00225A6062
:103F540000E000BF03B05DF804FB00BF086B020083
:103F640082B003468DF8073008499DF907305B0994
:103F74009DF8072002F01F02012000FA02F220330C
:103F840041F8232000BF02B0704700BF00E100E009
:103F940082B001904FF08042019BC2F8083300BF09
:103FA40002B0704782B003468DF807309DF80730A1
:103FB40003F1804301221A6000BF02B0704784B04D
:103FC4000346ADF80630BDF8063003F18043002205
:103FD4001A60BDF8063003F180431B680393039B0A
:103FE40000BF04B0704782B00346ADF80630BDF898
:103FF400063003F180431B68002B14BF0123002308
:10400400DBB2184602B0704782B003468DF8073021
:104014004FF080429DF8073003F00303C2F81835CF
:1040240000BF02B070474FF08043D3F818341B0C24
:1040340003F00103002B14BF01230023DBB2184655
:104044007047000082B003468DF807300A4A9DF994
:1040540007305B0952F823209DF8073003F01F0353
:10406400012101FA03F31340002B14BF01230023A1
:10407400DBB2184602B0704700E100E008B500204A
:10408400FFF7E0FF034683F00103DBB2002B03D00C
:104094000721002000F096F900BF08BD08B502F022
:1040A4000DFB034683F00103DBB2002B03D1094966
:1040B4008420FFF7E2FE0C20FFF774FF00BFFFF738
:1040C400B2FF0346002BFAD1034B00229A7000BFC3
:1040D40008BD00BF846B02008418002000B583B0C3
:1040E40000230193134B1B78002B02D085230193EB
:1040F4001BE0104B00229A600E4B00225A600D4BBD
:1041040000221A610B4B0022DA60FFF7B7FF02F0BE
:10411400D5FA034683F00103DBB2002B02D0012061
:10412400FFF772FF034B01221A70019B184603B07C
:104134005DF804FB8418002084B00190019B1B6887
:104144000393039B002B03D0039B1A68019B1A6003
:10415400039B184604B0704700B583B0164B1B7818
:10416400002B04D115494FF48E70FFF786FE124BD5
:10417400DB68002B04D1114940F21D10FFF77DFECE
:1041840000238DF807300DF107031846FFF728FECA
:10419400094BDB68013B084AD360074BDB68002B03
:1041A40001D1FFF77BFF9DF807301846FFF72EFE7D
:1041B40000BF03B05DF804FB84180020846B020088
:1041C40000B585B003468DF807309DF80730002B05
:1041D40002D10C4B039301E00B4B03930398FFF7BD
:1041E400ABFF0290029B002B06D0029B5B689DF8FC
:1041F400072010469847F1E700BF00BF05B05DF8FF
:1042040004FB00BF8C1800209418002008B54FF45C
:104214008070FFF7E8FE0346002B0CD04FF480704B
:10422400FFF7CDFE0120FFF7B3FE0E4B01225A70BB
:104234000020FFF7C5FF4FF48270FFF7D4FE03465A
:10424400002B0CD04FF48270FFF7B9FE0220FFF769
:104254009FFE044B01229A700120FFF7B1FF00BFBB
:1042640008BD00BF8418002000B583B00190009100
:10427400019B002B02D10020FFF7A2FF00BF03B077
:104284005DF804FB00B585B0034600918DF8073056
:104294009DF80730012B08D0032B25D0002B00D02C
:1042A40032E00020FFF75CFE2EE000238DF80F3093
:1042B4000DF10F031846FFF793FD154B1B7883F0A0
:1042C4000103DBB2002B01D0FFF708FF104BDB68C2
:1042D40001330F4AD3600E4B01229A709DF80F30C0
:1042E4001846FFF793FD0FE0094B1B78002B04D110
:1042F400084940F25B20FFF7C0FD0721002000F0D1
:1043040061F8FFF729FF00BF00BF05B05DF804FBAB
:1043140084180020846B020082B003468DF80730B5
:1043240007499DF907305B099DF8072002F01F0239
:10433400012000FA02F241F8232000BF02B07047C6
:1043440000E100E082B003468DF8073008499DF98A
:1043540007305B099DF8072002F01F02012000FAD4
:1043640002F2603341F8232000BF02B0704700BF5F
:1043740000E100E082B0034600918DF807309DF91A
:104384000730002B0CDA0D499DF8073003F00F03BA
:10439400043B009AD2B25201D2B20B441A7609E01D
:1043A40007499DF90730009AD2B25201D2B20B44A8
:1043B40083F8002300BF02B0704700BF00ED00E0A7
:1043C40000E100E000B583B003460A468DF80730EB
:1043D40013468DF806309DF80630012B03D99DF85D
:1043E4000630032B0CD99DF80630042B03D99DF815
:1043F4000630072B04D90D494FF49270FFF73DFDA9
:104404009DF806209DF9073011461846FFF7B2FFC4
:104414009DF907301846FFF795FF9DF907301846B8
:10442400FFF77AFF00BF03B05DF804FBEC6B0200FA
:1044340000B583B00346ADF80630BDF80630184623
:1044440000F026F803461B68012B0CBF0123002350
:10445400DBB2184603B05DF804FB00B585B0034633
:10446400ADF80630BDF80630184600F011F80346E2
:104474001A4600231360BDF80630184600F008F809
:1044840003461B680393039B00BF05B05DF804FB60
:1044940082B00346ADF80630BDF8063003F1804320
:1044A40003F5C043184602B07047000082B0019083
:1044B400034BD3F80423019B1340184602B0704702
:1044C4000060004082B00190054A019B03F5A2738D
:1044D40052F823301B0A03F01F03184602B070473A
:1044E4000060004082B00190064A019B03F5A2736C
:1044F40052F823301B0C03F00303DBB2184602B05E
:10450400704700BF0060004000B583B00190019B7C
:104514001B681F2B04D905494FF4E870FFF7ADFC65
:104524004FF0A043184603B05DF804FB546C02003E
:1045340000B585B001900B468DF8033001AB1846E9
:10454400FFF7E2FF0390019A0199039B01F5E071E3
:1045540053F8213023F44031039B02F5E07243F811
:104564002210019A0199039B01F5E07153F821305F
:104574009DF8031009041943039B02F5E07243F804
:10458400221000BF05B05DF804FB00B585B00190B2
:1045940001AB1846FFF7B8FF0390019A039B02F59D
:1045A400E07253F822301B0C03F00303DBB218460D
:1045B40005B05DF804FB82B00190019BD3F810357F
:1045C400184602B07047000000B587B0039002910E
:1045D40001924FF0A0430493039A029B1344012BCE
:1045E40004D912494FF43A70FFF747FC039B059333
:1045F40011E0059B9B0006AA134453F8083C184697
:10460400FFF7D9FF0246019B1A60019B0433019313
:10461400059B01330593039A029B1A44059B9A4216
:10462400E7D800BF07B05DF804FB00BF546C02007C
:1046340084B001900091009B0393019BDB080293DB
:10464400019B03F0070301930122019B02FA03F388
:104654000399029A0A4412781340184604B070472A
:1046640084B001900091009B0393019BDB080293AB
:10467400019B03F007030193039A029B13440399DC
:10468400029A0A44127851B20120019A00FA02F205
:1046940052B20A4352B2D2B21A7000BF04B0704789
:1046A40082B00190044A019B1344303393F90030E3
:1046B400184602B0704700BF9818002082B00190DD
:1046C400034A019B52F82330184602B0704700BFDA
:1046D4009818002000B595B000231393002303938A
:1046E4004FF48073ADF846300123109300231293E6
:1046F40021E0BDF846301846FFF79AFE0346002B2A
:104704000ED01098FFF7D2FE0346002B08D0BDF858
:1047140046301846FFF7A1FE139A109B13431393D8
:10472400109B5B001093BDF846300433ADF846305F
:10473400129B01331293129B072BDAD94FF4BE70EC
:10474400FFF776FE0346002B0DD04FF4BE70FFF743
:1047540084FE139B43F00043139303AB1A460121D9
:104764000020FFF731FF139BDBB2002B29D001237C
:1047740010930023129321E0109A139B1340002BF3
:1047840016D01298FFF79EFE0D901298FFF7AAFE1E
:1047940003468DF833301298FFF790FF0B900B9B74
:1047A400002B05D09DF833200B9B11460D9898479C
:1047B400109B5B001093129B01331293129B072BE7
:1047C400DAD9139B002B80F2EE8000238DF83B3066
:1047D4000023029300230F930AE00F9B9B0014AA6B
:1047E40013444FF0FF3243F84C2C0F9B01330F93CB
:1047F4000F9B002BF1D000238DF83B300023129344
:1048040078E06B4A129B1344503393F900308DF8CF
:104814002B309DF82B3023F0C0030993644A129B7C
:104824001344503393F90030B3F1FF3F5FD001AB31
:1048340019460998FFF7FCFE0346002B57D09DF854
:104844002B309B098DF823300998FFF729FF034685
:104854001846FFF733FF0790079B002B03D19DF801
:104864002330032B43D19DF82330032B04D102AB17
:1048740019460998FFF7F4FE0998FFF786FE0346E8
:104884008DF81B3003AB19460998FFF7D1FE05904C
:10489400059B002B03D09DF81B30022B06D0059BF3
:1048A400002B24D19DF81B30032B20D19DF82330FD
:1048B400032B13D19DF81B30022B01D1032300E0FD
:1048C40002238DF813309DF8133019460998FFF729
:1048D4002FFE9DF83B3001338DF83B30079B002BB6
:1048E40005D09DF82320079B114609989847129BF1
:1048F40001331293129B032B83D99DF83B30002B79
:104904004CD001238DF83A306B461A460121002021
:10491400FFF75AFE00230F9314E00F9B9B0014AA89
:10492400134453F8502C0F9B9B0014A90B4453F8C9
:10493400443C9A4203D000238DF83A3005E00F9BA3
:1049440001330F930F9B002BE7D09DF83A30002BD7
:1049540003D000238DF83B3020E000230F931AE0AE
:104964000F9B9B0014AA134453F8502C0F9B9B00DD
:1049740014A90B4443F8442C0F9B9B0014AA134422
:1049840053F8482C0F9B9B0014A90B4443F84C2C60
:104994000F9B01330F930F9B002BE1D09DF83B300D
:1049A400002B7FF428AF00BF15B05DF804FB00BFF7
:1049B4009818002084B001900B46ADF80230BDF881
:1049C4000230019A134400221A60BDF80230019AA1
:1049D40013441B680393039B00BF04B0704782B069
:1049E40001900B46ADF80230BDF80230019A134431
:1049F4001B68002B14BF01230023DBB2184602B04E
:104A0400704782B001900091019BD3F80423009B6E
:104A14001340002B14BF01230023DBB2184602B05D
:104A2400704782B001900091019B009AC3F808235B
:104A340000BF02B0704784B00190019BD3F880346A
:104A44000393019B039AC3F88024039B184604B084
:104A5400704782B00190019BD3F81835DBB2184639
:104A640002B0704782B001900B468DF803309DF878
:104A74000320019BC3F81C2500BF02B0704782B01D
:104A840001900B468DF803309DF80330019A1344CE
:104A940001221A6000BF02B0704784B001900B4637
:104AA400ADF80230BDF80230019A134400221A60B6
:104AB400BDF80230019A13441B680393039B00BFA3
:104AC40004B0704782B001900B46ADF80230BDF8D7
:104AD4000230019A13441B68002B14BF01230023E6
:104AE400DBB2184602B0704782B001900091019B7E
:104AF400D3F80022009BDB431A40019BC3F8002239
:104B040000BF02B0704784B00190019BD3F8803499
:104B14000393019B039AC3F88024039B184604B0B3
:104B2400704782B00190019BD3F84C35184602B00F
:104B3400704782B00190019BD3F83C35184602B00F
:104B4400704700B585B0019000914FF48E710198C3
:104B5400FFF730FF009B9B68009A928A92B213443D
:104B64001B788DF80F30009B9B8A9BB201339AB25D
:104B7400009B9A829DF80F3019460198FFF772FF47
:104B840000BF05B05DF804FB10B582B00190009140
:104B9400009BDB7D002B08D14FF484710198FFF753
:104BA40009FF0198FFF755FF16E04FF4847101984F
:104BB400FFF700FF009BDB68009A527ED2B29C187C
:104BC4000198FFF746FF03462370009B5B7EDBB230
:104BD4000133DAB2009B5A7602B010BD00B589B039
:104BE40003900B4601928DF80B3001238DF81030A1
:104BF4009DF80B308DF81830019B0593039B5B687F
:104C0400039A116804AA1046984700BF09B05DF8DA
:104C140004FB00B587B001900B468DF803300023E8
:104C24008DF808309DF803308DF81030019B9B6897
:104C34000393019B00229A75019B5B68019A11689A
:104C440002AA1046984700BF07B05DF804FB00B500
:104C540089B0019000914FF400710198FFF7D1FEE3
:104C64000346002B39D04FF492710198FFF7B7FE39
:104C74000346002B31D04FF492710198FFF79AFE4E
:104C84004FF401710198FFF7CCFE009B9B7E83F0EB
:104C94000103DBB2002B03D004210198FFF7EFFEE0
:104CA40002238DF808300198FFF7C5FE03460593EB
:104CB400009BDB7D8DF81030009BDB680393009B29
:104CC4000022DA75009B00221A76009B5B68009A2A
:104CD400116802AA1046984756E004210198FFF78C
:104CE40090FE0346002B4FD04FF484710198FFF7D8
:104CF40076FE0346002B47D000990198FFF744FF46
:104D0400009BDA7D009B5B7EDBB29A423CD1009B28
:104D14001B7E002B1CD0009BDB680793009B5B7EF3
:104D24008DF81B30009B1A7E009BDA75009B1A6974
:104D3400009BDA60009B00221A76009B00225A76C0
:104D44009DF81B30079A19460098FFF747FF1BE0B0
:104D5400009B9B7E83F00103DBB2002B03D0042174
:104D64000198FFF78CFE4FF401710198FFF759FE8B
:104D7400009B0022DA75009B5B7ED9B2009BDB6846
:104D84001A460098FFF72AFF4FF48E710198FFF737
:104D940026FE0346002B1BD0009B9B8A9AB2009BE5
:104DA4009B7D9BB29A4204D200990198FFF7C9FEF9
:104DB4000EE04FF48E710198FFF7FCFD009B9B7D84
:104DC400002B05D0009B9B7D19460098FFF721FF1F
:104DD4004FF4A2710198FFF702FE0346002B1CD08A
:104DE4004FF4A2710198FFF7E5FD009B9B7E002B19
:104DF40003D000210198FFF742FE009BDB7D002BCE
:104E04000BD0009B0022DA75009B5B7ED9B2009B1D
:104E1400DB681A460098FFF7E1FE00BF09B05DF8B1
:104E240004FB00B589B0019000914FF49271019890
:104E3400FFF748FE0346002B24D04FF492710198EB
:104E4400FFF72BFE02238DF808300198FFF75BFE75
:104E5400034605930198FFF76CFE0346DBB28DF819
:104E64001030009BDB680393009B0022DA75009BE3
:104E740000221A76009B5B68009A116802AA104609
:104E8400984741E04FF488710198FFF71BFE0346F1
:104E9400002B39D04FF488710198FFF7FEFD01987B
:104EA400FFF747FE03468DF81F30009BDB7D9DF81E
:104EB4001F209A4228D1009B1B7E002B19D0009BF7
:104EC400DB68069320210198FFF70EFE009B1A7EF3
:104ED400009BDA75009B1A69009BDA60009B002234
:104EE4001A769DF81F30069A19460098FFF776FE49
:104EF4000AE0009B0022DA75009BDA689DF81F30F7
:104F040019460098FFF76AFE4FF4A2710198FFF763
:104F1400D9FD0346002B16D04FF4A2710198FFF778
:104F2400BCFD009BDB7D002B0DD0009B0022DA75BD
:104F34000198FFF7FEFD0346D9B2009BDB681A46D1
:104F44000098FFF74BFE4FF490710198FFF7BAFDFC
:104F54000346002B11D04FF490710198FFF79DFD8B
:104F6400009B9B7D002B08D00198FFF7DAFD0346D8
:104F7400DBB219460098FFF74CFE00BF09B05DF89C
:104F840004FB000008B5074B1B7F002B04D0054928
:104F94000548FFF746FF03E002490348FFF757FEC1
:104FA40000BF08BDF0180020002000403EDF70471D
:104FB40000BF184673DF704700BF184662DF7047B2
:104FC40000BF184610B598B004238DF85F3004ABC9
:104FD4003C220021184601F01DFD9DF85F308DF83C
:104FE40013300123ADF82030264B0993264B6C4631
:104FF4000FCB84E80F006B4624491846FFF7DEFF09
:105004001690169B1593159B002B04D0204A28213B
:105014001598FEF76DF904AB0021184600F010FE58
:105024001690169B1493149B002B04D0184A2B2122
:105034001498FEF75DF910220021164801F0EAFCED
:10504400144B03221A70134B00225A60114B002296
:105054001A72104B20225A810E4B00229A81012190
:105064000C48FFF7A7FF1690169B1393139B002B76
:1050740004D0074A36211398FEF73AF900BF18B056
:1050840010BD00BF301700205C6D020032170020F5
:10509400F46C02001019002000B587B001F0CAFAC0
:1050A4000590059B0493049B002B04D0144A3F21D4
:1050B4000498FEF71DF90023019301AB1946012062
:1050C40001F05EFB0590059B0393039B002B04D02A
:1050D4000B4A45210398FEF70BF901AB184601F082
:1050E400C7FB0590059B0293029B002B04D0044A46
:1050F40049210298FEF7FCF800BF07B05DF804FBF5
:10510400F46C020000B583B000230193019B00936B
:10511400009B002B04D0044A50210098FEF7E8F8C5
:1051240000BF03B05DF804FBF46C020000B583B06B
:10513400FFF73CFF0190019B0093009B002B04D0E0
:10514400044A59210098FEF7D3F800BF03B05DF874
:1051540004FB00BFF46C020008B5FFF7D3FFFFF7B0
:105164009BFFFFF72FFFFFF7E1FFFCE76DDF7047C1
:1051740000BF184672DF704700BF184679DF7047DA
:1051840000BF18467DDF704700BF184664DF7047D4
:1051940000BF184682B003460091ADF80630BDF852
:1051A4000630DAB2009B1A70009B0133BDF806206A
:1051B400120A92B2D2B21A700223184602B0704791
:1051C40000B589B0039002911346ADF80630029BF6
:1051D4001B8803F10902BDF806309A4201D90C2359
:1051E40051E005AB1846FFF7C1FF0790079B002B62
:1051F40001D0079B47E0029B1B881A46039B13447C
:1052040008221A70029B1B8801339AB2029B1A80EF
:10521400029B1B881A46039B13441B221A70029B91
:105224001B8801339AB2029B1A80029B1B881A4680
:10523400039B981805AB01330622194601F0C0FB05
:10524400029B1B8806339AB2029B1A809DF8143085
:1052540023F00103DBB2002B07D1029B1B881A4603
:10526400039B134400221A7006E0029B1B881A4613
:10527400039B134401221A70029B1B8801339AB2C8
:10528400029B1A800023184609B05DF804FB00B5A0
:1052940089B0039002910192ADF80230039B1B7810
:1052A400012B05D1039B5B78002B01D1072389E0F7
:1052B400019B1B889A1CBDF802309A420ED8039BAE
:1052C4001B78012B0CD1019B1B881A46039B5B782E
:1052D40013449A1CBDF802309A4201D90C2371E0A0
:1052E400019B1B88BDF80220D31A9BB2023BADF888
:1052F4001C30BDF81C30ADF81630019B1B880233FE
:10530400029A13440DF1160211461846FFF73AFFAC
:105314000690069B002B01D0069B53E0039B1B7851
:10532400022B09D1BDF81630BDF81C209A4203D3D4
:1053340009238DF81F3017E008238DF81F30039BD5
:105344001B78012B0CD1039B5B789BB2BDF81C200E
:105354009A4205D3039B5B789BB2ADF8163003E009
:10536400BDF81C30ADF81630BDF81630FE2B01D94F
:105374000C2327E0019B1B881A46029B1344BDF8AB
:105384001620D2B20132D2B21A70019B1B880133AB
:105394009AB2019B1A80019B1B881A46029B1344F4
:1053A4009DF81F201A70019B1B8801339AB2019B40
:1053B4001A80019B1A88BDF8163013449AB2019BD7
:1053C4001A800023184609B05DF804FB00B587B0C5
:1053D400039002911346ADF80630029B1B881A1DF8
:1053E400BDF806309A4201D90C2339E00DF11203BD
:1053F4001846FFF7C3FE0590059B002B01D0059BC3
:105404002EE0029B1B881A46039B134403221A7046
:10541400029B1B8801339AB2029B1A80029B1B8851
:105424001A46039B134419221A70029B1B880133EA
:105434009AB2029B1A80BDF81220029B1B8819465F
:10544400039B0B4419461046FFF7A4FE0346194676
:10545400029B1A888BB213449AB2029B1A800023CF
:10546400184607B05DF804FB84B0029101921A4615
:1054740003468DF80F301346ADF80C30019B1B88A2
:10548400DA1CBDF80C309A4201D90C2328E0019BA8
:105494001B881A46029B134402221A70019B1B8824
:1054A40001339AB2019B1A80019B1B881A46029B06
:1054B400134401221A70019B1B8801339AB2019B89
:1054C4001A80019B1B881A46029B13449DF80F20E7
:1054D4001A70019B1B8801339AB2019B1A80002326
:1054E400184604B0704784B0029101921A460346EC
:1054F4008DF80F301346ADF80C30019B1B88DA1C75
:10550400BDF80C309A4201D90C2328E0019B1B887A
:105514001A46029B134402221A70019B1B88013312
:105524009AB2019B1A80019B1B881A46029B134462
:105534000A221A70019B1B8801339AB2019B1A80BC
:10554400019B1B881A46029B13449DF80F201A7076
:10555400019B1B8801339AB2019B1A8000231846D1
:1055640004B0704700B58BB0039001930B468DF8DF
:105574000B3013468DF80A3000238DF823300C9B32
:105584001B88ADF82030002309936DE0039B5A6813
:10559400099B9B001A4404AB106818600DF11701B5
:1055A40004AB00221846FFF7F1FD0790079B002B80
:1055B40001D0079B7AE09DF817309DF80A209A42A3
:1055C4004FD19DF82330002B01D0002300E00223AB
:1055D4008DF81B300C9B1B881A469DF817301A4413
:1055E4009DF81B301A44BDF834309A4201DD0C2377
:1055F4005CE09DF8233083F00103DBB2002B16D06E
:105604000C9B1B8801339AB20C9B1A800C9B1B8841
:105614001A46019B13449DF80B201A700C9B1B889F
:1056240001339AB20C9B1A8001238DF823300C9B12
:105634001B881A46019B1A440DF1170104AB184646
:10564400FFF7A4FD0790079B002B01D0079B2DE0DB
:105654000C9B1A889DF817309BB213449AB20C9B8A
:105664001A80099B01330993039B1B881A46099BE3
:105674009A428BDC9DF82330002B16D00C9B1A88A1
:10568400BDF82030D31A9BB2013BADF81830BDF8F9
:105694001830FF2B01D90C2308E0BDF82030019A03
:1056A4001344BDF81820D2B21A70002318460BB068
:1056B4005DF804FB00B589B0059003930B468DF8A3
:1056C400133013468DF812309DF81310BDF82C30AA
:1056D40001930A9B0093039B02220598FFF742FF64
:1056E4000790079B002B01D0079B12E09DF8121036
:1056F400BDF82C3001930A9B0093039B102205985C
:10570400FFF730FF0790079B002B01D0079B00E0B9
:105714000023184609B05DF804FB82B00190019B98
:105724001B88052B0AD9019B1B88B3F5486F07D941
:10573400019B1B884FF6FF72934201D0072325E09B
:10574400019B5B88052B0AD9019B5B88B3F5486FE5
:1057540007D9019B5B884FF6FF72934201D0072360
:1057640014E0019B1B884FF6FF7293420DD0019BFE
:105774005B884FF6FF72934207D0019B1A88019B06
:105784005B889A4201D9072300E00023184602B03F
:10579400704700B587B0039002910192ADF80230D2
:1057A400019B1B889A1DBDF802309A4201D90C2333
:1057B4004BE00398FFF7B1FF0590059B002B01D048
:1057C400059B42E0019B1B881A46029B1344052259
:1057D4001A70019B1B8801339AB2019B1A80019BAA
:1057E4001B881A46029B134412221A70019B1B88C1
:1057F40001339AB2019B1A80039B1A88019B1B8870
:105804001946029B0B4419461046FFF7C3FC034696
:105814001946019B1A888BB213449AB2019B1A80D1
:10582400039B5A88019B1B881946029B0B4419460B
:105834001046FFF7AFFC03461946019B1A888BB24A
:1058440013449AB2019B1A800023184607B05DF8EE
:1058540004FB00B587B0039002910192ADF80230C9
:10586400039B9B8802330593019B1B881A46059B67
:1058740013449A1CBDF802309A4201D90C2354E017
:10588400059BFE2B01D90C234FE0019B1B881A4674
:10589400029B1344059AD2B20132D2B21A70019B10
:1058A4001B8801339AB2019B1A80019B1B881A46FC
:1058B400029B1344FF221A70019B1B8801339AB286
:1058C400019B1A80039B1A88019B1B881946029B23
:1058D4000B4419461046FFF75DFC03461946019B2D
:1058E4001A888BB213449AB2019B1A80039B9B883B
:1058F400002B19D0039B9B68002B01D1072314E0D4
:10590400019B1B881A46029B9818039B9968039B6A
:105914009B881A4601F054F8019B1A88039B9B88C4
:1059240013449AB2019B1A800023184607B05DF80D
:1059340004FB00B589B0039002910192ADF80230E6
:10594400039B9B6A002B01D1072372E000238DF88F
:105954001F3066E0039B996A9DF81F2013465B0085
:1059640013449B000B440693069B9B8802330593C8
:10597400059BFE2B01D90C235BE0019B1B881A4677
:10598400029B1344059AD2B20132D2B21A70019B1F
:105994001B8801339AB2019B1A80019B1B881A460B
:1059A400029B134416221A70019B1B8801339AB27E
:1059B400019B1A80069B1A88019B1B881946029B2F
:1059C4000B4419461046FFF7E5FB03461946019BB5
:1059D4001A888BB213449AB2019B1A80069B9B8847
:1059E400002B19D0069B9B68002B01D1072320E0D4
:1059F400019B1B881A46029B9818069B9968069B74
:105A04009B881A4600F0DCFF019B1A88069B9B8842
:105A140013449AB2019B1A809DF81F3001338DF80C
:105A24001F30039B93F82C309DF81F209A4291D38A
:105A34000023184609B05DF804FB00B589B0059051
:105A44000491039200230793039B1B88ADF81A303B
:105A5400039B00221A80059B93F82D30002B0CD059
:105A6400BDF81A301A4603990498FFF7A9FB07906A
:105A7400079B002B01D0079BC4E0059B9B78002B60
:105A84000CD0BDF81A301A4603990498FFF79EFC0F
:105A94000790079B002B01D0079BB3E0059BDB78A5
:105AA400002B0ED0059BDB7858B2BDF81A30039A50
:105AB4000499FFF7D9FC0790079B002B01D0079BA3
:105AC400A0E0059B5B68002B0FD0059B5B6893F9F6
:105AD4000000BDF81A30039A0499FFF704FD0790FB
:105AE400079B002B01D0079B8CE0059B1B89002B97
:105AF40012D0059B03F10800BDF81A300193039BF3
:105B04000093049B06220221FFF7D4FD0790079B14
:105B1400002B01D0079B75E0059B1B8A002B12D03C
:105B2400059B03F11000BDF81A300193039B009309
:105B3400049B07220321FFF7BDFD0790079B002B61
:105B440001D0079B5EE0059B1B8B002B12D0059BAD
:105B540003F11800BDF81A300193039B0093049BD2
:105B640015221421FFF7A6FD0790079B002B01D0F7
:105B7400079B47E0059B1B6A002B0DD0059B186A09
:105B8400BDF81A30039A0499FFF703FE0790079BA8
:105B9400002B01D0079B35E0059B5B6A002B0DD0E1
:105BA400059B586ABDF81A30039A0499FFF751FE11
:105BB4000790079B002B01D0079B23E0059B93F8DC
:105BC4002C30002B0CD0BDF81A30039A0499059898
:105BD400FFF7AFFE0790079B002B01D0079B11E056
:105BE400059B1B78002B0CD0BDF81A30039A04993E
:105BF4000598FFF74CFB0790079B002B01D0079BF0
:105C040000E0079B184609B05DF804FB82B00190E0
:105C1400019BDB7803F00403002B01D1072300E090
:105C24000023184602B0704782B00190019BDB78D4
:105C3400002B01D0072300E00023184602B0704770
:105C440000B597B0019000911F23ADF84A301F238F
:105C5400ADF84830019B002B18D00198FFF7D6FF10
:105C64001390139B002B01D0139B3FE00DF14A02CC
:105C74000AAB19460198FFF7E0FE1390139B002B23
:105C840001D0139B32E00AAB159304E00023159373
:105C94000023ADF84A30009B002B17D00098FFF783
:105CA400C3FF1390139B002B01D0139B1EE012AA79
:105CB40002AB19460098FFF7C0FE1390139B002B0C
:105CC40001D0139B12E002AB149304E0002314935D
:105CD4000023ADF84830BDF84A30D9B2BDF8483099
:105CE400DBB2149A1598FFF745FA0346184617B025
:105CF4005DF804FBBFF34F8F0549054BDB6803F4E4
:105D0400E062044B1343CB60BFF34F8F00BFFDE74A
:105D140000ED00E00400FA05024B034A1A6000BFDC
:105D2400704700BF341700200090D00308B500F07E
:105D34005BF90346002B06D09A4A9B4B1B681B0A4F
:105D440003F01F03136000F07BF90346002B02D01D
:105D5400964B974A1A6000F08FF90346002B06D041
:105D6400944A954B1B685B0B03F00703136000F028
:105D7400AFF90346002B05D0904A904BDB6823F023
:105D84008073D36000F0C0F90346002B0ED04FF0AF
:105D940080430022C3F80C214FF080430022C3F853
:105DA40010214FF080430022C3F8382500F0D8F9C1
:105DB4000346002B02D0824B03221A6000F0ECF958
:105DC4000346002B0BD07F4B05221A607E4B012229
:105DD4001A607E4B00221A607D4B3F221A6000F04D
:105DE400F7F90346002B76D07A4A4FF08053D3F864
:105DF4000434C2F82035774A4FF08053D3F808347E
:105E0400C2F82435734A4FF08053D3F80C34C2F8E7
:105E14002835704A4FF08053D3F81034C2F82C352B
:105E24006C4A4FF08053D3F81434C2F83035694AC1
:105E34004FF08053D3F81834C2F83435654A4FF024
:105E44008053D3F81C34C2F84035624A4FF0805373
:105E5400D3F82034C2F844355E4A4FF08053D3F867
:105E64002434C2F848355B4A4FF08053D3F82834C1
:105E7400C2F84C35574A4FF08053D3F82C34C2F84B
:105E84005035544A4FF08053D3F83034C2F8543567
:105E9400504A4FF08053D3F83434C2F860354D4A39
:105EA4004FF08053D3F83834C2F86435494A4FF080
:105EB4008053D3F83C34C2F86835464A4FF08053D7
:105EC400D3F84034C2F86C35424A4FF08053D3F8CB
:105ED4004434C2F8703500F097F90346002B05D01E
:105EE4003D4A3E4B1B6803F04F03136000F0B8F9C2
:105EF4000346002B0DD04FF08043D3F8003403F059
:105F04000103002B05D04FF080436FF00102C3F86A
:105F14000024334A324BD3F8883043F47003C2F878
:105F24008830BFF34F8FBFF36F8F4FF01023D3F838
:105F34000032002B05DB4FF01023D3F80432002B82
:105F44002BDA284B0122C3F8042500BF254BD3F8D4
:105F54000034002BFAD04FF010231522C3F800228E
:105F640000BF204BD3F80034002BFAD04FF010239D
:105F74001522C3F8042200BF1A4BD3F80034002BB7
:105F8400FAD0184B0022C3F8042500BF154BD3F8F0
:105F94000034002BFAD0FFF7ADFEFFF7BDFE00BFC3
:105FA40008BD00BF403501402403001074C0074001
:105FB4000DF0ADBA3C05004044020010F0ED00E0E5
:105FC400A005004010560040885600401856004076
:105FD4001456004000C00040E40E00405802001077
:105FE40000ED00E000E00140124B1B68DBB2062B21
:105FF4001DD1114B1B6803F00F03002B17D10F4B5E
:106004001B6803F0F003302B01D1012310E00B4B8C
:106014001B6803F0F003402B01D1012308E0074B78
:106024001B6803F0F003502B01D1012300E000238F
:1060340018467047E00F00F0E40F00F0E80F00F09E
:106044000A4B1B68DBB2062B0DD1094B1B6803F00E
:106054000F03002B07D1074B1B6803F0F003302B11
:1060640001D1012300E0002318467047E00F00F03F
:10607400E40F00F0E80F00F0124B1B68DBB2062BB4
:106084001DD1114B1B6803F00F03002B17D10F4BCD
:106094001B6803F0F003302B01D1012310E00B4BFC
:1060A4001B6803F0F003402B01D1012308E0074BE8
:1060B4001B6803F0F003502B01D1012300E00023FF
:1060C40018467047E00F00F0E40F00F0E80F00F00E
:1060D4000A4B1B68DBB2062B0DD1094B1B6803F07E
:1060E4000F03002B07D1074B1B6803F0F003302B81
:1060F40001D1012300E0002318467047E00F00F0AF
:10610400E40F00F0E80F00F0124B1B68DBB2062B23
:106114001DD1114B1B6803F00F03002B17D10F4B3C
:106124001B6803F0F003302B01D1012310E00B4B6B
:106134001B6803F0F003402B01D1012308E0074B57
:106144001B6803F0F003502B01D1012300E000236E
:1061540018467047E00F00F0E40F00F0E80F00F07D
:106164000A4B1B68DBB2062B0DD1094B1B6803F0ED
:106174000F03002B07D1074B1B6803F0F003302BF0
:1061840001D1012300E0002318467047E00F00F01E
:10619400E40F00F0E80F00F00A4B1B68DBB2062B9B
:1061A4000DD1094B1B6803F00F03002B07D1074BDC
:1061B4001B6803F0F003302B01D1012300E000231E
:1061C40018467047E00F00F0E40F00F0E80F00F00D
:1061D4000A4B1B68DBB2062B0DD1094B1B6803F07D
:1061E4000F03002B07D1074B1B6803F0F003502B60
:1061F40001D1012300E0002318467047E00F00F0AE
:10620400E40F00F0E80F00F0124B1B68DBB2062B22
:106214001DD1114B1B6803F00F03002B17D10F4B3B
:106224001B6803F0F003302B01D1012310E00B4B6A
:106234001B6803F0F003402B01D1012308E0074B56
:106244001B6803F0F003502B01D1012300E000236D
:1062540018467047E00F00F0E40F00F0E80F00F07C
:10626400124B1B68DBB2062B1DD1114B1B6803F0CC
:106274000F03002B17D10F4B1B6803F0F003302BD7
:1062840001D1012310E00B4B1B6803F0F003402BFA
:1062940001D1012308E0074B1B6803F0F003502BE6
:1062A40001D1012300E0002318467047E00F00F0FD
:1062B400E40F00F0E80F00F082B003468DF80730D9
:1062C40007499DF907305B099DF8072002F01F027A
:1062D400012000FA02F241F8232000BF02B0704707
:1062E40000E100E082B0034600918DF807309DF98B
:1062F4000730002B0CDA0D499DF8073003F00F032B
:10630400043B009AD2B25201D2B20B441A7609E08D
:1063140007499DF90730009AD2B25201D2B20B4418
:1063240083F8002300BF02B0704700BF00ED00E017
:1063340000E100E082B003468DF807309DF9073094
:10634400002B0BDA0B4A9DF8073003F00F03043BD4
:1063540013441B7EDBB25B09DBB208E0064A9DF9FD
:106364000730134493F80033DBB25B09DBB2184601
:1063740002B0704700ED00E000E100E000B583B03A
:106384000190019B002B03D10449C420FDF775FD46
:10639400019B5B68184603B05DF804FB6C6D02005A
:1063A40010DF704700BF184682B003468DF80730EF
:1063B4009DF907301F2B0CDC9DF907300F4A22FA98
:1063C40003F303F00103002B14BF01230023DBB20A
:1063D40010E09DF907303F2B0BDC9DF90730203B83
:1063E400012202FA03F3002B14BF01230023DBB2C2
:1063F40000E00123184602B0704700BFFC06FFBD51
:1064040082B00190019B072B01D900230BE0019B73
:10641400002B05D0019B012B02D0019B042B01D141
:10642400002300E00123184602B0704700B583B092
:1064340003468DF807309DF907301846FFF7B4FF7F
:106444000346002B02D142F201032DE09DF90730EF
:106454001846FFF76FFF03461846FFF7D1FF0346C0
:10646400002B02D142F202031EE0114B9B68002B69
:1064740014D09DF907305B099DF9072052090C4996
:1064840051F822209DF8071001F01F01012000FAA5
:1064940001F10A43064941F8232004E09DF907303D
:1064A4001846FFF709FF0023184603B05DF804FB04
:1064B4007818002000B583B0034600918DF80730AA
:1064C4009DF907301846FFF76FFF0346002B02D1F2
:1064D40042F201030FE00098FFF792FF0346002BFE
:1064E40002D142F2020306E09DF9073000991846F2
:1064F400FFF7F8FE0023184603B05DF804FB000024
:1065040000B587B003468DF8073002AB144918462E
:10651400FDF7CAFC17E002AB1846FFF72FFF059002
:10652400059B1B680493059B59689DF80720049BF1
:10653400104698470346002B01D111230BE002AB10
:106544001846FDF7DBFC02AB1846FFF717FF0346BE
:10655400002BE0D10023184607B05DF804FB00BF10
:10656400246E020000B587B003468DF8073002ABF5
:1065740011491846FDF798FC12E002AB1846FFF7E4
:10658400FDFE0590059B1B680493059B59689DF8C7
:106594000720049B1046984702AB1846FDF7AEFC53
:1065A40002AB1846FFF7EAFE0346002BE5D100BF15
:1065B40007B05DF804FB00BF306E020000B583B085
:1065C4001620FFF733FF0190019B0093009B002BE3
:1065D40004D0044A99210098FCF78AFE00BF03B056
:1065E4005DF804FBC06D020000B585B007211620DC
:1065F400FFF760FF0390039B0293029B002B04D0E0
:106604000B4AB8210298FCF773FE07211520FFF707
:1066140051FF0390039B0193019B002B04D0044A78
:10662400BA210198FCF764FE00BF05B05DF804FBD5
:10663400C06D020000B583B01B4B1B78002B01D04A
:1066440008232CE0194B01221A700020FFF758FF91
:106654000346112B01D1002321E00020FFF782FF24
:10666400134B1B6800936B4612491846FFF798FEBC
:106674000190019B002B01D0019B10E00A4B0122E9
:106684001A700A4B00221A700B4B00221A70FFF783
:10669400ABFFFFF793FF0120FFF764FF00231846C9
:1066A40003B05DF804FB00BF20190020221900206C
:1066B400206E0200BD33020021190020014B1B781B
:1066C400184670472019002000B585B06B46104964
:1066D4001846FDF7E9FB10E06B461846FFF74EFE3F
:1066E4000390039B1B680293039B5A68029B10460A
:1066F40098476B461846FDF701FC6B461846FFF7B2
:106704003DFE0346002BE7D100BF05B05DF804FB56
:106714003C6E020008B5FFF7D7FF00BF08BD60DF7D
:10672400704700BF184669DF704700BF184661DF35
:10673400704700BF1846000000B583B00190019B6C
:10674400002B03D10449C420FDF797FB019B5B6830
:10675400184603B05DF804FB486E020082B0019055
:10676400019B002B01D10E2304E0044B1A46019B2C
:106774001A600023184602B0704700BF301700208B
:1067840000B587B0034600918DF807300098FFF7F5
:10679400E5FF0590059B002B01D0059B64E002AB4F
:1067A4000C220021184600F035F99DF807308DF8C9
:1067B400083001238DF80A300323ADF80C30009B18
:1067C4001A6802AB19462020FFF7ADFF059002AB13
:1067D4000C220021184600F01DF900238DF8083022
:1067E40000238DF8093000238DF80A30009B1A68C5
:1067F40002AB19464020FFF796FF059002AB0C222E
:106804000021184600F006F901238DF80830009B9A
:106814001A6802AB19460120FFF785FF059002AB09
:106824000C220021184600F0F5F8F8230293009B8F
:106834001A6802AB1946A120FFF775FF059002AB59
:106844000C220021184600F0E5F89DF808306FF39B
:1068540000038DF80830009B1A6802AB1946A0208B
:10686400FFF761FF05900023184607B05DF804FBAD
:1068740000B585B00190019B1B6803930198FFF755
:106884004EFF0290029B184605B05DF804FB000021
:1068940000B599B001903823ADF84E300DF14E0299
:1068A40003AB11461846FFF742FF1790179B002BC6
:1068B40003D0179B052B22D127E003AB169311AB12
:1068C40014491846FDF7F0FA11E011AB1846FFF72A
:1068D40033FF1590159B1B681493159B5A68149BE2
:1068E40011461698984711AB1846FDF707FB11ABF4
:1068F4001846FFF721FF0346002BE6D1CBE7064AF3
:1069040040F221111798FCF7F3FC00BF19B05DF8B1
:1069140004FB00BF006F02009C6E020000B583B050
:106924000190019B002B03D10449C420FDF7A5FA73
:10693400019B5B68184603B05DF804FB0C6F020012
:1069440048DF704700BF184600B589B0019004AB1A
:106954001846FFF7F5FF0790079B002B03D0079B12
:10696400052B20D124E002AB13491846FDF79CFA0D
:1069740011E002AB1846FFF7D1FF0690069B1B6897
:106984000593049A069B5968059B1046984702ABE9
:106994001846FDF7B3FA02AB1846FFF7BFFF0346EC
:1069A400002BE6D1D3E7054A6B210798FCF7A0FC3E
:1069B40000BF09B05DF804FBC46F0200606F020001
:1069C400844640EA010313F0030F18D18446202AB9
:1069D4000BD32DE9F007B1E8F807A0E8F807A2F116
:1069E4002002202AF7D2BDE8F007042A07D351F881
:1069F400043B40F8043BA2F10402042AF7D2002A23
:106A040005D011F8013B00F8013B013AF9D1604689
:106A1400704700BF8446002A2DD010F0030F04D025
:106A240000F8011B013A26D0F7E7C9B241EA012177
:106A340041EA0141202A12D3A2F120022DE9F003F8
:106A44000B460C460D460E460F4688468946A0E87E
:106A5400FA03203AFBD2BDE8F00320320BD0042A1B
:106A640005D340F8041B043A05D0042AF9D200F8EF
:0C6A7400011B013AFBD16046704700BFD7
:086A80006D420200000000005D
:086A8800894202000000000039
:106A900095680200000000004D690200000000003F
:106AA0002F55736572732F73696D656E726F737492
:106AB00061642F446F63756D656E74732F476974DD
:106AC0004875622F42616368656C6F722D4E6F72FC
:106AD0006469635F53656D692F636F6D706F6E6579
:106AE0006E74732F6C69627261726965732F75744D
:106AF000696C2F6170705F7574696C5F706C617424
:106B0000666F726D2E6300002F55736572732F735D
:106B1000696D656E726F737461642F446F63756D18
:106B2000656E74732F4769744875622F426163689C
:106B3000656C6F722D4E6F726469635F53656D692A
:106B40002F636F6D706F6E656E74732F6C696272F8
:106B500061726965732F6578706572696D656E74B1
:106B6000616C5F73656374696F6E5F766172732FBA
:106B70006E72665F73656374696F6E5F6974657268
:106B80002E6300002F55736572732F73696D656EE8
:106B9000726F737461642F446F63756D656E747387
:106BA0002F4769744875622F42616368656C6F7224
:106BB0002D4E6F726469635F53656D692F636F6DEE
:106BC000706F6E656E74732F647269766572735F31
:106BD0006E72662F636C6F636B2F6E72665F64728A
:106BE000765F636C6F636B2E630000002F557365D7
:106BF00072732F73696D656E726F737461642F4465
:106C00006F63756D656E74732F4769744875622F75
:106C100042616368656C6F722D4E6F726469635F69
:106C200053656D692F636F6D706F6E656E74732F32
:106C3000647269766572735F6E72662F636F6D6DD5
:106C40006F6E2F6E72665F6472765F636F6D6D6FCD
:106C50006E2E63002E2E2F2E2E2F2E2E2F2E2E2F09
:106C60002E2E2F2E2E2F636F6D706F6E656E7473C8
:106C70002F647269766572735F6E72662F68616CDD
:106C80002F6E72665F6770696F2E68002F5573658F
:106C900072732F73696D656E726F737461642F44C4
:106CA0006F63756D656E74732F4769744875622FD5
:106CB00042616368656C6F722D4E6F726469635FC9
:106CC00053656D692F636F6D706F6E656E74732F92
:106CD000647269766572735F6E72662F6770696F32
:106CE00074652F6E72665F6472765F6770696F7429
:106CF000652E63002F55736572732F73696D656E12
:106D0000726F737461642F446F63756D656E747315
:106D10002F4769744875622F42616368656C6F72B2
:106D20002D4E6F726469635F53656D692F6578617D
:106D30006D706C65732F626C655F706572697068E9
:106D40006572616C2F656873625F6E6F72646963F0
:106D50005F622F6D61696E2E630000009FCADC24A4
:106D60000EE5A9E093F3A3B50000406E2E2E2F2E62
:106D70002E2F2E2E2F2E2E2F2E2E2F2E2E2F636FB8
:106D80006D706F6E656E74732F6C6962726172697B
:106D900065732F6578706572696D656E74616C5F7F
:106DA00073656374696F6E5F766172732F6E72665E
:106DB0005F73656374696F6E5F697465722E6800D6
:106DC0002F55736572732F73696D656E726F73746F
:106DD00061642F446F63756D656E74732F476974BA
:106DE0004875622F42616368656C6F722D4E6F72D9
:106DF0006469635F53656D692F636F6D706F6E6556
:106E00006E74732F736F66746465766963652F6340
:106E10006F6D6D6F6E2F6E72665F7364682E6300A8
:106E200001000007886A0200886A0200080000006A
:106E3000886A0200906A020008000000906A02005E
:106E4000A06A0200080000002E2E2F2E2E2F2E2EBC
:106E50002F2E2E2F2E2E2F2E2E2F636F6D706F6ED6
:106E6000656E74732F6C69627261726965732F65E8
:106E700078706572696D656E74616C5F736563745B
:106E8000696F6E5F766172732F6E72665F73656392
:106E900074696F6E5F697465722E68002F55736533
:106EA00072732F73696D656E726F737461642F44B2
:106EB0006F63756D656E74732F4769744875622FC3
:106EC00042616368656C6F722D4E6F726469635FB7
:106ED00053656D692F636F6D706F6E656E74732F80
:106EE000736F66746465766963652F636F6D6D6F2C
:106EF0006E2F6E72665F7364685F626C652E6300EE
:106F0000886A0200886A0200080000002E2E2F2ED8
:106F10002E2F2E2E2F2E2E2F2E2E2F2E2E2F636F16
:106F20006D706F6E656E74732F6C696272617269D9
:106F300065732F6578706572696D656E74616C5FDD
:106F400073656374696F6E5F766172732F6E7266BC
:106F50005F73656374696F6E5F697465722E680034
:106F60002F55736572732F73696D656E726F7374CD
:106F700061642F446F63756D656E74732F47697418
:106F80004875622F42616368656C6F722D4E6F7237
:106F90006469635F53656D692F636F6D706F6E65B4
:106FA0006E74732F736F66746465766963652F639F
:106FB0006F6D6D6F6E2F6E72665F7364685F736F57
:106FC000632E6300806A0200886A020008000000E5
:086FD000010002000090D00353
:040000032000323D6A
:00000001FF
