:020000022000DC
:10300000000001203D32020095320200973202009A
:10301000993202009B3202009D3202000000000043
:103020000000000000000000000000009F320200CD
:10303000A132020000000000A3320200A53202000B
:1030400005350200AB320200AD320200AF320200A1
:10305000B1320200B3320200B5320200B7320200D0
:10306000B9320200BB320200BD320200BF320200A0
:10307000C1320200C3320200C5320200C732020070
:10308000C9320200CB320200CD320200CF32020040
:10309000D1320200D3320200393F0200D73202009F
:1030A000D9320200DB320200DD320200DF320200E0
:1030B000E1320200E3320200A7320200A73202002E
:1030C000E5320200E7320200E9320200EB32020090
:0C30D000ED320200EF320200F13202008B
:1030DC00364937480A1A02D0072291438D463549A2
:1030EC0035480A1A06D00722914381F30988022237
:1030FC0082F3148831483249324A00F045F832489C
:10310C003249334A00F040F832483349334A00F030
:10311C003BF833483349344A00F036F833483449E5
:10312C00344A00F031F834483449354A00F02CF870
:10313C0034483549354A00F027F8354835490022DE
:10314C0000F02DF834483549002200F028F83448B6
:10315C003449091A082903DB00220260043001609B
:10316C00314A90471F482049884205D002680430F4
:10317C0003B4904703BCF7E700208646EC460020DA
:10318C0000212A4A9047FEE7884207D0521A05D000
:10319C00037801300B700131013AF9D17047884244
:1031AC0002D002700130FAE77047000000000120E5
:1031BC0000F800200000012000000120B4410200B2
:1031CC003017002038170020F4320200F4320200CD
:1031DC0044410200B4410200301700203017002097
:1031EC006441020064410200644102006441020037
:1031FC006441020064410200644102006441020027
:10320C00B4410200BC4102003817002038170020DE
:10321C00381700205B1700205C1700205C1700207B
:10322C005C1700205C19002061320200BD350200E1
:10323C000F484FF00701884385460E4880470E48DB
:10324C00016841F470010160BFF34F8FBFF36F8FC2
:10325C00FFF73EBF09480A490A4A884207D0521A6A
:10326C0005D0037801300B700131013AF9D1704768
:10327C0000000120C53B020088ED00E06441020023
:10328C003017002030170020FEE7FEE7FEE7FEE7D0
:10329C00FEE7FEE7FEE7FEE7FEE7FEE7FEE7FEE7FA
:1032AC00FEE7FEE7FEE7FEE7FEE7FEE7FEE7FEE7EA
:1032BC00FEE7FEE7FEE7FEE7FEE7FEE7FEE7FEE7DA
:1032CC00FEE7FEE7FEE7FEE7FEE7FEE7FEE7FEE7CA
:1032DC00FEE7FEE7FEE7FEE7FEE7FEE7FEE7FEE7BA
:0832EC00FEE7FEE7FEE700BF6C
:1032F4001FB50021039001AA44F20100ADF80410A7
:10330400029100F003F805B05DF804FB084B1B685C
:10331400DB0700D5FFDEBFF34F8F0649064BCA68B3
:1033240002F4E0621343CB60BFF34F8F00BFFDE7AD
:10333400F0ED00E000ED00E00400FA0570B5EFF3F5
:10334400108672B60C4A946801239CB993600B4BA7
:103354000B4DD3F8801029401160C3F88050D3F886
:10336400841051604FF0FF32C3F88420047006B912
:1033740062B670BD0370FAE73817002000E100E080
:10338400FC06FFBD084B9A6810B55AB150B9EFF36B
:10339400108272B605491C680C605C684C609860C9
:1033A40002B962B610BD00BF3817002000E100E08A
:1033B4000B684A684360934208BF0023016008BF5A
:1033C40043607047436843B10268916852680B4494
:1033D4009342436004BF00234360704738B5084CF0
:1033E40004F108030546002818BF1C4623682BB1C6
:1033F4001A6822605B6828469847F7E738BD00BF23
:103404004C17002008B9FFF7E9BF7047064B0122AB
:103414001A604FF08042D2F8183413F48033FAD192
:10342400024A9370704700BF0C000040441700200C
:1034340010B50E4C2378BBB96360A360E3602361CD
:103444000B4B186810F0010002D1072100F086F838
:1034540000F056FD20B94FF080430122C3F818252F
:1034640001232370002010BD852010BD44170020C7
:1034740000E100E007B502A8002300F8013DFFF7D2
:103484005DFF074BDA68013ADA60DB680BB9FFF7D6
:10349400BDFF9DF80700FFF775FF03B05DF804FB5F
:1034A40044170020012813B509D003D303281BD0E7
:1034B40002B010BD104B0122C3F88020F8E702A827
:1034C40000230E4C00F8013DFFF738FF23780BB9B9
:1034D400FFF7AEFFE3689DF807000133E3600123C3
:1034E400A370FFF74FFFE3E70721002000F036F851
:1034F400FFF7C0FFDCE700BF00E100E04417002055
:10350400134B07B51A686AB1002018601B68009352
:103514004FF08042009B0123C2F808330D4A5370D8
:10352400FFF75CFF0C4B1A6872B100221A601B682B
:103534000193019B4FF080430222C3F80823054BFB
:1035440001209870FFF74AFF03B05DF804FB00BF49
:1035540000010040441700200401004000284FEA05
:103564004111BFBF00F00F020E4BC9B29954A8BF5E
:1035740000F1604300F01F024FEA5010A8BF03F5AA
:1035840061434FEA8000A8BFC9B200F16040A8BF00
:1035940083F8001300F5614001239340C0F88031A3
:1035A4000360704714ED00E03DDF70473EDF704775
:1035B40073DF704762DF704780B598B000F068FC35
:1035C40008B1FFF795FE18AC002344F83C3D0120F8
:1035D400214600F0DBFC08B1FFF78AFE204600F02C
:1035E4002FFD08B1FFF784FE0120FFF7DDFF3C2229
:1035F4000021204600F070FD04238DF827300123BC
:10360400ADF834301B4B0E931B4B05AA03F1100786
:10361400164618685968154603C50833BB422A463E
:10362400F7D116493046FFF7C5FF08B1FFF760FE32
:103634000021204600F057FA08B1FFF759FE102286
:10364400002101A800F048FD03238DF80430202256
:103654000023012101A802938DF80C30ADF80E204F
:10366400ADF81030FFF7A4FF08B1FFF741FEFFF7F4
:103674009DFFF9E730170020644102003217002053
:103684006DDF704772DF704779DF70477DDF704709
:1036940064DF70472DE9F74F0C9CBDF834B02788E0
:1036A400002580468A4691462E46B8F80020964268
:1036B4000BDB35B12288013AD21B92B2FF2A39D8EA
:1036C400DA55002003B0BDE8F08FD8F8042052F892
:1036D4002600019000220DF1030101A8FFF7D8FF95
:1036E4000028EFD19DF803204A4521D12288002DDE
:1036F40014BF0020022002EB09010144594519DCE2
:103704003DB9013292B2228003F802A0228801322C
:10371400228022880DF103011A4401A8FFF7B8FFA3
:103724000028CFD121889DF803200A442280012556
:103734000136BAE70C20C5E72DE9F341089CBDF832
:10374400245017468DE8300002220646FFF7A2FFF8
:1037540048B91022394630460995089402B0BDE8AC
:10376400F041FFF797BF02B0BDE8F0812DE9F04FBB
:1037740000231688138090F82D3085B007460D4637
:10378400144643B3082E4ED902A8FFF779FF002848
:1037940040F0018113880822CA54238801339BB264
:1037A4001B222380CA542088013080B22080062244
:1037B4000DF10901284400F065FC23889DF80820D8
:1037C40006339BB212F0FE0218BF01222380EA5492
:1037D400238801332380BB78FBB123880433B342AD
:1037E40021D802A8FFF750FF002840F0D480238896
:1037F4000322EA54238801339BB219222380EA541A
:103804002388BDF8082001339BB2E9182380EA54C9
:10381400120A4A70238802332380FA78AAB12388D3
:10382400D91CB14201D90C20B5E00221E954238806
:1038340001339BB201212380E95423880B449BB2BA
:103844002380EA5423880B4423807A68AAB123880E
:10385400D91CB142E7D8022192F90020E954238807
:1038640001339BB20A212380E954238801339BB29C
:103874002380EA542388013323803B89002B7ED1A3
:103884003B8A53B18DE850002B460722032107F1F0
:103894001000FFF751FF00287DD13B8B53B18DE819
:1038A40050002B461522142107F11800FFF744FF9E
:1038B400002870D13A6A002A70D1D7F82480B8F170
:1038C400000F2ED0B8F804302188981C8A1C0244BA
:1038D400B242A8D8FE28A6D803336B5423880133F8
:1038E4009BB2FF222380EA54238801339BB22380B6
:1038F400B8F80020EA54E918120A4A702088023005
:1039040080B22080B8F804205AB1D8F808100029F1
:103914004ED0284400F0B6FB2388B8F804201344A2
:10392400238097F82C30002B7DD1387898B33B88CE
:10393400012B3DD0228802F1020EB6453FF673AF4B
:10394400012805D17B78023313449E42FFF46BAF08
:10395400023EB61A04A9B6B221F8086D05EB0E00B2
:10396400FFF794FEB8B93B78022B40F09F80BDF876
:103974000830B34240F2B580ADF808609FE08DE8AE
:1039840050002B460622022107F10800FFF7D4FE5F
:1039940000283FF475AF05B0BDE8F08FB4F800E03F
:1039A4000EF10603B3423FF63EAF1188052901D854
:1039B4000720F0E76FF4486C01EB0C039BB24FF265
:1039C4007D3C6345F4D95388052BF1D96FF44860E5
:1039D400181880B26045EBD94FF6FF70814203D0CE
:1039E400834201D09942E3D8052305F80E30238899
:1039F40001339BB212212380E954238801339BB203
:103A040023801188E954E818090A41702388023395
:103A14009BB223805288EA54E918120A4A70238818
:103A24000233238049E7BB6A002BC1D04FF0000961
:103A34004FF00C0A4FF0160B97F82C305FFA89F20E
:103A440093427FF672AFB96A0AFB02F201EB0208F5
:103A5400B8F80430981CFE283FF6E5AE20880333FE
:103A64002B54238801339BB2238005F803B02388A9
:103A740001339BB223808A5AEA54E918120A4A7025
:103A84002088023080B22080B8F804205AB1D8F8D7
:103A9400081000298CD0284400F0F4FA2388B8F8E0
:103AA40004201344238009F10109C5E7012B7FF4A5
:103AB40063AF7B789E42FFF45FAFADF80830082116
:103AC400BDF80830FE2B3FF6AEAE22880133AB546E
:103AD4002288013292B22280A9542288134423807E
:103AE40059E70921ECE730B593B01F230D46ADF833
:103AF4000430ADF80630044628B1C3785B071DD402
:103B0400072013B030BDADF8040065B1EB78002B8D
:103B1400F6D10DF106020AA92846FFF727FE002870
:103B2400EFD10AAA02E0ADF806502A469DF8063005
:103B34009DF804102046FFF7A5FDE2E701AA02A9BB
:103B4400FFF714FE0028DCD102ACDEE7094B1B783A
:103B5400062B0CD1084B1B681A0708D1074B1868B1
:103B640000F0F000A0F130035842584170470020A3
:103B7400704700BFE00F00F0E40F00F0E80F00F022
:103B84000C4B1B78062B10D10B4B1B681A070CD15E
:103B94000A4B186800F0F003302B08D000F0E00066
:103BA400A0F140035842584170470020704701205B
:103BB400704700BFE00F00F0E40F00F0E80F00F0E2
:103BC40008B5FFF7DDFF28B1774B784A1B68C3F3CC
:103BD40004231360FFF7BAFF10B1754B754A1A60DE
:103BE400FFF7CEFF28B1744B744A1B68C3F342330A
:103BF4001360FFF7ABFF20B1714AD36823F08073E1
:103C0400D360FFF7BDFF40B14FF080430022C3F8FB
:103C14000C21C3F81021C3F83825FFF797FF10B122
:103C2400684B03221A60FFF791FF40B1664B0522EF
:103C34001A6001229A6700229A603F225A60634BFD
:103C44001B78062B09D1624B1B68190705D1614B00
:103C54001B6803F0F003502B5ED0FFF791FF28B1EF
:103C64005D4B5E4A1B6803F04F031360FFF788FF48
:103C740048B14FF08043D3F80024D20744BF6FF01B
:103C84000102C3F80024564AD2F8883043F4700382
:103C9400C2F88830BFF34F8FBFF36F8F4FF01023FC
:103CA400D3F80022002A03DBD3F80432002B2FDAE6
:103CB4004C4B0122C3F80425D3F80024002AFBD07E
:103CC4004FF010221521C2F80012D3F80024002A64
:103CD400FBD04FF010231522C3F80422414B1A469F
:103CE400D3F800140029FBD00021C3F80415D2F83E
:103CF4000034002BFBD0BFF34F8F39493A4BCA68CD
:103D040002F4E0621343CB60BFF34F8F00BFFDE7C3
:103D1400364B374A1A6008BD4FF08052354BD2F803
:103D24000414C3F82015D2F80814C3F82415D2F8E3
:103D34000C14C3F82815D2F81014C3F82C15D2F8B3
:103D44001414C3F83015D2F81814C3F83415D2F883
:103D54001C14C3F84015D2F82014C3F84415D2F843
:103D64002414C3F84815D2F82814C3F84C15D2F813
:103D74002C14C3F85015D2F83014C3F85415D2F8E3
:103D84003414C3F86015D2F83814C3F86415D2F8A3
:103D94003C14C3F86815D2F84014C3F86C15D2F873
:103DA4004424C3F8702558E724030010403501402B
:103DB40074C007400DF0ADBA440200103C05004049
:103DC400F0ED00E0A005004010560040E00F00F0C8
:103DD400E40F00F0E80F00F058020010E40E004079
:103DE40000ED00E000E001400400FA053417002073
:103DF4000090D00300C0004010DF704713B50446A4
:103E040009496846FFF7D4FA019808B902B010BD11
:103E1400036841682046984718B16846FFF7D2FA0C
:103E2400F2E71120F2E700BF7841020013B504461F
:103E340007496846FFF7BCFA019B0BB902B010BDF5
:103E440020461A68596890476846FFF7BBFAF3E7BB
:103E5400904102000C4A92F816335B09012B01D9F8
:103E6400042B08D142F20200FFF742BA1A6842F466
:103E740080021A607047054B99680029F6D14FF407
:103E840080031360704700BF00E100E03817002092
:103E9400F7B5154F3C782CBB144E012520463570E0
:103EA400FFF7ACFF11281AD02046FFF7BFFF104BD5
:103EB40010491868019001A8FFF79EFF044670B9E5
:103EC4000D4B307018700D4B3D70E02283F81623B3
:103ED40083F81523FFF7BEFF2846FFF7A7FF204608
:103EE40003B0F0BD0824FAE7591700205817002042
:103EF40074410200113302005A17002000E100E06F
:103F0400014B1878704700BF5917002007B50849BE
:103F14006846FFF74DFA019B13B903B05DF804FB43
:103F240058681A6890476846FFF74CFAF3E700BFF1
:103F340084410200FFF7EABF60DF704769DF704722
:103F440061DF704730B5104D93B038240DF1060190
:103F540004A8ADF80640FFF7F3FF70B9294602A89C
:103F6400FFF726FA039B002BF0D004A81A685968BF
:103F7400904702A8FFF726FAF4E7052801D0FFF7D7
:103F8400B7F913B030BD00BF9C4102007FB50446B1
:103F94000D4600294FD0294B0B600C22002101A8AB
:103FA40000F09AF8012603232A68ADF8083001A925
:103FB40020208DF804408DF80660FFF7BFFF0C2227
:103FC400002101A800F088F800242A688DF8044034
:103FD40001A940208DF805408DF80640FFF7AEFF9B
:103FE4000C22214601A800F077F82A688DF80460B5
:103FF40001A93046FFF7A2FF0C22214601A800F0D8
:104004006BF8F8232A68019301A9A120FFF796FF12
:104014000C22214601A800F05FF89DF804302A68BC
:1040240064F3000301A9A0208DF80430FFF786FF94
:10403400204604B070BD0E20FBE700BF30170020FF
:10404400FFF77ABF48DF70471FB50D4C01A8FFF793
:10405400F9FF70B9214602A8FFF7AAF9039B002BC8
:10406400F4D001981A685968904702A8FFF7AAF992
:10407400F4E7052801D0FFF73BF904B010BD00BFF9
:10408400A8410200844640EA010313F0030F18D14B
:104094008446202A0BD32DE9F007B1E8F807A0E8FD
:1040A400F807A2F12002202AF7D2BDE8F007042A7B
:1040B40007D351F8043B40F8043BA2F10402042A5C
:1040C400F7D2002A05D011F8013B00F8013B013A70
:1040D400F9D16046704700BF8446002A2DD010F005
:1040E400030F04D000F8011B013A26D0F7E7C9B248
:1040F40041EA012141EA0141202A12D3A2F120021E
:104104002DE9F0030B460C460D460E460F46884635
:104114008946A0E8FA03203AFBD2BDE8F003203236
:104124000BD0042A05D340F8041B043A05D0042A12
:10413400F9D200F8011B013AFBD16046704700BF79
:08414400093402000000000034
:08414C00A9340200000000008C
:10415400493F0200000000004D4002000000000042
:104164009FCADC240EE5A9E093F3A3B50000406EDA
:10417400010000014C4102004C4102000800000013
:104184005441020064410200080000004C41020056
:1041940054410200080000004C4102004C4102005E
:1041A40008000000444102004C41020008000000E5
:0841B400010002000090D0039D
:040000032000323D6A
:00000001FF
