:020000022000DC
:10300000000001203D32020095320200973202009A
:10301000993202009B3202009D3202000000000043
:103020000000000000000000000000009F320200CD
:10303000A132020000000000A3320200A53202000B
:1030400039390200AB320200AD320200AF32020069
:10305000B1320200B3320200B5320200B7320200D0
:10306000B9320200BB320200BD320200BF320200A0
:10307000C1320200C3320200C5320200C732020070
:10308000C9320200CB320200CD320200CF32020040
:10309000D1320200D332020039460200D732020098
:1030A000D9320200DB320200DD320200DF320200E0
:1030B000E1320200E3320200A7320200A73202002E
:1030C000E5320200E7320200E9320200EB32020090
:0C30D000ED320200EF320200F13202008B
:1030DC00364937480A1A02D0072291438D463549A2
:1030EC0035480A1A06D00722914381F30988022237
:1030FC0082F3148831483249324A00F045F832489C
:10310C003249334A00F040F832483349334A00F030
:10311C003BF833483349344A00F036F833483449E5
:10312C00344A00F031F834483449354A00F02CF870
:10313C0034483549354A00F027F8354835490022DE
:10314C0000F02DF834483549002200F028F83448B6
:10315C003449091A082903DB00220260043001609B
:10316C00314A90471F482049884205D002680430F4
:10317C0003B4904703BCF7E700208646EC460020DA
:10318C0000212A4A9047FEE7884207D0521A05D000
:10319C00037801300B700131013AF9D17047884244
:1031AC0002D002700130FAE77047000000000120E5
:1031BC0000F800200000012000000120944E0200C5
:1031CC003017002034170020F4320200F4320200D1
:1031DC004C490200944E020030170020301700209A
:1031EC006C4902006C4902006C4902006C490200F7
:1031FC006C4902006C4902006C4902006C490200E7
:10320C00944E0200984E0200341700203417002010
:10321C00341700207717002078170020781700202B
:10322C007817002078190020613202000D3C020052
:10323C000F484FF00701884385460E4880470E48DB
:10324C00016841F470010160BFF34F8FBFF36F8FC2
:10325C00FFF73EBF09480A490A4A884207D0521A6A
:10326C0005D0037801300B700131013AF9D1704768
:10327C0000000120513C020088ED00E06C49020086
:10328C003017002030170020FEE7FEE7FEE7FEE7D0
:10329C00FEE7FEE7FEE7FEE7FEE7FEE7FEE7FEE7FA
:1032AC00FEE7FEE7FEE7FEE7FEE7FEE7FEE7FEE7EA
:1032BC00FEE7FEE7FEE7FEE7FEE7FEE7FEE7FEE7DA
:1032CC00FEE7FEE7FEE7FEE7FEE7FEE7FEE7FEE7CA
:1032DC00FEE7FEE7FEE7FEE7FEE7FEE7FEE7FEE7BA
:0832EC00FEE7FEE7FEE700BF6C
:1032F40000B589B0039002910192029B9BB2ADF894
:103304001430019B0693039B079305AB1A460021D7
:1033140044F2010000F050F800BF09B05DF804FB6E
:1033240086B003900291019201238DF817309DF825
:103334001730204A039B13601E4A029B53601D4AA8
:10334400019B9360039B44F20102934212D044F226
:103354000202934222D1019B164AD360154BDB68CB
:103364001B881A46134B9A61124BDB685B68114A3F
:10337400D36113E0019B0F4A13610E4B1B699B68D9
:103384000C4A53610B4B1B691B881A46094B9A6103
:10339400084B1B695B68074AD36100BF72B600BF64
:1033A4009DF81730DBB2002BFAD162B600BF06B02D
:1033B400704700BF3417002000B587B00390029116
:1033C4000192039B41F20102934215D041F20102A2
:1033D400934202D8012B11D011E044F2010293422E
:1033E40007D044F20202934200D008E0019B059307
:1033F40005E0019B049302E000BF00E000BF084B1E
:103404001B6803F00103002B00D0FFDE019A029930
:103414000398FFF785FF00BF07B05DF804FB00BF0A
:10342400F0ED00E082B0EFF310830093009B019372
:1034340072B6019B184602B0704762B600BF70476F
:1034440000B585B00190FFF7EDFF0390164B9B6824
:10345400002B1BD1144B01229A60144BD3F880200B
:10346400134B1340104A1360104B114AC3F88020C9
:103474000E4BD3F884300C4A53600C4B4FF0FF32A0
:10348400C3F88420019B00221A7002E0019B0122F0
:103494001A70039B002B01D1FFF7CFFF00231846BE
:1034A40005B05DF804FB00BF5417002000E100E004
:1034B400FC06FFBD00B585B003468DF80730104B00
:1034C4009B68002B16D09DF80730002B12D1FFF714
:1034D400A9FF03900B4A0A4B1B681360094A084B67
:1034E4005B685360064B00229A60039B002B01D15A
:1034F400FFF7A3FF0023184605B05DF804FB00BFE7
:103504005417002000E100E000B583B0019000F002
:103514002BF80346012B03D00549432000F041F862
:103524000198FFF78DFF00BF03B05DF804FB00BFF7
:103534006C49020000B583B003468DF8073000F0F3
:1035440013F80346012B03D00649512000F029F853
:103554009DF807301846FFF7ADFF00BF03B05DF8D4
:1035640004FB00BF6C49020084B0EFF305830193B0
:10357400019BC3F308030393039B002B0DD1EFF3CB
:1035840014830093009B0293029B03F00103002B1E
:103594000CBF01230023DBB200E00123184604B072
:1035A400704700B585B003460091ADF80630BDF80C
:1035B4000630ADF80830009B039302AB1A46002195
:1035C40044F20200FFF7F8FE00BF05B05DF804FB0B
:1035D40000B583B001900091019B002B03D11049E9
:1035E4005020FFF7DEFF009B002B03D10C49512034
:1035F400FFF7D7FF019B009A1A60019B1B681A68AA
:10360400019B5A60019B5A68019B1B685B689A4244
:1036140002D1019B00225A6000BF03B05DF804FB95
:10362400E849020000B583B00190019B002B03D14F
:1036340014496320FFF7B5FF019B1B68002B03D1DE
:1036440010496420FFF7ADFF019B5B68002B14D089
:10365400019B5B681A46019B1B689B6813441A46CE
:10366400019B5A60019B5A68019B1B685B689A42E4
:1036740004D1019B00225A6000E000BF03B05DF852
:1036840004FB00BFE849020082B003468DF807300E
:1036940008499DF907305B099DF8072002F01F02D5
:1036A400012000FA02F2203341F8232000BF02B0C7
:1036B400704700BF00E100E082B001904FF080420B
:1036C400019BC2F8083300BF02B0704782B00346C2
:1036D4008DF807309DF8073003F1804301221A600A
:1036E40000BF02B0704784B00346ADF80630BDF8A1
:1036F400063003F1804300221A60BDF8063003F15E
:1037040080431B680393039B00BF04B0704782B0DF
:103714000346ADF80630BDF8063003F180431B685C
:10372400002B14BF01230023DBB2184602B07047FC
:1037340082B003468DF807304FF080429DF8073081
:1037440003F00303C2F8183500BF02B070474FF00E
:103754008043D3F818341B0C03F00103002B14BF6F
:1037640001230023DBB218467047000082B00346F1
:103774008DF807300A4A9DF907305B0952F8232077
:103784009DF8073003F01F03012101FA03F31340EE
:10379400002B14BF01230023DBB2184602B070478C
:1037A40000E100E008B50020FFF7E0FF034683F0E6
:1037B4000103DBB2002B03D00721002000F096F9AF
:1037C40000BF08BD08B500F009FF034683F00103FC
:1037D400DBB2002B03D109498420FFF7E2FE0C2061
:1037E400FFF774FF00BFFFF7B2FF0346002BFAD1C7
:1037F400034B00229A7000BF08BD00BF784A020044
:103804006017002000B583B000230193134B1B788D
:10381400002B02D0852301931BE0104B00229A60F9
:103824000E4B00225A600D4B00221A610B4B0022F2
:10383400DA60FFF7B7FF00F0D1FE034683F001031F
:10384400DBB2002B02D00120FFF772FF034B0122F1
:103854001A70019B184603B05DF804FB6017002042
:1038640084B00190019B1B680393039B002B03D03E
:10387400039B1A68019B1A60039B184604B07047A7
:1038840000B583B0164B1B78002B04D115494FF4B7
:103894008E70FFF786FE124BDB68002B04D11149B2
:1038A40040F21D10FFF77DFE00238DF807300DF167
:1038B40007031846FFF728FE094BDB68013B084A5B
:1038C400D360074BDB68002B01D1FFF77BFF9DF82A
:1038D40007301846FFF72EFE00BF03B05DF804FB67
:1038E40060170020784A020000B585B003468DF8C1
:1038F40007309DF80730002B02D10C4B039301E0F5
:103904000B4B03930398FFF7ABFF0290029B002B32
:1039140006D0029B5B689DF8072010469847F1E7A4
:1039240000BF00BF05B05DF804FB00BF68170020AE
:103934007017002008B54FF48070FFF7E8FE0346C7
:10394400002B0CD04FF48070FFF7CDFE0120FFF761
:10395400B3FE0E4B01225A700020FFF7C5FF4FF44F
:103964008270FFF7D4FE0346002B0CD04FF4827014
:10397400FFF7B9FE0220FFF79FFE044B01229A7065
:103984000120FFF7B1FF00BF08BD00BF6017002092
:1039940000B583B001900091019B002B02D100205F
:1039A400FFF7A2FF00BF03B05DF804FB00B585B0CC
:1039B400034600918DF807309DF80730012B08D09D
:1039C400032B25D0002B00D032E00020FFF75CFE53
:1039D4002EE000238DF80F300DF10F031846FFF78A
:1039E40093FD154B1B7883F00103DBB2002B01D050
:1039F400FFF708FF104BDB6801330F4AD3600E4B0F
:103A040001229A709DF80F301846FFF793FD0FE0DE
:103A1400094B1B78002B04D1084940F25B20FFF7C7
:103A2400C0FD0721002000F061F8FFF729FF00BF67
:103A340000BF05B05DF804FB60170020784A02005F
:103A440082B003468DF8073007499DF907305B09BA
:103A54009DF8072002F01F02012000FA02F241F84B
:103A6400232000BF02B0704700E100E082B00346AB
:103A74008DF8073008499DF907305B099DF8072048
:103A840002F01F02012000FA02F2603341F8232001
:103A940000BF02B0704700BF00E100E082B00346FF
:103AA40000918DF807309DF90730002B0CDA0D4991
:103AB4009DF8073003F00F03043B009AD2B2520181
:103AC400D2B20B441A7609E007499DF90730009AEF
:103AD400D2B25201D2B20B4483F8002300BF02B029
:103AE400704700BF00ED00E000E100E000B583B0E6
:103AF40003460A468DF8073013468DF806309DF8C4
:103B04000630012B03D99DF80630032B0CD99DF800
:103B14000630042B03D99DF80630072B04D90D4930
:103B24004FF49270FFF73DFD9DF806209DF9073094
:103B340011461846FFF7B2FF9DF907301846FFF704
:103B440095FF9DF907301846FFF77AFF00BF03B0D1
:103B54005DF804FBF04A02003DDF704700BF1846E1
:103B64003EDF704700BF184600B587B000F0F2FC96
:103B74000590059B0493049B002B04D0164A422114
:103B84000498FFF7B5FB0023019301AB194601200C
:103B940000F086FD0590059B0393039B002B04D046
:103BA4000D4A48210398FFF7A3FB01AB184600F028
:103BB400EFFD0590059B0293029B002B04D0064A5F
:103BC4004C210298FFF794FB0120FFF7C5FF00BFCB
:103BD40007B05DF804FB00BF6C4B020000B583B076
:103BE400FFF7BEFF0190019B0093009B002B04D0C4
:103BF400044A56210098FFF77BFB00BF03B05DF831
:103C040004FB00BF6C4B020008B5FFF7ADFFFFF7E4
:103C1400E5FFFCE7BFF34F8F0549054BDB6803F471
:103C2400E062044B1343CB60BFF34F8F00BFFDE74B
:103C340000ED00E00400FA05024B034A1A6000BFDD
:103C4400704700BF301700200090D00308B500F083
:103C54005BF90346002B06D09A4A9B4B1B681B0A50
:103C640003F01F03136000F07BF90346002B02D01E
:103C7400964B974A1A6000F08FF90346002B06D042
:103C8400944A954B1B685B0B03F00703136000F029
:103C9400AFF90346002B05D0904A904BDB6823F024
:103CA4008073D36000F0C0F90346002B0ED04FF0B0
:103CB40080430022C3F80C214FF080430022C3F854
:103CC40010214FF080430022C3F8382500F0D8F9C2
:103CD4000346002B02D0824B03221A6000F0ECF959
:103CE4000346002B0BD07F4B05221A607E4B01222A
:103CF4001A607E4B00221A607D4B3F221A6000F04E
:103D0400F7F90346002B76D07A4A4FF08053D3F864
:103D14000434C2F82035774A4FF08053D3F808347E
:103D2400C2F82435734A4FF08053D3F80C34C2F8E8
:103D34002835704A4FF08053D3F81034C2F82C352C
:103D44006C4A4FF08053D3F81434C2F83035694AC2
:103D54004FF08053D3F81834C2F83435654A4FF025
:103D64008053D3F81C34C2F84035624A4FF0805374
:103D7400D3F82034C2F844355E4A4FF08053D3F868
:103D84002434C2F848355B4A4FF08053D3F82834C2
:103D9400C2F84C35574A4FF08053D3F82C34C2F84C
:103DA4005035544A4FF08053D3F83034C2F8543568
:103DB400504A4FF08053D3F83434C2F860354D4A3A
:103DC4004FF08053D3F83834C2F86435494A4FF081
:103DD4008053D3F83C34C2F86835464A4FF08053D8
:103DE400D3F84034C2F86C35424A4FF08053D3F8CC
:103DF4004434C2F8703500F097F90346002B05D01F
:103E04003D4A3E4B1B6803F04F03136000F0B8F9C2
:103E14000346002B0DD04FF08043D3F8003403F059
:103E24000103002B05D04FF080436FF00102C3F86B
:103E34000024334A324BD3F8883043F47003C2F879
:103E44008830BFF34F8FBFF36F8F4FF01023D3F839
:103E54000032002B05DB4FF01023D3F80432002B83
:103E64002BDA284B0122C3F8042500BF254BD3F8D5
:103E74000034002BFAD04FF010231522C3F800228F
:103E840000BF204BD3F80034002BFAD04FF010239E
:103E94001522C3F8042200BF1A4BD3F80034002BB8
:103EA400FAD0184B0022C3F8042500BF154BD3F8F1
:103EB4000034002BFAD0FFF7ADFEFFF7BDFE00BFC4
:103EC40008BD00BF403501402403001074C0074002
:103ED4000DF0ADBA3C05004044020010F0ED00E0E6
:103EE400A005004010560040885600401856004077
:103EF4001456004000C00040E40E00405802001078
:103F040000ED00E000E00140124B1B68DBB2062B21
:103F14001DD1114B1B6803F00F03002B17D10F4B5E
:103F24001B6803F0F003302B01D1012310E00B4B8D
:103F34001B6803F0F003402B01D1012308E0074B79
:103F44001B6803F0F003502B01D1012300E0002390
:103F540018467047E00F00F0E40F00F0E80F00F09F
:103F64000A4B1B68DBB2062B0DD1094B1B6803F00F
:103F74000F03002B07D1074B1B6803F0F003302B12
:103F840001D1012300E0002318467047E00F00F040
:103F9400E40F00F0E80F00F0124B1B68DBB2062BB5
:103FA4001DD1114B1B6803F00F03002B17D10F4BCE
:103FB4001B6803F0F003302B01D1012310E00B4BFD
:103FC4001B6803F0F003402B01D1012308E0074BE9
:103FD4001B6803F0F003502B01D1012300E0002300
:103FE40018467047E00F00F0E40F00F0E80F00F00F
:103FF4000A4B1B68DBB2062B0DD1094B1B6803F07F
:104004000F03002B07D1074B1B6803F0F003302B81
:1040140001D1012300E0002318467047E00F00F0AF
:10402400E40F00F0E80F00F0124B1B68DBB2062B24
:104034001DD1114B1B6803F00F03002B17D10F4B3D
:104044001B6803F0F003302B01D1012310E00B4B6C
:104054001B6803F0F003402B01D1012308E0074B58
:104064001B6803F0F003502B01D1012300E000236F
:1040740018467047E00F00F0E40F00F0E80F00F07E
:104084000A4B1B68DBB2062B0DD1094B1B6803F0EE
:104094000F03002B07D1074B1B6803F0F003302BF1
:1040A40001D1012300E0002318467047E00F00F01F
:1040B400E40F00F0E80F00F00A4B1B68DBB2062B9C
:1040C4000DD1094B1B6803F00F03002B07D1074BDD
:1040D4001B6803F0F003302B01D1012300E000231F
:1040E40018467047E00F00F0E40F00F0E80F00F00E
:1040F4000A4B1B68DBB2062B0DD1094B1B6803F07E
:104104000F03002B07D1074B1B6803F0F003502B60
:1041140001D1012300E0002318467047E00F00F0AE
:10412400E40F00F0E80F00F0124B1B68DBB2062B23
:104134001DD1114B1B6803F00F03002B17D10F4B3C
:104144001B6803F0F003302B01D1012310E00B4B6B
:104154001B6803F0F003402B01D1012308E0074B57
:104164001B6803F0F003502B01D1012300E000236E
:1041740018467047E00F00F0E40F00F0E80F00F07D
:10418400124B1B68DBB2062B1DD1114B1B6803F0CD
:104194000F03002B17D10F4B1B6803F0F003302BD8
:1041A40001D1012310E00B4B1B6803F0F003402BFB
:1041B40001D1012308E0074B1B6803F0F003502BE7
:1041C40001D1012300E0002318467047E00F00F0FE
:1041D400E40F00F0E80F00F082B003468DF80730DA
:1041E40007499DF907305B099DF8072002F01F027B
:1041F400012000FA02F241F8232000BF02B0704708
:1042040000E100E082B0034600918DF807309DF98B
:104214000730002B0CDA0D499DF8073003F00F032B
:10422400043B009AD2B25201D2B20B441A7609E08E
:1042340007499DF90730009AD2B25201D2B20B4419
:1042440083F8002300BF02B0704700BF00ED00E018
:1042540000E100E082B003468DF807309DF9073095
:10426400002B0BDA0B4A9DF8073003F00F03043BD5
:1042740013441B7EDBB25B09DBB208E0064A9DF9FE
:104284000730134493F80033DBB25B09DBB2184602
:1042940002B0704700ED00E000E100E000B583B03B
:1042A4000190019B002B03D10449C420FFF779F945
:1042B400019B5B68184603B05DF804FBDC4B02000D
:1042C40010DF704700BF184682B003468DF80730F0
:1042D4009DF907301F2B0CDC9DF907300F4A22FA99
:1042E40003F303F00103002B14BF01230023DBB20B
:1042F40010E09DF907303F2B0BDC9DF90730203B84
:10430400012202FA03F3002B14BF01230023DBB2C2
:1043140000E00123184602B0704700BFFC06FFBD51
:1043240082B00190019B072B01D900230BE0019B74
:10433400002B05D0019B012B02D0019B042B01D142
:10434400002300E00123184602B0704700B583B093
:1043540003468DF807309DF907301846FFF7B4FF80
:104364000346002B02D142F201032DE09DF90730F0
:104374001846FFF76FFF03461846FFF7D1FF0346C1
:10438400002B02D142F202031EE0114B9B68002B6A
:1043940014D09DF907305B099DF9072052090C4997
:1043A40051F822209DF8071001F01F01012000FAA6
:1043B40001F10A43064941F8232004E09DF907303E
:1043C4001846FFF709FF0023184603B05DF804FB05
:1043D4005417002000B583B0034600918DF80730D0
:1043E4009DF907301846FFF76FFF0346002B02D1F3
:1043F40042F201030FE00098FFF792FF0346002BFF
:1044040002D142F2020306E09DF9073000991846F2
:10441400FFF7F8FE0023184603B05DF804FB000024
:1044240000B587B003468DF8073002AB144918462F
:10443400FFF7CEF817E002AB1846FFF72FFF059001
:10444400059B1B680493059B59689DF80720049BF2
:10445400104698470346002B01D111230BE002AB11
:104464001846FFF7DFF802AB1846FFF717FF0346BD
:10447400002BE0D10023184607B05DF804FB00BF11
:10448400B04C020000B587B003468DF8073002AB8C
:1044940011491846FFF79CF812E002AB1846FFF7E3
:1044A400FDFE0590059B1B680493059B59689DF8C8
:1044B4000720049B1046984702AB1846FFF7B2F852
:1044C40002AB1846FFF7EAFE0346002BE5D100BF16
:1044D40007B05DF804FB00BFBC4C020000B583B01C
:1044E4001620FFF733FF0190019B0093009B002BE4
:1044F40004D0044A99210098FEF7FAFE00BF03B0E5
:104504005DF804FB384C020000B585B00721162085
:10451400FFF760FF0390039B0293029B002B04D0E0
:104524000B4AB8210298FEF7E3FE07211520FFF796
:1045340051FF0390039B0193019B002B04D0044A79
:10454400BA210198FEF7D4FE00BF05B05DF804FB64
:10455400384C020000B583B01B4B1B78002B01D0F4
:1045640008232CE0194B01221A700020FFF758FF92
:104574000346112B01D1002321E00020FFF782FF25
:10458400134B1B6800936B4612491846FFF798FEBD
:104594000190019B002B01D0019B10E00A4B0122EA
:1045A4001A700A4B00221A700B4B00221A70FFF784
:1045B400ABFFFFF793FF0120FFF764FF00231846CA
:1045C40003B05DF804FB00BF7417002076170020C9
:1045D400AC4C0200BD33020075170020014B1B7860
:1045E400184670477417002000B585B06B46104913
:1045F4001846FEF7EDFF10E06B461846FFF74EFE37
:104604000390039B1B680293039B5A68029B10460A
:1046140098476B461846FFF705F86B461846FFF7B0
:104624003DFE0346002BE7D100BF05B05DF804FB57
:10463400C84C020008B5FFF7D7FF00BF08BD60DF14
:10464400704700BF184669DF704700BF184661DF36
:10465400704700BF1846000000B583B00190019B6D
:10466400002B03D10449C420FEF79BFF019B5B6828
:10467400184603B05DF804FBD44C020082B00190EC
:10468400019B002B01D10E2304E0044B1A46019B2D
:104694001A600023184602B0704700BF301700208C
:1046A40000B587B0034600918DF807300098FFF7F6
:1046B400E5FF0590059B002B01D0059B64E002AB50
:1046C4000C220021184600F00BF99DF807308DF8F4
:1046D400083001238DF80A300323ADF80C30009B19
:1046E4001A6802AB19462020FFF7ADFF059002AB14
:1046F4000C220021184600F0F3F800238DF808304E
:1047040000238DF8093000238DF80A30009B1A68C5
:1047140002AB19464020FFF796FF059002AB0C222E
:104724000021184600F0DCF801238DF80830009BC6
:104734001A6802AB19460120FFF785FF059002AB0A
:104744000C220021184600F0CBF8F8230293009BBA
:104754001A6802AB1946A120FFF775FF059002AB5A
:104764000C220021184600F0BBF89DF808306FF3C6
:1047740000038DF80830009B1A6802AB1946A0208C
:10478400FFF761FF05900023184607B05DF804FBAE
:1047940000B585B00190019B1B6803930198FFF756
:1047A4004EFF0290029B184605B05DF804FB000022
:1047B40000B599B001903823ADF84E300DF14E029A
:1047C40003AB11461846FFF742FF1790179B002BC7
:1047D40003D0179B052B22D127E003AB169311AB13
:1047E40014491846FEF7F4FE11E011AB1846FFF722
:1047F40033FF1590159B1B681493159B5A68149BE3
:1048040011461698984711AB1846FEF70BFF11ABEB
:104814001846FFF721FF0346002BE6D1CBE7064AF3
:1048240040F221111798FEF763FD00BF19B05DF83F
:1048340004FB00BFA84D0200304D020000B583B058
:104844000190019B002B03D10449C420FEF7A9FE6B
:10485400019B5B68184603B05DF804FBB44D02008D
:1048640048DF704700BF184600B589B0019004AB1B
:104874001846FFF7F5FF0790079B002B03D0079B13
:10488400052B20D124E002AB13491846FEF7A0FE05
:1048940011E002AB1846FFF7D1FF0690069B1B6898
:1048A4000593049A069B5968059B1046984702ABEA
:1048B4001846FEF7B7FE02AB1846FFF7BFFF0346E4
:1048C400002BE6D1D3E7054A6B210798FEF710FDCC
:1048D40000BF09B05DF804FB884E0200104E0200D0
:1048E4008446002A2DD010F0030F04D000F8011BD9
:1048F400013A26D0F7E7C9B241EA012141EA014170
:10490400202A12D3A2F120022DE9F0030B460C4613
:104914000D460E460F4688468946A0E8FA03203A1B
:10492400FBD2BDE8F00320320BD0042A05D340F8B3
:10493400041B043A05D0042AF9D200F8011B013AF9
:08494400FBD16046704700BF83
:08494C00953902000000000093
:08495400B1390200000000006F
:10495C00B5470200000000006D4802000000000096
:10496C002F55736572732F73696D656E726F7374E7
:10497C0061642F446F63756D656E74732F47697432
:10498C004875622F42616368656C6F722D4E6F7251
:10499C006469635F53656D692F4669726D776172E7
:1049AC00652F45787465726E616C2F636F6D706FD7
:1049BC006E656E74732F6C69627261726965732FA8
:1049CC007574696C2F6170705F7574696C5F706C55
:1049DC006174666F726D2E63000000002F55736555
:1049EC0072732F73696D656E726F737461642F448B
:1049FC006F63756D656E74732F4769744875622F9C
:104A0C0042616368656C6F722D4E6F726469635F8F
:104A1C0053656D692F4669726D776172652F4578A4
:104A2C007465726E616C2F636F6D706F6E656E74F2
:104A3C00732F6C69627261726965732F657870652A
:104A4C0072696D656E74616C5F73656374696F6EAA
:104A5C005F766172732F6E72665F73656374696FD4
:104A6C006E5F697465722E63000000002F557365CC
:104A7C0072732F73696D656E726F737461642F44FA
:104A8C006F63756D656E74732F4769744875622F0B
:104A9C0042616368656C6F722D4E6F726469635FFF
:104AAC0053656D692F4669726D776172652F457814
:104ABC007465726E616C2F636F6D706F6E656E7462
:104ACC00732F647269766572735F6E72662F636C96
:104ADC006F636B2F6E72665F6472765F636C6F636D
:104AEC006B2E63002F55736572732F73696D656E32
:104AFC00726F737461642F446F63756D656E74733C
:104B0C002F4769744875622F42616368656C6F72D8
:104B1C002D4E6F726469635F53656D692F466972C0
:104B2C006D776172652F45787465726E616C2F6359
:104B3C006F6D706F6E656E74732F647269766572CB
:104B4C00735F6E72662F636F6D6D6F6E2F6E726614
:104B5C005F6472765F636F6D6D6F6E2E6300000025
:104B6C002F55736572732F73696D656E726F7374E5
:104B7C0061642F446F63756D656E74732F47697430
:104B8C004875622F42616368656C6F722D4E6F724F
:104B9C006469635F53656D692F4669726D776172E5
:104BAC00652F50726F6A656374732F656873625FEB
:104BBC006E6F726469635F622F6D61696E2E630044
:104BCC009FCADC240EE5A9E093F3A3B50000406E68
:104BDC002E2E2F2E2E2F2E2E2F2E2E2F2E2E2F45CD
:104BEC00787465726E616C2F636F6D706F6E656E2D
:104BFC0074732F6C69627261726965732F6578705A
:104C0C006572696D656E74616C5F73656374696FF1
:104C1C006E5F766172732F6E72665F736563746913
:104C2C006F6E5F697465722E680000002F55736596
:104C3C0072732F73696D656E726F737461642F4438
:104C4C006F63756D656E74732F4769744875622F49
:104C5C0042616368656C6F722D4E6F726469635F3D
:104C6C0053656D692F4669726D776172652F457852
:104C7C007465726E616C2F636F6D706F6E656E74A0
:104C8C00732F736F66746465766963652F636F6DDC
:104C9C006D6F6E2F6E72665F7364682E630000001A
:104CAC00001002015449020054490200080000009F
:104CBC00544902005C490200080000005C490200F3
:104CCC006C490200080000002E2E2F2E2E2F2E2EA7
:104CDC002F2E2E2F2E2E2F45787465726E616C2F11
:104CEC00636F6D706F6E656E74732F6C6962726139
:104CFC00726965732F6578706572696D656E746124
:104D0C006C5F73656374696F6E5F766172732F6E1F
:104D1C0072665F73656374696F6E5F697465722E1A
:104D2C00680000002F55736572732F73696D656E83
:104D3C00726F737461642F446F63756D656E7473F9
:104D4C002F4769744875622F42616368656C6F7296
:104D5C002D4E6F726469635F53656D692F4669727E
:104D6C006D776172652F45787465726E616C2F6317
:104D7C006F6D706F6E656E74732F736F6674646590
:104D8C00766963652F636F6D6D6F6E2F6E72665FE4
:104D9C007364685F626C652E630000005449020006
:104DAC0054490200080000002E2E2F2E2E2F2E2EDE
:104DBC002F2E2E2F2E2E2F45787465726E616C2F30
:104DCC00636F6D706F6E656E74732F6C6962726158
:104DDC00726965732F6578706572696D656E746143
:104DEC006C5F73656374696F6E5F766172732F6E3F
:104DFC0072665F73656374696F6E5F697465722E3A
:104E0C00680000002F55736572732F73696D656EA2
:104E1C00726F737461642F446F63756D656E747318
:104E2C002F4769744875622F42616368656C6F72B5
:104E3C002D4E6F726469635F53656D692F4669729D
:104E4C006D776172652F45787465726E616C2F6336
:104E5C006F6D706F6E656E74732F736F66746465AF
:104E6C00766963652F636F6D6D6F6E2F6E72665F03
:104E7C007364685F736F632E630000004C4902001B
:084E8C00544902000800000077
:044E94000090D003B7
:040000032000323D6A
:00000001FF
